{
	"moolahverse.sol": {
		"Moolahverse": {
			"abi": [
				{
					"inputs": [],
					"stateMutability": "nonpayable",
					"type": "constructor"
				},
				{
					"inputs": [],
					"name": "ECDSAInvalidSignature",
					"type": "error"
				},
				{
					"inputs": [
						{
							"internalType": "uint256",
							"name": "length",
							"type": "uint256"
						}
					],
					"name": "ECDSAInvalidSignatureLength",
					"type": "error"
				},
				{
					"inputs": [
						{
							"internalType": "bytes32",
							"name": "s",
							"type": "bytes32"
						}
					],
					"name": "ECDSAInvalidSignatureS",
					"type": "error"
				},
				{
					"inputs": [
						{
							"internalType": "address",
							"name": "spender",
							"type": "address"
						},
						{
							"internalType": "uint256",
							"name": "allowance",
							"type": "uint256"
						},
						{
							"internalType": "uint256",
							"name": "needed",
							"type": "uint256"
						}
					],
					"name": "ERC20InsufficientAllowance",
					"type": "error"
				},
				{
					"inputs": [
						{
							"internalType": "address",
							"name": "sender",
							"type": "address"
						},
						{
							"internalType": "uint256",
							"name": "balance",
							"type": "uint256"
						},
						{
							"internalType": "uint256",
							"name": "needed",
							"type": "uint256"
						}
					],
					"name": "ERC20InsufficientBalance",
					"type": "error"
				},
				{
					"inputs": [
						{
							"internalType": "address",
							"name": "approver",
							"type": "address"
						}
					],
					"name": "ERC20InvalidApprover",
					"type": "error"
				},
				{
					"inputs": [
						{
							"internalType": "address",
							"name": "receiver",
							"type": "address"
						}
					],
					"name": "ERC20InvalidReceiver",
					"type": "error"
				},
				{
					"inputs": [
						{
							"internalType": "address",
							"name": "sender",
							"type": "address"
						}
					],
					"name": "ERC20InvalidSender",
					"type": "error"
				},
				{
					"inputs": [
						{
							"internalType": "address",
							"name": "spender",
							"type": "address"
						}
					],
					"name": "ERC20InvalidSpender",
					"type": "error"
				},
				{
					"inputs": [
						{
							"internalType": "uint256",
							"name": "deadline",
							"type": "uint256"
						}
					],
					"name": "ERC2612ExpiredSignature",
					"type": "error"
				},
				{
					"inputs": [
						{
							"internalType": "address",
							"name": "signer",
							"type": "address"
						},
						{
							"internalType": "address",
							"name": "owner",
							"type": "address"
						}
					],
					"name": "ERC2612InvalidSigner",
					"type": "error"
				},
				{
					"inputs": [
						{
							"internalType": "address",
							"name": "account",
							"type": "address"
						},
						{
							"internalType": "uint256",
							"name": "currentNonce",
							"type": "uint256"
						}
					],
					"name": "InvalidAccountNonce",
					"type": "error"
				},
				{
					"inputs": [],
					"name": "InvalidShortString",
					"type": "error"
				},
				{
					"inputs": [
						{
							"internalType": "string",
							"name": "str",
							"type": "string"
						}
					],
					"name": "StringTooLong",
					"type": "error"
				},
				{
					"anonymous": false,
					"inputs": [
						{
							"indexed": true,
							"internalType": "address",
							"name": "owner",
							"type": "address"
						},
						{
							"indexed": true,
							"internalType": "address",
							"name": "spender",
							"type": "address"
						},
						{
							"indexed": false,
							"internalType": "uint256",
							"name": "value",
							"type": "uint256"
						}
					],
					"name": "Approval",
					"type": "event"
				},
				{
					"anonymous": false,
					"inputs": [],
					"name": "EIP712DomainChanged",
					"type": "event"
				},
				{
					"anonymous": false,
					"inputs": [
						{
							"indexed": true,
							"internalType": "address",
							"name": "from",
							"type": "address"
						},
						{
							"indexed": true,
							"internalType": "address",
							"name": "to",
							"type": "address"
						},
						{
							"indexed": false,
							"internalType": "uint256",
							"name": "value",
							"type": "uint256"
						}
					],
					"name": "Transfer",
					"type": "event"
				},
				{
					"inputs": [],
					"name": "DOMAIN_SEPARATOR",
					"outputs": [
						{
							"internalType": "bytes32",
							"name": "",
							"type": "bytes32"
						}
					],
					"stateMutability": "view",
					"type": "function"
				},
				{
					"inputs": [
						{
							"internalType": "address",
							"name": "owner",
							"type": "address"
						},
						{
							"internalType": "address",
							"name": "spender",
							"type": "address"
						}
					],
					"name": "allowance",
					"outputs": [
						{
							"internalType": "uint256",
							"name": "",
							"type": "uint256"
						}
					],
					"stateMutability": "view",
					"type": "function"
				},
				{
					"inputs": [
						{
							"internalType": "address",
							"name": "spender",
							"type": "address"
						},
						{
							"internalType": "uint256",
							"name": "value",
							"type": "uint256"
						}
					],
					"name": "approve",
					"outputs": [
						{
							"internalType": "bool",
							"name": "",
							"type": "bool"
						}
					],
					"stateMutability": "nonpayable",
					"type": "function"
				},
				{
					"inputs": [
						{
							"internalType": "address",
							"name": "account",
							"type": "address"
						}
					],
					"name": "balanceOf",
					"outputs": [
						{
							"internalType": "uint256",
							"name": "",
							"type": "uint256"
						}
					],
					"stateMutability": "view",
					"type": "function"
				},
				{
					"inputs": [
						{
							"internalType": "uint256",
							"name": "value",
							"type": "uint256"
						}
					],
					"name": "burn",
					"outputs": [],
					"stateMutability": "nonpayable",
					"type": "function"
				},
				{
					"inputs": [
						{
							"internalType": "address",
							"name": "account",
							"type": "address"
						},
						{
							"internalType": "uint256",
							"name": "value",
							"type": "uint256"
						}
					],
					"name": "burnFrom",
					"outputs": [],
					"stateMutability": "nonpayable",
					"type": "function"
				},
				{
					"inputs": [],
					"name": "decimals",
					"outputs": [
						{
							"internalType": "uint8",
							"name": "",
							"type": "uint8"
						}
					],
					"stateMutability": "view",
					"type": "function"
				},
				{
					"inputs": [],
					"name": "eip712Domain",
					"outputs": [
						{
							"internalType": "bytes1",
							"name": "fields",
							"type": "bytes1"
						},
						{
							"internalType": "string",
							"name": "name",
							"type": "string"
						},
						{
							"internalType": "string",
							"name": "version",
							"type": "string"
						},
						{
							"internalType": "uint256",
							"name": "chainId",
							"type": "uint256"
						},
						{
							"internalType": "address",
							"name": "verifyingContract",
							"type": "address"
						},
						{
							"internalType": "bytes32",
							"name": "salt",
							"type": "bytes32"
						},
						{
							"internalType": "uint256[]",
							"name": "extensions",
							"type": "uint256[]"
						}
					],
					"stateMutability": "view",
					"type": "function"
				},
				{
					"inputs": [],
					"name": "name",
					"outputs": [
						{
							"internalType": "string",
							"name": "",
							"type": "string"
						}
					],
					"stateMutability": "view",
					"type": "function"
				},
				{
					"inputs": [
						{
							"internalType": "address",
							"name": "owner",
							"type": "address"
						}
					],
					"name": "nonces",
					"outputs": [
						{
							"internalType": "uint256",
							"name": "",
							"type": "uint256"
						}
					],
					"stateMutability": "view",
					"type": "function"
				},
				{
					"inputs": [
						{
							"internalType": "address",
							"name": "owner",
							"type": "address"
						},
						{
							"internalType": "address",
							"name": "spender",
							"type": "address"
						},
						{
							"internalType": "uint256",
							"name": "value",
							"type": "uint256"
						},
						{
							"internalType": "uint256",
							"name": "deadline",
							"type": "uint256"
						},
						{
							"internalType": "uint8",
							"name": "v",
							"type": "uint8"
						},
						{
							"internalType": "bytes32",
							"name": "r",
							"type": "bytes32"
						},
						{
							"internalType": "bytes32",
							"name": "s",
							"type": "bytes32"
						}
					],
					"name": "permit",
					"outputs": [],
					"stateMutability": "nonpayable",
					"type": "function"
				},
				{
					"inputs": [],
					"name": "symbol",
					"outputs": [
						{
							"internalType": "string",
							"name": "",
							"type": "string"
						}
					],
					"stateMutability": "view",
					"type": "function"
				},
				{
					"inputs": [],
					"name": "totalSupply",
					"outputs": [
						{
							"internalType": "uint256",
							"name": "",
							"type": "uint256"
						}
					],
					"stateMutability": "view",
					"type": "function"
				},
				{
					"inputs": [
						{
							"internalType": "address",
							"name": "to",
							"type": "address"
						},
						{
							"internalType": "uint256",
							"name": "value",
							"type": "uint256"
						}
					],
					"name": "transfer",
					"outputs": [
						{
							"internalType": "bool",
							"name": "",
							"type": "bool"
						}
					],
					"stateMutability": "nonpayable",
					"type": "function"
				},
				{
					"inputs": [
						{
							"internalType": "address",
							"name": "from",
							"type": "address"
						},
						{
							"internalType": "address",
							"name": "to",
							"type": "address"
						},
						{
							"internalType": "uint256",
							"name": "value",
							"type": "uint256"
						}
					],
					"name": "transferFrom",
					"outputs": [
						{
							"internalType": "bool",
							"name": "",
							"type": "bool"
						}
					],
					"stateMutability": "nonpayable",
					"type": "function"
				}
			],
			"devdoc": {
				"errors": {
					"ECDSAInvalidSignature()": [
						{
							"details": "The signature derives the `address(0)`."
						}
					],
					"ECDSAInvalidSignatureLength(uint256)": [
						{
							"details": "The signature has an invalid length."
						}
					],
					"ECDSAInvalidSignatureS(bytes32)": [
						{
							"details": "The signature has an S value that is in the upper half order."
						}
					],
					"ERC20InsufficientAllowance(address,uint256,uint256)": [
						{
							"details": "Indicates a failure with the `spender`’s `allowance`. Used in transfers.",
							"params": {
								"allowance": "Amount of tokens a `spender` is allowed to operate with.",
								"needed": "Minimum amount required to perform a transfer.",
								"spender": "Address that may be allowed to operate on tokens without being their owner."
							}
						}
					],
					"ERC20InsufficientBalance(address,uint256,uint256)": [
						{
							"details": "Indicates an error related to the current `balance` of a `sender`. Used in transfers.",
							"params": {
								"balance": "Current balance for the interacting account.",
								"needed": "Minimum amount required to perform a transfer.",
								"sender": "Address whose tokens are being transferred."
							}
						}
					],
					"ERC20InvalidApprover(address)": [
						{
							"details": "Indicates a failure with the `approver` of a token to be approved. Used in approvals.",
							"params": {
								"approver": "Address initiating an approval operation."
							}
						}
					],
					"ERC20InvalidReceiver(address)": [
						{
							"details": "Indicates a failure with the token `receiver`. Used in transfers.",
							"params": {
								"receiver": "Address to which tokens are being transferred."
							}
						}
					],
					"ERC20InvalidSender(address)": [
						{
							"details": "Indicates a failure with the token `sender`. Used in transfers.",
							"params": {
								"sender": "Address whose tokens are being transferred."
							}
						}
					],
					"ERC20InvalidSpender(address)": [
						{
							"details": "Indicates a failure with the `spender` to be approved. Used in approvals.",
							"params": {
								"spender": "Address that may be allowed to operate on tokens without being their owner."
							}
						}
					],
					"ERC2612ExpiredSignature(uint256)": [
						{
							"details": "Permit deadline has expired."
						}
					],
					"ERC2612InvalidSigner(address,address)": [
						{
							"details": "Mismatched signature."
						}
					],
					"InvalidAccountNonce(address,uint256)": [
						{
							"details": "The nonce used for an `account` is not the expected current nonce."
						}
					]
				},
				"events": {
					"Approval(address,address,uint256)": {
						"details": "Emitted when the allowance of a `spender` for an `owner` is set by a call to {approve}. `value` is the new allowance."
					},
					"EIP712DomainChanged()": {
						"details": "MAY be emitted to signal that the domain could have changed."
					},
					"Transfer(address,address,uint256)": {
						"details": "Emitted when `value` tokens are moved from one account (`from`) to another (`to`). Note that `value` may be zero."
					}
				},
				"kind": "dev",
				"methods": {
					"DOMAIN_SEPARATOR()": {
						"details": "Returns the domain separator used in the encoding of the signature for {permit}, as defined by {EIP712}."
					},
					"allowance(address,address)": {
						"details": "See {IERC20-allowance}."
					},
					"approve(address,uint256)": {
						"details": "See {IERC20-approve}. NOTE: If `value` is the maximum `uint256`, the allowance is not updated on `transferFrom`. This is semantically equivalent to an infinite approval. Requirements: - `spender` cannot be the zero address."
					},
					"balanceOf(address)": {
						"details": "See {IERC20-balanceOf}."
					},
					"burn(uint256)": {
						"details": "Destroys a `value` amount of tokens from the caller. See {ERC20-_burn}."
					},
					"burnFrom(address,uint256)": {
						"details": "Destroys a `value` amount of tokens from `account`, deducting from the caller's allowance. See {ERC20-_burn} and {ERC20-allowance}. Requirements: - the caller must have allowance for ``accounts``'s tokens of at least `value`."
					},
					"decimals()": {
						"details": "Returns the number of decimals used to get its user representation. For example, if `decimals` equals `2`, a balance of `505` tokens should be displayed to a user as `5.05` (`505 / 10 ** 2`). Tokens usually opt for a value of 18, imitating the relationship between Ether and Wei. This is the default value returned by this function, unless it's overridden. NOTE: This information is only used for _display_ purposes: it in no way affects any of the arithmetic of the contract, including {IERC20-balanceOf} and {IERC20-transfer}."
					},
					"eip712Domain()": {
						"details": "See {IERC-5267}."
					},
					"name()": {
						"details": "Returns the name of the token."
					},
					"nonces(address)": {
						"details": "Returns the current nonce for `owner`. This value must be included whenever a signature is generated for {permit}. Every successful call to {permit} increases ``owner``'s nonce by one. This prevents a signature from being used multiple times."
					},
					"permit(address,address,uint256,uint256,uint8,bytes32,bytes32)": {
						"details": "Sets `value` as the allowance of `spender` over ``owner``'s tokens, given ``owner``'s signed approval. IMPORTANT: The same issues {IERC20-approve} has related to transaction ordering also apply here. Emits an {Approval} event. Requirements: - `spender` cannot be the zero address. - `deadline` must be a timestamp in the future. - `v`, `r` and `s` must be a valid `secp256k1` signature from `owner` over the EIP712-formatted function arguments. - the signature must use ``owner``'s current nonce (see {nonces}). For more information on the signature format, see the https://eips.ethereum.org/EIPS/eip-2612#specification[relevant EIP section]. CAUTION: See Security Considerations above."
					},
					"symbol()": {
						"details": "Returns the symbol of the token, usually a shorter version of the name."
					},
					"totalSupply()": {
						"details": "See {IERC20-totalSupply}."
					},
					"transfer(address,uint256)": {
						"details": "See {IERC20-transfer}. Requirements: - `to` cannot be the zero address. - the caller must have a balance of at least `value`."
					},
					"transferFrom(address,address,uint256)": {
						"details": "See {IERC20-transferFrom}. Emits an {Approval} event indicating the updated allowance. This is not required by the EIP. See the note at the beginning of {ERC20}. NOTE: Does not update the allowance if the current allowance is the maximum `uint256`. Requirements: - `from` and `to` cannot be the zero address. - `from` must have a balance of at least `value`. - the caller must have allowance for ``from``'s tokens of at least `value`."
					}
				},
				"version": 1
			},
			"evm": {
				"assembly": "    /* \"moolahverse.sol\":281:481  contract Moolahverse is ERC20, ERC20Burnable, ERC20Permit {... */\n  mstore(0x40, 0x0160)\n    /* \"moolahverse.sol\":345:479  constructor() ERC20(\"Moolahverse\", \"MLH\") ERC20Permit(\"Moolahverse\") {... */\n  callvalue\n  dup1\n  iszero\n  tag_1\n  jumpi\n  0x00\n  dup1\n  revert\ntag_1:\n  pop\n    /* \"@openzeppelin/contracts@5.0.0/token/ERC20/extensions/ERC20Permit.sol\":1574:1626  constructor(string memory name) EIP712(name, \"1\") {} */\n  mload(0x40)\n  dup1\n  0x40\n  add\n  0x40\n  mstore\n  dup1\n  0x0b\n  dup2\n  mstore\n  0x20\n  add\n  shl(0xa8, 0x4d6f6f6c61687665727365)\n  dup2\n  mstore\n  pop\n    /* \"@openzeppelin/contracts@5.0.0/token/ERC20/extensions/ERC20Permit.sol\":1613:1617  name */\n  dup1\n    /* \"@openzeppelin/contracts@5.0.0/utils/cryptography/EIP712.sol\":3328:3759  constructor(string memory name, string memory version) {... */\n  mload(0x40)\n  dup1\n  0x40\n  add\n  0x40\n  mstore\n  dup1\n  0x01\n  dup2\n  mstore\n  0x20\n  add\n  shl(0xf8, 0x31)\n  dup2\n  mstore\n  pop\n    /* \"@openzeppelin/contracts@5.0.0/token/ERC20/ERC20.sol\":1896:2009  constructor(string memory name_, string memory symbol_) {... */\n  mload(0x40)\n  dup1\n  0x40\n  add\n  0x40\n  mstore\n  dup1\n  0x0b\n  dup2\n  mstore\n  0x20\n  add\n  shl(0xa8, 0x4d6f6f6c61687665727365)\n  dup2\n  mstore\n  pop\n  mload(0x40)\n  dup1\n  0x40\n  add\n  0x40\n  mstore\n  dup1\n  0x03\n  dup2\n  mstore\n  0x20\n  add\n  shl(0xeb, 0x09a989)\n  dup2\n  mstore\n  pop\n    /* \"@openzeppelin/contracts@5.0.0/token/ERC20/ERC20.sol\":1970:1975  name_ */\n  dup2\n    /* \"@openzeppelin/contracts@5.0.0/token/ERC20/ERC20.sol\":1962:1967  _name */\n  0x03\n    /* \"@openzeppelin/contracts@5.0.0/token/ERC20/ERC20.sol\":1962:1975  _name = name_ */\n  swap1\n  dup2\n  tag_7\n  swap2\n  swap1\n  tag_8\n  jump\t// in\ntag_7:\n  pop\n    /* \"@openzeppelin/contracts@5.0.0/token/ERC20/ERC20.sol\":1985:1992  _symbol */\n  0x04\n    /* \"@openzeppelin/contracts@5.0.0/token/ERC20/ERC20.sol\":1985:2002  _symbol = symbol_ */\n  tag_9\n    /* \"@openzeppelin/contracts@5.0.0/token/ERC20/ERC20.sol\":1995:2002  symbol_ */\n  dup3\n    /* \"@openzeppelin/contracts@5.0.0/token/ERC20/ERC20.sol\":1985:1992  _symbol */\n  dup3\n    /* \"@openzeppelin/contracts@5.0.0/token/ERC20/ERC20.sol\":1985:2002  _symbol = symbol_ */\n  tag_8\n  jump\t// in\ntag_9:\n  pop\n    /* \"@openzeppelin/contracts@5.0.0/utils/cryptography/EIP712.sol\":3401:3446  name.toShortStringWithFallback(_nameFallback) */\n  tag_11\n  swap2\n  pop\n    /* \"@openzeppelin/contracts@5.0.0/utils/cryptography/EIP712.sol\":3401:3405  name */\n  dup4\n  swap1\n  pop\n    /* \"@openzeppelin/contracts@5.0.0/utils/cryptography/EIP712.sol\":3432:3445  _nameFallback */\n  0x05\n    /* \"@openzeppelin/contracts@5.0.0/utils/cryptography/EIP712.sol\":3401:3431  name.toShortStringWithFallback */\n  tag_12\n    /* \"@openzeppelin/contracts@5.0.0/utils/cryptography/EIP712.sol\":3401:3446  name.toShortStringWithFallback(_nameFallback) */\n  jump\t// in\ntag_11:\n    /* \"@openzeppelin/contracts@5.0.0/utils/cryptography/EIP712.sol\":3393:3446  _name = name.toShortStringWithFallback(_nameFallback) */\n  0x0120\n  mstore\n    /* \"@openzeppelin/contracts@5.0.0/utils/cryptography/EIP712.sol\":3467:3518  version.toShortStringWithFallback(_versionFallback) */\n  tag_13\n    /* \"@openzeppelin/contracts@5.0.0/utils/cryptography/EIP712.sol\":3467:3474  version */\n  dup2\n    /* \"@openzeppelin/contracts@5.0.0/utils/cryptography/EIP712.sol\":3501:3517  _versionFallback */\n  0x06\n    /* \"@openzeppelin/contracts@5.0.0/utils/cryptography/EIP712.sol\":3467:3500  version.toShortStringWithFallback */\n  tag_12\n    /* \"@openzeppelin/contracts@5.0.0/utils/cryptography/EIP712.sol\":3467:3518  version.toShortStringWithFallback(_versionFallback) */\n  jump\t// in\ntag_13:\n    /* \"@openzeppelin/contracts@5.0.0/utils/cryptography/EIP712.sol\":3456:3518  _version = version.toShortStringWithFallback(_versionFallback) */\n  0x0140\n  mstore\n    /* \"@openzeppelin/contracts@5.0.0/utils/cryptography/EIP712.sol\":3542:3564  keccak256(bytes(name)) */\n  dup2\n  mload\n  0x20\n  dup1\n  dup5\n  add\n  swap2\n  swap1\n  swap2\n  keccak256\n    /* \"@openzeppelin/contracts@5.0.0/utils/cryptography/EIP712.sol\":3528:3564  _hashedName = keccak256(bytes(name)) */\n  0xe0\n  mstore\n    /* \"@openzeppelin/contracts@5.0.0/utils/cryptography/EIP712.sol\":3591:3616  keccak256(bytes(version)) */\n  dup2\n  mload\n  swap1\n  dup3\n  add\n  keccak256\n    /* \"@openzeppelin/contracts@5.0.0/utils/cryptography/EIP712.sol\":3574:3616  _hashedVersion = keccak256(bytes(version)) */\n  0x0100\n  mstore\n    /* \"@openzeppelin/contracts@5.0.0/utils/cryptography/EIP712.sol\":3644:3657  block.chainid */\n  chainid\n    /* \"@openzeppelin/contracts@5.0.0/utils/cryptography/EIP712.sol\":3627:3657  _cachedChainId = block.chainid */\n  0xa0\n  mstore\n    /* \"@openzeppelin/contracts@5.0.0/utils/cryptography/EIP712.sol\":3692:3715  _buildDomainSeparator() */\n  tag_14\n    /* \"@openzeppelin/contracts@5.0.0/utils/cryptography/EIP712.sol\":4226:4237  _hashedName */\n  mload(0xe0)\n    /* \"@openzeppelin/contracts@5.0.0/utils/cryptography/EIP712.sol\":4239:4253  _hashedVersion */\n  mload(0x0100)\n    /* \"@openzeppelin/contracts@5.0.0/utils/cryptography/EIP712.sol\":4204:4284  abi.encode(TYPE_HASH, _hashedName, _hashedVersion, block.chainid, address(this)) */\n  0x40\n  dup1\n  mload\n    /* \"@openzeppelin/contracts@5.0.0/utils/cryptography/EIP712.sol\":2079:2174  keccak256(\"EIP712Domain(string name,string version,uint256 chainId,address verifyingContract)\") */\n  0x8b73c3c69bb8fe3d512ecc4cf759cc79239f7b179b0ffacaa9a75d522b39400f\n    /* \"@openzeppelin/contracts@5.0.0/utils/cryptography/EIP712.sol\":4204:4284  abi.encode(TYPE_HASH, _hashedName, _hashedVersion, block.chainid, address(this)) */\n  0x20\n  dup3\n  add\n    /* \"#utility.yul\":4682:4707   */\n  mstore\n    /* \"#utility.yul\":4723:4741   */\n  swap1\n  dup2\n  add\n    /* \"#utility.yul\":4716:4750   */\n  swap3\n  swap1\n  swap3\n  mstore\n    /* \"#utility.yul\":4766:4784   */\n  0x60\n  dup3\n  add\n    /* \"#utility.yul\":4759:4793   */\n  mstore\n    /* \"@openzeppelin/contracts@5.0.0/utils/cryptography/EIP712.sol\":4255:4268  block.chainid */\n  chainid\n    /* \"#utility.yul\":4809:4827   */\n  0x80\n  dup3\n  add\n    /* \"#utility.yul\":4802:4836   */\n  mstore\n    /* \"@openzeppelin/contracts@5.0.0/utils/cryptography/EIP712.sol\":4278:4282  this */\n  address\n    /* \"#utility.yul\":4852:4871   */\n  0xa0\n  dup3\n  add\n    /* \"#utility.yul\":4845:4906   */\n  mstore\n    /* \"@openzeppelin/contracts@5.0.0/utils/cryptography/EIP712.sol\":4168:4175  bytes32 */\n  0x00\n  swap1\n    /* \"#utility.yul\":4654:4673   */\n  0xc0\n  add\n    /* \"@openzeppelin/contracts@5.0.0/utils/cryptography/EIP712.sol\":4204:4284  abi.encode(TYPE_HASH, _hashedName, _hashedVersion, block.chainid, address(this)) */\n  mload(0x40)\n  0x20\n  dup2\n  dup4\n  sub\n  sub\n  dup2\n  mstore\n  swap1\n  0x40\n  mstore\n    /* \"@openzeppelin/contracts@5.0.0/utils/cryptography/EIP712.sol\":4194:4285  keccak256(abi.encode(TYPE_HASH, _hashedName, _hashedVersion, block.chainid, address(this))) */\n  dup1\n  mload\n  swap1\n  0x20\n  add\n  keccak256\n    /* \"@openzeppelin/contracts@5.0.0/utils/cryptography/EIP712.sol\":4187:4285  return keccak256(abi.encode(TYPE_HASH, _hashedName, _hashedVersion, block.chainid, address(this))) */\n  swap1\n  pop\n    /* \"@openzeppelin/contracts@5.0.0/utils/cryptography/EIP712.sol\":4113:4292  function _buildDomainSeparator() private view returns (bytes32) {... */\n  swap1\n  jump\n    /* \"@openzeppelin/contracts@5.0.0/utils/cryptography/EIP712.sol\":3692:3715  _buildDomainSeparator() */\ntag_14:\n    /* \"@openzeppelin/contracts@5.0.0/utils/cryptography/EIP712.sol\":3667:3715  _cachedDomainSeparator = _buildDomainSeparator() */\n  0x80\n  mstore\n  pop\n  pop\n    /* \"@openzeppelin/contracts@5.0.0/utils/cryptography/EIP712.sol\":3747:3751  this */\n  address\n    /* \"@openzeppelin/contracts@5.0.0/utils/cryptography/EIP712.sol\":3725:3752  _cachedThis = address(this) */\n  0xc0\n  mstore\n  pop\n    /* \"moolahverse.sol\":424:472  _mint(msg.sender, 1000000000 * 10 ** decimals()) */\n  tag_18\n    /* \"moolahverse.sol\":430:440  msg.sender */\n  caller\n    /* \"moolahverse.sol\":455:471  10 ** decimals() */\n  tag_21\n    /* \"@openzeppelin/contracts@5.0.0/token/ERC20/ERC20.sol\":3075:3077  18 */\n  0x12\n    /* \"moolahverse.sol\":455:457  10 */\n  0x0a\n    /* \"moolahverse.sol\":455:471  10 ** decimals() */\n  tag_22\n  jump\t// in\ntag_21:\n    /* \"moolahverse.sol\":442:471  1000000000 * 10 ** decimals() */\n  tag_23\n  swap1\n    /* \"moolahverse.sol\":442:452  1000000000 */\n  0x3b9aca00\n    /* \"moolahverse.sol\":442:471  1000000000 * 10 ** decimals() */\n  tag_24\n  jump\t// in\ntag_23:\n    /* \"moolahverse.sol\":424:429  _mint */\n  tag_25\n    /* \"moolahverse.sol\":424:472  _mint(msg.sender, 1000000000 * 10 ** decimals()) */\n  jump\t// in\ntag_18:\n    /* \"moolahverse.sol\":281:481  contract Moolahverse is ERC20, ERC20Burnable, ERC20Permit {... */\n  jump(tag_72)\n    /* \"@openzeppelin/contracts@5.0.0/utils/ShortStrings.sol\":2914:3254  function toShortStringWithFallback(string memory value, string storage store) internal returns (ShortString) {... */\ntag_12:\n    /* \"@openzeppelin/contracts@5.0.0/utils/ShortStrings.sol\":3010:3021  ShortString */\n  0x00\n    /* \"@openzeppelin/contracts@5.0.0/utils/ShortStrings.sol\":3059:3061  32 */\n  0x20\n    /* \"@openzeppelin/contracts@5.0.0/utils/ShortStrings.sol\":3043:3048  value */\n  dup4\n    /* \"@openzeppelin/contracts@5.0.0/utils/ShortStrings.sol\":3037:3056  bytes(value).length */\n  mload\n    /* \"@openzeppelin/contracts@5.0.0/utils/ShortStrings.sol\":3037:3061  bytes(value).length < 32 */\n  lt\n    /* \"@openzeppelin/contracts@5.0.0/utils/ShortStrings.sol\":3033:3248  if (bytes(value).length < 32) {... */\n  iszero\n  tag_28\n  jumpi\n    /* \"@openzeppelin/contracts@5.0.0/utils/ShortStrings.sol\":3084:3104  toShortString(value) */\n  tag_29\n    /* \"@openzeppelin/contracts@5.0.0/utils/ShortStrings.sol\":3098:3103  value */\n  dup4\n    /* \"@openzeppelin/contracts@5.0.0/utils/ShortStrings.sol\":3084:3097  toShortString */\n  tag_30\n    /* \"@openzeppelin/contracts@5.0.0/utils/ShortStrings.sol\":3084:3104  toShortString(value) */\n  jump\t// in\ntag_29:\n    /* \"@openzeppelin/contracts@5.0.0/utils/ShortStrings.sol\":3077:3104  return toShortString(value) */\n  swap1\n  pop\n  jump(tag_31)\n    /* \"@openzeppelin/contracts@5.0.0/utils/ShortStrings.sol\":3033:3248  if (bytes(value).length < 32) {... */\ntag_28:\n    /* \"@openzeppelin/contracts@5.0.0/utils/ShortStrings.sol\":3161:3166  store */\n  dup2\n    /* \"@openzeppelin/contracts@5.0.0/utils/ShortStrings.sol\":3135:3181  StorageSlot.getStringSlot(store).value = value */\n  tag_34\n    /* \"@openzeppelin/contracts@5.0.0/utils/ShortStrings.sol\":3176:3181  value */\n  dup5\n    /* \"@openzeppelin/contracts@5.0.0/utils/ShortStrings.sol\":3161:3166  store */\n  dup3\n    /* \"@openzeppelin/contracts@5.0.0/utils/ShortStrings.sol\":3135:3181  StorageSlot.getStringSlot(store).value = value */\n  tag_8\n  jump\t// in\ntag_34:\n  pop\n    /* \"@openzeppelin/contracts@5.0.0/utils/ShortStrings.sol\":1390:1456  0x00000000000000000000000000000000000000000000000000000000000000FF */\n  0xff\n  swap1\n  pop\n    /* \"@openzeppelin/contracts@5.0.0/utils/ShortStrings.sol\":3033:3248  if (bytes(value).length < 32) {... */\ntag_31:\n    /* \"@openzeppelin/contracts@5.0.0/utils/ShortStrings.sol\":2914:3254  function toShortStringWithFallback(string memory value, string storage store) internal returns (ShortString) {... */\n  swap3\n  swap2\n  pop\n  pop\n  jump\t// out\n    /* \"@openzeppelin/contracts@5.0.0/token/ERC20/ERC20.sol\":7721:7929  function _mint(address account, uint256 value) internal {... */\ntag_25:\n  sub(shl(0xa0, 0x01), 0x01)\n    /* \"@openzeppelin/contracts@5.0.0/token/ERC20/ERC20.sol\":7791:7812  account == address(0) */\n  dup3\n  and\n    /* \"@openzeppelin/contracts@5.0.0/token/ERC20/ERC20.sol\":7787:7878  if (account == address(0)) {... */\n  tag_40\n  jumpi\n    /* \"@openzeppelin/contracts@5.0.0/token/ERC20/ERC20.sol\":7835:7867  ERC20InvalidReceiver(address(0)) */\n  mload(0x40)\n  shl(0xe0, 0xec442f05)\n  dup2\n  mstore\n    /* \"@openzeppelin/contracts@5.0.0/token/ERC20/ERC20.sol\":7864:7865  0 */\n  0x00\n    /* \"@openzeppelin/contracts@5.0.0/token/ERC20/ERC20.sol\":7835:7867  ERC20InvalidReceiver(address(0)) */\n  0x04\n  dup3\n  add\n    /* \"#utility.yul\":5063:5114   */\n  mstore\n    /* \"#utility.yul\":5036:5054   */\n  0x24\n  add\n    /* \"@openzeppelin/contracts@5.0.0/token/ERC20/ERC20.sol\":7835:7867  ERC20InvalidReceiver(address(0)) */\ntag_41:\n  mload(0x40)\n  dup1\n  swap2\n  sub\n  swap1\n  revert\n    /* \"@openzeppelin/contracts@5.0.0/token/ERC20/ERC20.sol\":7787:7878  if (account == address(0)) {... */\ntag_40:\n    /* \"@openzeppelin/contracts@5.0.0/token/ERC20/ERC20.sol\":7887:7922  _update(address(0), account, value) */\n  tag_43\n    /* \"@openzeppelin/contracts@5.0.0/token/ERC20/ERC20.sol\":7903:7904  0 */\n  0x00\n    /* \"@openzeppelin/contracts@5.0.0/token/ERC20/ERC20.sol\":7907:7914  account */\n  dup4\n    /* \"@openzeppelin/contracts@5.0.0/token/ERC20/ERC20.sol\":7916:7921  value */\n  dup4\n    /* \"@openzeppelin/contracts@5.0.0/token/ERC20/ERC20.sol\":7887:7894  _update */\n  tag_44\n    /* \"@openzeppelin/contracts@5.0.0/token/ERC20/ERC20.sol\":7887:7922  _update(address(0), account, value) */\n  jump\t// in\ntag_43:\n    /* \"@openzeppelin/contracts@5.0.0/token/ERC20/ERC20.sol\":7721:7929  function _mint(address account, uint256 value) internal {... */\n  pop\n  pop\n  jump\t// out\n    /* \"@openzeppelin/contracts@5.0.0/utils/ShortStrings.sol\":1708:1994  function toShortString(string memory str) internal pure returns (ShortString) {... */\ntag_30:\n    /* \"@openzeppelin/contracts@5.0.0/utils/ShortStrings.sol\":1773:1784  ShortString */\n  0x00\n    /* \"@openzeppelin/contracts@5.0.0/utils/ShortStrings.sol\":1796:1813  bytes memory bstr */\n  dup1\n    /* \"@openzeppelin/contracts@5.0.0/utils/ShortStrings.sol\":1822:1825  str */\n  dup3\n    /* \"@openzeppelin/contracts@5.0.0/utils/ShortStrings.sol\":1796:1826  bytes memory bstr = bytes(str) */\n  swap1\n  pop\n    /* \"@openzeppelin/contracts@5.0.0/utils/ShortStrings.sol\":1854:1856  31 */\n  0x1f\n    /* \"@openzeppelin/contracts@5.0.0/utils/ShortStrings.sol\":1840:1844  bstr */\n  dup2\n    /* \"@openzeppelin/contracts@5.0.0/utils/ShortStrings.sol\":1840:1851  bstr.length */\n  mload\n    /* \"@openzeppelin/contracts@5.0.0/utils/ShortStrings.sol\":1840:1856  bstr.length > 31 */\n  gt\n    /* \"@openzeppelin/contracts@5.0.0/utils/ShortStrings.sol\":1836:1908  if (bstr.length > 31) {... */\n  iszero\n  tag_46\n  jumpi\n    /* \"@openzeppelin/contracts@5.0.0/utils/ShortStrings.sol\":1893:1896  str */\n  dup3\n    /* \"@openzeppelin/contracts@5.0.0/utils/ShortStrings.sol\":1879:1897  StringTooLong(str) */\n  mload(0x40)\n  shl(0xe0, 0x305a27a9)\n  dup2\n  mstore\n  0x04\n  add\n  tag_41\n  swap2\n  swap1\n  tag_48\n  jump\t// in\n    /* \"@openzeppelin/contracts@5.0.0/utils/ShortStrings.sol\":1836:1908  if (bstr.length > 31) {... */\ntag_46:\n    /* \"@openzeppelin/contracts@5.0.0/utils/ShortStrings.sol\":1974:1985  bstr.length */\n  dup1\n  mload\n    /* \"@openzeppelin/contracts@5.0.0/utils/ShortStrings.sol\":1957:1970  bytes32(bstr) */\n  tag_49\n    /* \"@openzeppelin/contracts@5.0.0/utils/ShortStrings.sol\":1974:1978  bstr */\n  dup3\n    /* \"@openzeppelin/contracts@5.0.0/utils/ShortStrings.sol\":1957:1970  bytes32(bstr) */\n  tag_50\n  jump\t// in\ntag_49:\n    /* \"@openzeppelin/contracts@5.0.0/utils/ShortStrings.sol\":1949:1985  uint256(bytes32(bstr)) | bstr.length */\n  or\n  swap4\n    /* \"@openzeppelin/contracts@5.0.0/utils/ShortStrings.sol\":1708:1994  function toShortString(string memory str) internal pure returns (ShortString) {... */\n  swap3\n  pop\n  pop\n  pop\n  jump\t// out\n    /* \"@openzeppelin/contracts@5.0.0/token/ERC20/ERC20.sol\":6271:7378  function _update(address from, address to, uint256 value) internal virtual {... */\ntag_44:\n  sub(shl(0xa0, 0x01), 0x01)\n    /* \"@openzeppelin/contracts@5.0.0/token/ERC20/ERC20.sol\":6360:6378  from == address(0) */\n  dup4\n  and\n    /* \"@openzeppelin/contracts@5.0.0/token/ERC20/ERC20.sol\":6356:6896  if (from == address(0)) {... */\n  tag_53\n  jumpi\n    /* \"@openzeppelin/contracts@5.0.0/token/ERC20/ERC20.sol\":6512:6517  value */\n  dup1\n    /* \"@openzeppelin/contracts@5.0.0/token/ERC20/ERC20.sol\":6496:6508  _totalSupply */\n  0x02\n  0x00\n    /* \"@openzeppelin/contracts@5.0.0/token/ERC20/ERC20.sol\":6496:6517  _totalSupply += value */\n  dup3\n  dup3\n  sload\n  tag_54\n  swap2\n  swap1\n  tag_55\n  jump\t// in\ntag_54:\n  swap1\n  swap2\n  sstore\n  pop\n    /* \"@openzeppelin/contracts@5.0.0/token/ERC20/ERC20.sol\":6356:6896  if (from == address(0)) {... */\n  tag_56\n  swap1\n  pop\n  jump\ntag_53:\n  sub(shl(0xa0, 0x01), 0x01)\n    /* \"@openzeppelin/contracts@5.0.0/token/ERC20/ERC20.sol\":6570:6585  _balances[from] */\n  dup4\n  and\n    /* \"@openzeppelin/contracts@5.0.0/token/ERC20/ERC20.sol\":6548:6567  uint256 fromBalance */\n  0x00\n    /* \"@openzeppelin/contracts@5.0.0/token/ERC20/ERC20.sol\":6570:6585  _balances[from] */\n  swap1\n  dup2\n  mstore\n  0x20\n  dup2\n  swap1\n  mstore\n  0x40\n  swap1\n  keccak256\n  sload\n    /* \"@openzeppelin/contracts@5.0.0/token/ERC20/ERC20.sol\":6603:6622  fromBalance < value */\n  dup2\n  dup2\n  lt\n    /* \"@openzeppelin/contracts@5.0.0/token/ERC20/ERC20.sol\":6599:6714  if (fromBalance < value) {... */\n  iszero\n  tag_57\n  jumpi\n    /* \"@openzeppelin/contracts@5.0.0/token/ERC20/ERC20.sol\":6649:6699  ERC20InsufficientBalance(from, fromBalance, value) */\n  mload(0x40)\n  shl(0xe2, 0x391434e3)\n  dup2\n  mstore\n  sub(shl(0xa0, 0x01), 0x01)\n    /* \"#utility.yul\":6330:6362   */\n  dup6\n  and\n    /* \"@openzeppelin/contracts@5.0.0/token/ERC20/ERC20.sol\":6649:6699  ERC20InsufficientBalance(from, fromBalance, value) */\n  0x04\n  dup3\n  add\n    /* \"#utility.yul\":6312:6363   */\n  mstore\n    /* \"#utility.yul\":6379:6397   */\n  0x24\n  dup2\n  add\n    /* \"#utility.yul\":6372:6406   */\n  dup3\n  swap1\n  mstore\n    /* \"#utility.yul\":6422:6440   */\n  0x44\n  dup2\n  add\n    /* \"#utility.yul\":6415:6449   */\n  dup4\n  swap1\n  mstore\n    /* \"#utility.yul\":6285:6303   */\n  0x64\n  add\n    /* \"@openzeppelin/contracts@5.0.0/token/ERC20/ERC20.sol\":6649:6699  ERC20InsufficientBalance(from, fromBalance, value) */\n  tag_41\n    /* \"#utility.yul\":6110:6455   */\n  jump\n    /* \"@openzeppelin/contracts@5.0.0/token/ERC20/ERC20.sol\":6599:6714  if (fromBalance < value) {... */\ntag_57:\n  sub(shl(0xa0, 0x01), 0x01)\n    /* \"@openzeppelin/contracts@5.0.0/token/ERC20/ERC20.sol\":6834:6849  _balances[from] */\n  dup5\n  and\n    /* \"@openzeppelin/contracts@5.0.0/token/ERC20/ERC20.sol\":6834:6843  _balances */\n  0x00\n    /* \"@openzeppelin/contracts@5.0.0/token/ERC20/ERC20.sol\":6834:6849  _balances[from] */\n  swap1\n  dup2\n  mstore\n  0x20\n  dup2\n  swap1\n  mstore\n  0x40\n  swap1\n  keccak256\n    /* \"@openzeppelin/contracts@5.0.0/token/ERC20/ERC20.sol\":6852:6871  fromBalance - value */\n  swap1\n  dup3\n  swap1\n  sub\n    /* \"@openzeppelin/contracts@5.0.0/token/ERC20/ERC20.sol\":6834:6871  _balances[from] = fromBalance - value */\n  swap1\n  sstore\n    /* \"@openzeppelin/contracts@5.0.0/token/ERC20/ERC20.sol\":6356:6896  if (from == address(0)) {... */\ntag_56:\n  sub(shl(0xa0, 0x01), 0x01)\n    /* \"@openzeppelin/contracts@5.0.0/token/ERC20/ERC20.sol\":6910:6926  to == address(0) */\n  dup3\n  and\n    /* \"@openzeppelin/contracts@5.0.0/token/ERC20/ERC20.sol\":6906:7331  if (to == address(0)) {... */\n  tag_60\n  jumpi\n    /* \"@openzeppelin/contracts@5.0.0/token/ERC20/ERC20.sol\":7073:7085  _totalSupply */\n  0x02\n    /* \"@openzeppelin/contracts@5.0.0/token/ERC20/ERC20.sol\":7073:7094  _totalSupply -= value */\n  dup1\n  sload\n  dup3\n  swap1\n  sub\n  swap1\n  sstore\n    /* \"@openzeppelin/contracts@5.0.0/token/ERC20/ERC20.sol\":6906:7331  if (to == address(0)) {... */\n  jump(tag_61)\ntag_60:\n  sub(shl(0xa0, 0x01), 0x01)\n    /* \"@openzeppelin/contracts@5.0.0/token/ERC20/ERC20.sol\":7284:7297  _balances[to] */\n  dup3\n  and\n    /* \"@openzeppelin/contracts@5.0.0/token/ERC20/ERC20.sol\":7284:7293  _balances */\n  0x00\n    /* \"@openzeppelin/contracts@5.0.0/token/ERC20/ERC20.sol\":7284:7297  _balances[to] */\n  swap1\n  dup2\n  mstore\n  0x20\n  dup2\n  swap1\n  mstore\n  0x40\n  swap1\n  keccak256\n    /* \"@openzeppelin/contracts@5.0.0/token/ERC20/ERC20.sol\":7284:7306  _balances[to] += value */\n  dup1\n  sload\n  dup3\n  add\n  swap1\n  sstore\n    /* \"@openzeppelin/contracts@5.0.0/token/ERC20/ERC20.sol\":6906:7331  if (to == address(0)) {... */\ntag_61:\n    /* \"@openzeppelin/contracts@5.0.0/token/ERC20/ERC20.sol\":7361:7363  to */\n  dup2\n  sub(shl(0xa0, 0x01), 0x01)\n    /* \"@openzeppelin/contracts@5.0.0/token/ERC20/ERC20.sol\":7346:7371  Transfer(from, to, value) */\n  and\n    /* \"@openzeppelin/contracts@5.0.0/token/ERC20/ERC20.sol\":7355:7359  from */\n  dup4\n  sub(shl(0xa0, 0x01), 0x01)\n    /* \"@openzeppelin/contracts@5.0.0/token/ERC20/ERC20.sol\":7346:7371  Transfer(from, to, value) */\n  and\n  0xddf252ad1be2c89b69c2b068fc378daa952ba7f163c4a11628f55a4df523b3ef\n    /* \"@openzeppelin/contracts@5.0.0/token/ERC20/ERC20.sol\":7365:7370  value */\n  dup4\n    /* \"@openzeppelin/contracts@5.0.0/token/ERC20/ERC20.sol\":7346:7371  Transfer(from, to, value) */\n  mload(0x40)\n  tag_62\n  swap2\n    /* \"#utility.yul\":6606:6631   */\n  dup2\n  mstore\n    /* \"#utility.yul\":6594:6596   */\n  0x20\n    /* \"#utility.yul\":6579:6597   */\n  add\n  swap1\n    /* \"#utility.yul\":6460:6637   */\n  jump\n    /* \"@openzeppelin/contracts@5.0.0/token/ERC20/ERC20.sol\":7346:7371  Transfer(from, to, value) */\ntag_62:\n  mload(0x40)\n  dup1\n  swap2\n  sub\n  swap1\n  log3\n    /* \"@openzeppelin/contracts@5.0.0/token/ERC20/ERC20.sol\":6271:7378  function _update(address from, address to, uint256 value) internal virtual {... */\n  pop\n  pop\n  pop\n  jump\t// out\n    /* \"#utility.yul\":14:141   */\ntag_64:\n    /* \"#utility.yul\":75:85   */\n  0x4e487b71\n    /* \"#utility.yul\":70:73   */\n  0xe0\n    /* \"#utility.yul\":66:86   */\n  shl\n    /* \"#utility.yul\":63:64   */\n  0x00\n    /* \"#utility.yul\":56:87   */\n  mstore\n    /* \"#utility.yul\":106:110   */\n  0x41\n    /* \"#utility.yul\":103:104   */\n  0x04\n    /* \"#utility.yul\":96:111   */\n  mstore\n    /* \"#utility.yul\":130:134   */\n  0x24\n    /* \"#utility.yul\":127:128   */\n  0x00\n    /* \"#utility.yul\":120:135   */\n  revert\n    /* \"#utility.yul\":146:526   */\ntag_65:\n    /* \"#utility.yul\":225:226   */\n  0x01\n    /* \"#utility.yul\":221:233   */\n  dup2\n  dup2\n  shr\n  swap1\n    /* \"#utility.yul\":268:280   */\n  dup3\n  and\n  dup1\n    /* \"#utility.yul\":289:350   */\n  tag_75\n  jumpi\n    /* \"#utility.yul\":343:347   */\n  0x7f\n    /* \"#utility.yul\":335:341   */\n  dup3\n    /* \"#utility.yul\":331:348   */\n  and\n    /* \"#utility.yul\":321:348   */\n  swap2\n  pop\n    /* \"#utility.yul\":289:350   */\ntag_75:\n    /* \"#utility.yul\":396:398   */\n  0x20\n    /* \"#utility.yul\":388:394   */\n  dup3\n    /* \"#utility.yul\":385:399   */\n  lt\n    /* \"#utility.yul\":365:383   */\n  dup2\n    /* \"#utility.yul\":362:400   */\n  sub\n    /* \"#utility.yul\":359:520   */\n  tag_76\n  jumpi\n    /* \"#utility.yul\":442:452   */\n  0x4e487b71\n    /* \"#utility.yul\":437:440   */\n  0xe0\n    /* \"#utility.yul\":433:453   */\n  shl\n    /* \"#utility.yul\":430:431   */\n  0x00\n    /* \"#utility.yul\":423:454   */\n  mstore\n    /* \"#utility.yul\":477:481   */\n  0x22\n    /* \"#utility.yul\":474:475   */\n  0x04\n    /* \"#utility.yul\":467:482   */\n  mstore\n    /* \"#utility.yul\":505:509   */\n  0x24\n    /* \"#utility.yul\":502:503   */\n  0x00\n    /* \"#utility.yul\":495:510   */\n  revert\n    /* \"#utility.yul\":359:520   */\ntag_76:\n  pop\n    /* \"#utility.yul\":146:526   */\n  swap2\n  swap1\n  pop\n  jump\t// out\n    /* \"#utility.yul\":657:1202   */\ntag_67:\n    /* \"#utility.yul\":759:761   */\n  0x1f\n    /* \"#utility.yul\":754:757   */\n  dup3\n    /* \"#utility.yul\":751:762   */\n  gt\n    /* \"#utility.yul\":748:1196   */\n  iszero\n  tag_79\n  jumpi\n    /* \"#utility.yul\":795:796   */\n  0x00\n    /* \"#utility.yul\":820:825   */\n  dup2\n    /* \"#utility.yul\":816:818   */\n  dup2\n    /* \"#utility.yul\":809:826   */\n  mstore\n    /* \"#utility.yul\":865:869   */\n  0x20\n    /* \"#utility.yul\":861:863   */\n  dup2\n    /* \"#utility.yul\":851:870   */\n  keccak256\n    /* \"#utility.yul\":935:937   */\n  0x1f\n    /* \"#utility.yul\":923:933   */\n  dup6\n    /* \"#utility.yul\":919:938   */\n  add\n    /* \"#utility.yul\":916:917   */\n  0x05\n    /* \"#utility.yul\":912:939   */\n  shr\n    /* \"#utility.yul\":906:910   */\n  dup2\n    /* \"#utility.yul\":902:940   */\n  add\n    /* \"#utility.yul\":971:975   */\n  0x20\n    /* \"#utility.yul\":959:969   */\n  dup7\n    /* \"#utility.yul\":956:976   */\n  lt\n    /* \"#utility.yul\":953:1000   */\n  iszero\n  tag_80\n  jumpi\n  pop\n    /* \"#utility.yul\":994:998   */\n  dup1\n    /* \"#utility.yul\":953:1000   */\ntag_80:\n    /* \"#utility.yul\":1049:1051   */\n  0x1f\n    /* \"#utility.yul\":1044:1047   */\n  dup6\n    /* \"#utility.yul\":1040:1052   */\n  add\n    /* \"#utility.yul\":1037:1038   */\n  0x05\n    /* \"#utility.yul\":1033:1053   */\n  shr\n    /* \"#utility.yul\":1027:1031   */\n  dup3\n    /* \"#utility.yul\":1023:1054   */\n  add\n    /* \"#utility.yul\":1013:1054   */\n  swap2\n  pop\n    /* \"#utility.yul\":1104:1186   */\ntag_81:\n    /* \"#utility.yul\":1122:1124   */\n  dup2\n    /* \"#utility.yul\":1115:1120   */\n  dup2\n    /* \"#utility.yul\":1112:1125   */\n  lt\n    /* \"#utility.yul\":1104:1186   */\n  iszero\n  tag_83\n  jumpi\n    /* \"#utility.yul\":1167:1184   */\n  dup3\n  dup2\n  sstore\n    /* \"#utility.yul\":1148:1149   */\n  0x01\n    /* \"#utility.yul\":1137:1150   */\n  add\n    /* \"#utility.yul\":1104:1186   */\n  jump(tag_81)\ntag_83:\n    /* \"#utility.yul\":1108:1111   */\n  pop\n  pop\n  pop\n    /* \"#utility.yul\":748:1196   */\ntag_79:\n    /* \"#utility.yul\":657:1202   */\n  pop\n  pop\n  pop\n  jump\t// out\n    /* \"#utility.yul\":1378:2730   */\ntag_8:\n    /* \"#utility.yul\":1498:1508   */\n  dup2\n  mload\n  sub(shl(0x40, 0x01), 0x01)\n    /* \"#utility.yul\":1520:1550   */\n  dup2\n  gt\n    /* \"#utility.yul\":1517:1573   */\n  iszero\n  tag_87\n  jumpi\n    /* \"#utility.yul\":1553:1571   */\n  tag_87\n  tag_64\n  jump\t// in\ntag_87:\n    /* \"#utility.yul\":1582:1679   */\n  tag_88\n    /* \"#utility.yul\":1672:1678   */\n  dup2\n    /* \"#utility.yul\":1632:1670   */\n  tag_89\n    /* \"#utility.yul\":1664:1668   */\n  dup5\n    /* \"#utility.yul\":1658:1669   */\n  sload\n    /* \"#utility.yul\":1632:1670   */\n  tag_65\n  jump\t// in\ntag_89:\n    /* \"#utility.yul\":1626:1630   */\n  dup5\n    /* \"#utility.yul\":1582:1679   */\n  tag_67\n  jump\t// in\ntag_88:\n    /* \"#utility.yul\":1734:1738   */\n  0x20\n  dup1\n    /* \"#utility.yul\":1798:1800   */\n  0x1f\n    /* \"#utility.yul\":1787:1801   */\n  dup4\n  gt\n    /* \"#utility.yul\":1815:1816   */\n  0x01\n    /* \"#utility.yul\":1810:2473   */\n  dup2\n  eq\n  tag_91\n  jumpi\n    /* \"#utility.yul\":2517:2518   */\n  0x00\n    /* \"#utility.yul\":2534:2540   */\n  dup5\n    /* \"#utility.yul\":2531:2620   */\n  iszero\n  tag_92\n  jumpi\n  pop\n    /* \"#utility.yul\":2586:2605   */\n  dup6\n  dup4\n  add\n    /* \"#utility.yul\":2580:2606   */\n  mload\n    /* \"#utility.yul\":2531:2620   */\ntag_92:\n  not(0x00)\n    /* \"#utility.yul\":1335:1336   */\n  0x03\n    /* \"#utility.yul\":1331:1342   */\n  dup7\n  swap1\n  shl\n    /* \"#utility.yul\":1327:1351   */\n  shr\n    /* \"#utility.yul\":1323:1352   */\n  not\n    /* \"#utility.yul\":1313:1353   */\n  and\n    /* \"#utility.yul\":1359:1360   */\n  0x01\n    /* \"#utility.yul\":1355:1366   */\n  dup6\n  swap1\n  shl\n    /* \"#utility.yul\":1310:1367   */\n  or\n    /* \"#utility.yul\":2633:2714   */\n  dup6\n  sstore\n    /* \"#utility.yul\":1780:2724   */\n  jump(tag_83)\n    /* \"#utility.yul\":1810:2473   */\ntag_91:\n    /* \"#utility.yul\":604:605   */\n  0x00\n    /* \"#utility.yul\":597:611   */\n  dup6\n  dup2\n  mstore\n    /* \"#utility.yul\":641:645   */\n  0x20\n    /* \"#utility.yul\":628:646   */\n  dup2\n  keccak256\n  not(0x1f)\n    /* \"#utility.yul\":1846:1866   */\n  dup7\n  and\n  swap2\n    /* \"#utility.yul\":1964:2200   */\ntag_95:\n    /* \"#utility.yul\":1978:1985   */\n  dup3\n    /* \"#utility.yul\":1975:1976   */\n  dup2\n    /* \"#utility.yul\":1972:1986   */\n  lt\n    /* \"#utility.yul\":1964:2200   */\n  iszero\n  tag_97\n  jumpi\n    /* \"#utility.yul\":2067:2086   */\n  dup9\n  dup7\n  add\n    /* \"#utility.yul\":2061:2087   */\n  mload\n    /* \"#utility.yul\":2046:2088   */\n  dup3\n  sstore\n    /* \"#utility.yul\":2159:2186   */\n  swap5\n  dup5\n  add\n  swap5\n    /* \"#utility.yul\":2127:2128   */\n  0x01\n    /* \"#utility.yul\":2115:2129   */\n  swap1\n  swap2\n  add\n  swap1\n    /* \"#utility.yul\":1994:2013   */\n  dup5\n  add\n    /* \"#utility.yul\":1964:2200   */\n  jump(tag_95)\ntag_97:\n    /* \"#utility.yul\":1968:1971   */\n  pop\n    /* \"#utility.yul\":2228:2234   */\n  dup6\n    /* \"#utility.yul\":2219:2226   */\n  dup3\n    /* \"#utility.yul\":2216:2235   */\n  lt\n    /* \"#utility.yul\":2213:2414   */\n  iszero\n  tag_98\n  jumpi\n    /* \"#utility.yul\":2289:2308   */\n  dup8\n  dup6\n  add\n    /* \"#utility.yul\":2283:2309   */\n  mload\n  not(0x00)\n    /* \"#utility.yul\":2372:2373   */\n  0x03\n    /* \"#utility.yul\":2368:2382   */\n  dup9\n  swap1\n  shl\n    /* \"#utility.yul\":2384:2387   */\n  0xf8\n    /* \"#utility.yul\":2364:2388   */\n  and\n    /* \"#utility.yul\":2360:2397   */\n  shr\n    /* \"#utility.yul\":2356:2398   */\n  not\n    /* \"#utility.yul\":2341:2399   */\n  and\n    /* \"#utility.yul\":2326:2400   */\n  dup2\n  sstore\n    /* \"#utility.yul\":2213:2414   */\ntag_98:\n  pop\n  pop\n  pop\n  pop\n  pop\n    /* \"#utility.yul\":2460:2461   */\n  0x01\n    /* \"#utility.yul\":2444:2458   */\n  swap1\n  dup2\n  shl\n    /* \"#utility.yul\":2440:2462   */\n  add\n    /* \"#utility.yul\":2427:2463   */\n  swap1\n  sstore\n  pop\n    /* \"#utility.yul\":1378:2730   */\n  jump\t// out\n    /* \"#utility.yul\":2735:2862   */\ntag_69:\n    /* \"#utility.yul\":2796:2806   */\n  0x4e487b71\n    /* \"#utility.yul\":2791:2794   */\n  0xe0\n    /* \"#utility.yul\":2787:2807   */\n  shl\n    /* \"#utility.yul\":2784:2785   */\n  0x00\n    /* \"#utility.yul\":2777:2808   */\n  mstore\n    /* \"#utility.yul\":2827:2831   */\n  0x11\n    /* \"#utility.yul\":2824:2825   */\n  0x04\n    /* \"#utility.yul\":2817:2832   */\n  mstore\n    /* \"#utility.yul\":2851:2855   */\n  0x24\n    /* \"#utility.yul\":2848:2849   */\n  0x00\n    /* \"#utility.yul\":2841:2856   */\n  revert\n    /* \"#utility.yul\":2867:3289   */\ntag_70:\n    /* \"#utility.yul\":2956:2957   */\n  0x01\n    /* \"#utility.yul\":2999:3004   */\n  dup2\n    /* \"#utility.yul\":2956:2957   */\n  dup2\n    /* \"#utility.yul\":3013:3283   */\ntag_101:\n    /* \"#utility.yul\":3034:3041   */\n  dup1\n    /* \"#utility.yul\":3024:3032   */\n  dup6\n    /* \"#utility.yul\":3021:3042   */\n  gt\n    /* \"#utility.yul\":3013:3283   */\n  iszero\n  tag_103\n  jumpi\n    /* \"#utility.yul\":3093:3097   */\n  dup2\n    /* \"#utility.yul\":3089:3090   */\n  0x00\n    /* \"#utility.yul\":3085:3091   */\n  not\n    /* \"#utility.yul\":3081:3098   */\n  div\n    /* \"#utility.yul\":3075:3079   */\n  dup3\n    /* \"#utility.yul\":3072:3099   */\n  gt\n    /* \"#utility.yul\":3069:3122   */\n  iszero\n  tag_105\n  jumpi\n    /* \"#utility.yul\":3102:3120   */\n  tag_105\n  tag_69\n  jump\t// in\ntag_105:\n    /* \"#utility.yul\":3152:3159   */\n  dup1\n    /* \"#utility.yul\":3142:3150   */\n  dup6\n    /* \"#utility.yul\":3138:3160   */\n  and\n    /* \"#utility.yul\":3135:3190   */\n  iszero\n  tag_106\n  jumpi\n    /* \"#utility.yul\":3172:3188   */\n  swap2\n  dup2\n  mul\n  swap2\n    /* \"#utility.yul\":3135:3190   */\ntag_106:\n    /* \"#utility.yul\":3251:3273   */\n  swap4\n  dup5\n  shr\n  swap4\n    /* \"#utility.yul\":3211:3226   */\n  swap1\n  dup1\n  mul\n  swap1\n    /* \"#utility.yul\":3013:3283   */\n  jump(tag_101)\ntag_103:\n    /* \"#utility.yul\":3017:3020   */\n  pop\n    /* \"#utility.yul\":2867:3289   */\n  swap3\n  pop\n  swap3\n  swap1\n  pop\n  jump\t// out\n    /* \"#utility.yul\":3294:4100   */\ntag_71:\n    /* \"#utility.yul\":3343:3348   */\n  0x00\n    /* \"#utility.yul\":3373:3381   */\n  dup3\n    /* \"#utility.yul\":3363:3443   */\n  tag_108\n  jumpi\n  pop\n    /* \"#utility.yul\":3414:3415   */\n  0x01\n    /* \"#utility.yul\":3428:3433   */\n  jump(tag_31)\n    /* \"#utility.yul\":3363:3443   */\ntag_108:\n    /* \"#utility.yul\":3462:3466   */\n  dup2\n    /* \"#utility.yul\":3452:3528   */\n  tag_109\n  jumpi\n  pop\n    /* \"#utility.yul\":3499:3500   */\n  0x00\n    /* \"#utility.yul\":3513:3518   */\n  jump(tag_31)\n    /* \"#utility.yul\":3452:3528   */\ntag_109:\n    /* \"#utility.yul\":3544:3548   */\n  dup2\n    /* \"#utility.yul\":3562:3563   */\n  0x01\n    /* \"#utility.yul\":3557:3616   */\n  dup2\n  eq\n  tag_111\n  jumpi\n    /* \"#utility.yul\":3630:3631   */\n  0x02\n    /* \"#utility.yul\":3625:3755   */\n  dup2\n  eq\n  tag_112\n  jumpi\n    /* \"#utility.yul\":3537:3755   */\n  jump(tag_110)\n    /* \"#utility.yul\":3557:3616   */\ntag_111:\n    /* \"#utility.yul\":3587:3588   */\n  0x01\n    /* \"#utility.yul\":3578:3588   */\n  swap2\n  pop\n    /* \"#utility.yul\":3601:3606   */\n  pop\n  jump(tag_31)\n    /* \"#utility.yul\":3625:3755   */\ntag_112:\n    /* \"#utility.yul\":3662:3665   */\n  0xff\n    /* \"#utility.yul\":3652:3660   */\n  dup5\n    /* \"#utility.yul\":3649:3666   */\n  gt\n    /* \"#utility.yul\":3646:3689   */\n  iszero\n  tag_114\n  jumpi\n    /* \"#utility.yul\":3669:3687   */\n  tag_114\n  tag_69\n  jump\t// in\ntag_114:\n  pop\n  pop\n    /* \"#utility.yul\":3725:3726   */\n  0x01\n    /* \"#utility.yul\":3711:3727   */\n  dup3\n  shl\n    /* \"#utility.yul\":3740:3745   */\n  jump(tag_31)\n    /* \"#utility.yul\":3537:3755   */\ntag_110:\n  pop\n    /* \"#utility.yul\":3839:3841   */\n  0x20\n    /* \"#utility.yul\":3829:3837   */\n  dup4\n    /* \"#utility.yul\":3826:3842   */\n  lt\n    /* \"#utility.yul\":3820:3823   */\n  0x0133\n    /* \"#utility.yul\":3814:3818   */\n  dup4\n    /* \"#utility.yul\":3811:3824   */\n  lt\n    /* \"#utility.yul\":3807:3843   */\n  and\n    /* \"#utility.yul\":3801:3803   */\n  0x4e\n    /* \"#utility.yul\":3791:3799   */\n  dup5\n    /* \"#utility.yul\":3788:3804   */\n  lt\n    /* \"#utility.yul\":3783:3785   */\n  0x0b\n    /* \"#utility.yul\":3777:3781   */\n  dup5\n    /* \"#utility.yul\":3774:3786   */\n  lt\n    /* \"#utility.yul\":3770:3805   */\n  and\n    /* \"#utility.yul\":3767:3844   */\n  or\n    /* \"#utility.yul\":3764:3923   */\n  iszero\n  tag_115\n  jumpi\n  pop\n    /* \"#utility.yul\":3876:3895   */\n  dup2\n  dup2\n  exp\n    /* \"#utility.yul\":3908:3913   */\n  jump(tag_31)\n    /* \"#utility.yul\":3764:3923   */\ntag_115:\n    /* \"#utility.yul\":3955:3989   */\n  tag_116\n    /* \"#utility.yul\":3980:3988   */\n  dup4\n    /* \"#utility.yul\":3974:3978   */\n  dup4\n    /* \"#utility.yul\":3955:3989   */\n  tag_70\n  jump\t// in\ntag_116:\n    /* \"#utility.yul\":4025:4031   */\n  dup1\n    /* \"#utility.yul\":4021:4022   */\n  0x00\n    /* \"#utility.yul\":4017:4023   */\n  not\n    /* \"#utility.yul\":4013:4032   */\n  div\n    /* \"#utility.yul\":4004:4011   */\n  dup3\n    /* \"#utility.yul\":4001:4033   */\n  gt\n    /* \"#utility.yul\":3998:4056   */\n  iszero\n  tag_118\n  jumpi\n    /* \"#utility.yul\":4036:4054   */\n  tag_118\n  tag_69\n  jump\t// in\ntag_118:\n    /* \"#utility.yul\":4074:4094   */\n  mul\n  swap4\n    /* \"#utility.yul\":3294:4100   */\n  swap3\n  pop\n  pop\n  pop\n  jump\t// out\n    /* \"#utility.yul\":4105:4245   */\ntag_22:\n    /* \"#utility.yul\":4163:4168   */\n  0x00\n    /* \"#utility.yul\":4192:4239   */\n  tag_120\n    /* \"#utility.yul\":4233:4237   */\n  0xff\n    /* \"#utility.yul\":4223:4231   */\n  dup5\n    /* \"#utility.yul\":4219:4238   */\n  and\n    /* \"#utility.yul\":4213:4217   */\n  dup4\n    /* \"#utility.yul\":4192:4239   */\n  tag_71\n  jump\t// in\ntag_120:\n    /* \"#utility.yul\":4183:4239   */\n  swap4\n    /* \"#utility.yul\":4105:4245   */\n  swap3\n  pop\n  pop\n  pop\n  jump\t// out\n    /* \"#utility.yul\":4250:4418   */\ntag_24:\n    /* \"#utility.yul\":4323:4332   */\n  dup1\n  dup3\n  mul\n    /* \"#utility.yul\":4354:4363   */\n  dup2\n  iszero\n    /* \"#utility.yul\":4371:4386   */\n  dup3\n  dup3\n  div\n    /* \"#utility.yul\":4365:4387   */\n  dup5\n  eq\n    /* \"#utility.yul\":4351:4388   */\n  or\n    /* \"#utility.yul\":4341:4412   */\n  tag_31\n  jumpi\n    /* \"#utility.yul\":4392:4410   */\n  tag_31\n  tag_69\n  jump\t// in\n    /* \"#utility.yul\":5125:5673   */\ntag_48:\n    /* \"#utility.yul\":5237:5241   */\n  0x00\n    /* \"#utility.yul\":5266:5268   */\n  0x20\n    /* \"#utility.yul\":5295:5297   */\n  dup1\n    /* \"#utility.yul\":5284:5293   */\n  dup4\n    /* \"#utility.yul\":5277:5298   */\n  mstore\n    /* \"#utility.yul\":5327:5333   */\n  dup4\n    /* \"#utility.yul\":5321:5334   */\n  mload\n    /* \"#utility.yul\":5370:5376   */\n  dup1\n    /* \"#utility.yul\":5365:5367   */\n  dup3\n    /* \"#utility.yul\":5354:5363   */\n  dup6\n    /* \"#utility.yul\":5350:5368   */\n  add\n    /* \"#utility.yul\":5343:5377   */\n  mstore\n    /* \"#utility.yul\":5395:5396   */\n  0x00\n    /* \"#utility.yul\":5405:5545   */\ntag_127:\n    /* \"#utility.yul\":5419:5425   */\n  dup2\n    /* \"#utility.yul\":5416:5417   */\n  dup2\n    /* \"#utility.yul\":5413:5426   */\n  lt\n    /* \"#utility.yul\":5405:5545   */\n  iszero\n  tag_129\n  jumpi\n    /* \"#utility.yul\":5514:5528   */\n  dup6\n  dup2\n  add\n    /* \"#utility.yul\":5510:5533   */\n  dup4\n  add\n    /* \"#utility.yul\":5504:5534   */\n  mload\n    /* \"#utility.yul\":5480:5497   */\n  dup6\n  dup3\n  add\n    /* \"#utility.yul\":5499:5501   */\n  0x40\n    /* \"#utility.yul\":5476:5502   */\n  add\n    /* \"#utility.yul\":5469:5535   */\n  mstore\n    /* \"#utility.yul\":5434:5444   */\n  dup3\n  add\n    /* \"#utility.yul\":5405:5545   */\n  jump(tag_127)\ntag_129:\n    /* \"#utility.yul\":5409:5412   */\n  pop\n    /* \"#utility.yul\":5594:5595   */\n  0x00\n    /* \"#utility.yul\":5589:5591   */\n  0x40\n    /* \"#utility.yul\":5580:5586   */\n  dup3\n    /* \"#utility.yul\":5569:5578   */\n  dup7\n    /* \"#utility.yul\":5565:5587   */\n  add\n    /* \"#utility.yul\":5561:5592   */\n  add\n    /* \"#utility.yul\":5554:5596   */\n  mstore\n    /* \"#utility.yul\":5664:5666   */\n  0x40\n    /* \"#utility.yul\":5657:5659   */\n  0x1f\n    /* \"#utility.yul\":5653:5660   */\n  not\n    /* \"#utility.yul\":5648:5650   */\n  0x1f\n    /* \"#utility.yul\":5640:5646   */\n  dup4\n    /* \"#utility.yul\":5636:5651   */\n  add\n    /* \"#utility.yul\":5632:5661   */\n  and\n    /* \"#utility.yul\":5621:5630   */\n  dup6\n    /* \"#utility.yul\":5617:5662   */\n  add\n    /* \"#utility.yul\":5613:5667   */\n  add\n    /* \"#utility.yul\":5605:5667   */\n  swap3\n  pop\n  pop\n  pop\n    /* \"#utility.yul\":5125:5673   */\n  swap3\n  swap2\n  pop\n  pop\n  jump\t// out\n    /* \"#utility.yul\":5678:5975   */\ntag_50:\n    /* \"#utility.yul\":5796:5808   */\n  dup1\n  mload\n    /* \"#utility.yul\":5843:5847   */\n  0x20\n    /* \"#utility.yul\":5832:5848   */\n  dup1\n  dup4\n  add\n    /* \"#utility.yul\":5826:5849   */\n  mload\n  swap2\n    /* \"#utility.yul\":5796:5808   */\n  swap1\n    /* \"#utility.yul\":5861:5877   */\n  dup2\n  lt\n    /* \"#utility.yul\":5858:5969   */\n  iszero\n  tag_76\n  jumpi\n  not(0x00)\n    /* \"#utility.yul\":5935:5939   */\n  0x20\n    /* \"#utility.yul\":5931:5948   */\n  swap2\n  swap1\n  swap2\n  sub\n    /* \"#utility.yul\":5928:5929   */\n  0x03\n    /* \"#utility.yul\":5924:5949   */\n  shl\n    /* \"#utility.yul\":5920:5958   */\n  shl\n    /* \"#utility.yul\":5909:5959   */\n  and\n  swap2\n    /* \"#utility.yul\":5678:5975   */\n  swap1\n  pop\n  jump\t// out\n    /* \"#utility.yul\":5980:6105   */\ntag_55:\n    /* \"#utility.yul\":6045:6054   */\n  dup1\n  dup3\n  add\n    /* \"#utility.yul\":6066:6076   */\n  dup1\n  dup3\n  gt\n    /* \"#utility.yul\":6063:6099   */\n  iszero\n  tag_31\n  jumpi\n    /* \"#utility.yul\":6079:6097   */\n  tag_31\n  tag_69\n  jump\t// in\n    /* \"#utility.yul\":6460:6637   */\ntag_72:\n    /* \"moolahverse.sol\":281:481  contract Moolahverse is ERC20, ERC20Burnable, ERC20Permit {... */\n  mload(0x80)\n  mload(0xa0)\n  mload(0xc0)\n  mload(0xe0)\n  mload(0x0100)\n  mload(0x0120)\n  mload(0x0140)\n  codecopy(0x00, dataOffset(sub_0), dataSize(sub_0))\n  0x00\n  assignImmutable(\"0xdd6ebedecc3782991b040722d05346ae76115706b237b0f241066a60ee7c2169\")\n  0x00\n  assignImmutable(\"0xf598d05e51facafddb4666a870ba9c91ee31463df052628aed50dc3216257420\")\n  0x00\n  assignImmutable(\"0xd188a1da6d6dfc972f5d1614b9a5ea681202f643e26bdaa8898fb08d79dc84fc\")\n  0x00\n  assignImmutable(\"0x4e669ebbfc9e66ba0d4cc2f926c330636a2f58d7a9b7cd75440140ab15886cf5\")\n  0x00\n  assignImmutable(\"0xbbcd1c28ce682af6448978891f662eb3dc81396033e42cf25613829f0d41f2f6\")\n  0x00\n  assignImmutable(\"0x1cecd53757ff41334b0aac95136e45c28b8f0c7557fa90afd0025eaeb7956e02\")\n  0x00\n  assignImmutable(\"0x214fa292011259fa3e2a454aff2965073026e84fae83737d5134727cec419afa\")\n  return(0x00, dataSize(sub_0))\nstop\n\nsub_0: assembly {\n        /* \"moolahverse.sol\":281:481  contract Moolahverse is ERC20, ERC20Burnable, ERC20Permit {... */\n      mstore(0x40, 0x80)\n      callvalue\n      dup1\n      iszero\n      tag_1\n      jumpi\n      0x00\n      dup1\n      revert\n    tag_1:\n      pop\n      jumpi(tag_2, lt(calldatasize, 0x04))\n      shr(0xe0, calldataload(0x00))\n      dup1\n      0x70a08231\n      gt\n      tag_18\n      jumpi\n      dup1\n      0x95d89b41\n      gt\n      tag_19\n      jumpi\n      dup1\n      0x95d89b41\n      eq\n      tag_14\n      jumpi\n      dup1\n      0xa9059cbb\n      eq\n      tag_15\n      jumpi\n      dup1\n      0xd505accf\n      eq\n      tag_16\n      jumpi\n      dup1\n      0xdd62ed3e\n      eq\n      tag_17\n      jumpi\n      0x00\n      dup1\n      revert\n    tag_19:\n      dup1\n      0x70a08231\n      eq\n      tag_10\n      jumpi\n      dup1\n      0x79cc6790\n      eq\n      tag_11\n      jumpi\n      dup1\n      0x7ecebe00\n      eq\n      tag_12\n      jumpi\n      dup1\n      0x84b0196e\n      eq\n      tag_13\n      jumpi\n      0x00\n      dup1\n      revert\n    tag_18:\n      dup1\n      0x23b872dd\n      gt\n      tag_20\n      jumpi\n      dup1\n      0x23b872dd\n      eq\n      tag_6\n      jumpi\n      dup1\n      0x313ce567\n      eq\n      tag_7\n      jumpi\n      dup1\n      0x3644e515\n      eq\n      tag_8\n      jumpi\n      dup1\n      0x42966c68\n      eq\n      tag_9\n      jumpi\n      0x00\n      dup1\n      revert\n    tag_20:\n      dup1\n      0x06fdde03\n      eq\n      tag_3\n      jumpi\n      dup1\n      0x095ea7b3\n      eq\n      tag_4\n      jumpi\n      dup1\n      0x18160ddd\n      eq\n      tag_5\n      jumpi\n    tag_2:\n      0x00\n      dup1\n      revert\n        /* \"@openzeppelin/contracts@5.0.0/token/ERC20/ERC20.sol\":2074:2163  function name() public view virtual returns (string memory) {... */\n    tag_3:\n      tag_21\n      tag_22\n      jump\t// in\n    tag_21:\n      mload(0x40)\n      tag_23\n      swap2\n      swap1\n      tag_24\n      jump\t// in\n    tag_23:\n      mload(0x40)\n      dup1\n      swap2\n      sub\n      swap1\n      return\n        /* \"@openzeppelin/contracts@5.0.0/token/ERC20/ERC20.sol\":4293:4479  function approve(address spender, uint256 value) public virtual returns (bool) {... */\n    tag_4:\n      tag_25\n      tag_26\n      calldatasize\n      0x04\n      tag_27\n      jump\t// in\n    tag_26:\n      tag_28\n      jump\t// in\n    tag_25:\n      mload(0x40)\n        /* \"#utility.yul\":1269:1283   */\n      swap1\n      iszero\n        /* \"#utility.yul\":1262:1284   */\n      iszero\n        /* \"#utility.yul\":1244:1285   */\n      dup2\n      mstore\n        /* \"#utility.yul\":1232:1234   */\n      0x20\n        /* \"#utility.yul\":1217:1235   */\n      add\n        /* \"@openzeppelin/contracts@5.0.0/token/ERC20/ERC20.sol\":4293:4479  function approve(address spender, uint256 value) public virtual returns (bool) {... */\n      tag_23\n        /* \"#utility.yul\":1104:1291   */\n      jump\n        /* \"@openzeppelin/contracts@5.0.0/token/ERC20/ERC20.sol\":3144:3241  function totalSupply() public view virtual returns (uint256) {... */\n    tag_5:\n        /* \"@openzeppelin/contracts@5.0.0/token/ERC20/ERC20.sol\":3222:3234  _totalSupply */\n      sload(0x02)\n        /* \"@openzeppelin/contracts@5.0.0/token/ERC20/ERC20.sol\":3144:3241  function totalSupply() public view virtual returns (uint256) {... */\n    tag_31:\n      mload(0x40)\n        /* \"#utility.yul\":1442:1467   */\n      swap1\n      dup2\n      mstore\n        /* \"#utility.yul\":1430:1432   */\n      0x20\n        /* \"#utility.yul\":1415:1433   */\n      add\n        /* \"@openzeppelin/contracts@5.0.0/token/ERC20/ERC20.sol\":3144:3241  function totalSupply() public view virtual returns (uint256) {... */\n      tag_23\n        /* \"#utility.yul\":1296:1473   */\n      jump\n        /* \"@openzeppelin/contracts@5.0.0/token/ERC20/ERC20.sol\":5039:5283  function transferFrom(address from, address to, uint256 value) public virtual returns (bool) {... */\n    tag_6:\n      tag_25\n      tag_36\n      calldatasize\n      0x04\n      tag_37\n      jump\t// in\n    tag_36:\n      tag_38\n      jump\t// in\n        /* \"@openzeppelin/contracts@5.0.0/token/ERC20/ERC20.sol\":3002:3084  function decimals() public view virtual returns (uint8) {... */\n    tag_7:\n      mload(0x40)\n        /* \"@openzeppelin/contracts@5.0.0/token/ERC20/ERC20.sol\":3075:3077  18 */\n      0x12\n        /* \"#utility.yul\":1953:1989   */\n      dup2\n      mstore\n        /* \"#utility.yul\":1941:1943   */\n      0x20\n        /* \"#utility.yul\":1926:1944   */\n      add\n        /* \"@openzeppelin/contracts@5.0.0/token/ERC20/ERC20.sol\":3002:3084  function decimals() public view virtual returns (uint8) {... */\n      tag_23\n        /* \"#utility.yul\":1811:1995   */\n      jump\n        /* \"@openzeppelin/contracts@5.0.0/token/ERC20/extensions/ERC20Permit.sol\":2656:2768  function DOMAIN_SEPARATOR() external view virtual returns (bytes32) {... */\n    tag_8:\n      tag_31\n      tag_45\n      jump\t// in\n        /* \"@openzeppelin/contracts@5.0.0/token/ERC20/extensions/ERC20Burnable.sol\":618:705  function burn(uint256 value) public virtual {... */\n    tag_9:\n      tag_48\n      tag_49\n      calldatasize\n      0x04\n      tag_50\n      jump\t// in\n    tag_49:\n      tag_51\n      jump\t// in\n    tag_48:\n      stop\n        /* \"@openzeppelin/contracts@5.0.0/token/ERC20/ERC20.sol\":3299:3415  function balanceOf(address account) public view virtual returns (uint256) {... */\n    tag_10:\n      tag_31\n      tag_53\n      calldatasize\n      0x04\n      tag_54\n      jump\t// in\n    tag_53:\n      sub(shl(0xa0, 0x01), 0x01)\n        /* \"@openzeppelin/contracts@5.0.0/token/ERC20/ERC20.sol\":3390:3408  _balances[account] */\n      and\n        /* \"@openzeppelin/contracts@5.0.0/token/ERC20/ERC20.sol\":3364:3371  uint256 */\n      0x00\n        /* \"@openzeppelin/contracts@5.0.0/token/ERC20/ERC20.sol\":3390:3408  _balances[account] */\n      swap1\n      dup2\n      mstore\n      0x20\n      dup2\n      swap1\n      mstore\n      0x40\n      swap1\n      keccak256\n      sload\n      swap1\n        /* \"@openzeppelin/contracts@5.0.0/token/ERC20/ERC20.sol\":3299:3415  function balanceOf(address account) public view virtual returns (uint256) {... */\n      jump\n        /* \"@openzeppelin/contracts@5.0.0/token/ERC20/extensions/ERC20Burnable.sol\":1021:1179  function burnFrom(address account, uint256 value) public virtual {... */\n    tag_11:\n      tag_48\n      tag_58\n      calldatasize\n      0x04\n      tag_27\n      jump\t// in\n    tag_58:\n      tag_59\n      jump\t// in\n        /* \"@openzeppelin/contracts@5.0.0/token/ERC20/extensions/ERC20Permit.sol\":2406:2549  function nonces(address owner) public view virtual override(IERC20Permit, Nonces) returns (uint256) {... */\n    tag_12:\n      tag_31\n      tag_61\n      calldatasize\n      0x04\n      tag_54\n      jump\t// in\n    tag_61:\n      tag_62\n      jump\t// in\n        /* \"@openzeppelin/contracts@5.0.0/utils/cryptography/EIP712.sol\":5144:5701  function eip712Domain()... */\n    tag_13:\n      tag_64\n      tag_65\n      jump\t// in\n    tag_64:\n      mload(0x40)\n      tag_23\n      swap8\n      swap7\n      swap6\n      swap5\n      swap4\n      swap3\n      swap2\n      swap1\n      tag_67\n      jump\t// in\n        /* \"@openzeppelin/contracts@5.0.0/token/ERC20/ERC20.sol\":2276:2369  function symbol() public view virtual returns (string memory) {... */\n    tag_14:\n      tag_21\n      tag_69\n      jump\t// in\n        /* \"@openzeppelin/contracts@5.0.0/token/ERC20/ERC20.sol\":3610:3788  function transfer(address to, uint256 value) public virtual returns (bool) {... */\n    tag_15:\n      tag_25\n      tag_72\n      calldatasize\n      0x04\n      tag_27\n      jump\t// in\n    tag_72:\n      tag_73\n      jump\t// in\n        /* \"@openzeppelin/contracts@5.0.0/token/ERC20/extensions/ERC20Permit.sol\":1680:2352  function permit(... */\n    tag_16:\n      tag_48\n      tag_76\n      calldatasize\n      0x04\n      tag_77\n      jump\t// in\n    tag_76:\n      tag_78\n      jump\t// in\n        /* \"@openzeppelin/contracts@5.0.0/token/ERC20/ERC20.sol\":3846:3986  function allowance(address owner, address spender) public view virtual returns (uint256) {... */\n    tag_17:\n      tag_31\n      tag_80\n      calldatasize\n      0x04\n      tag_81\n      jump\t// in\n    tag_80:\n      sub(shl(0xa0, 0x01), 0x01)\n        /* \"@openzeppelin/contracts@5.0.0/token/ERC20/ERC20.sol\":3952:3970  _allowances[owner] */\n      swap2\n      dup3\n      and\n        /* \"@openzeppelin/contracts@5.0.0/token/ERC20/ERC20.sol\":3926:3933  uint256 */\n      0x00\n        /* \"@openzeppelin/contracts@5.0.0/token/ERC20/ERC20.sol\":3952:3970  _allowances[owner] */\n      swap1\n      dup2\n      mstore\n        /* \"@openzeppelin/contracts@5.0.0/token/ERC20/ERC20.sol\":3952:3963  _allowances */\n      0x01\n        /* \"@openzeppelin/contracts@5.0.0/token/ERC20/ERC20.sol\":3952:3970  _allowances[owner] */\n      0x20\n      swap1\n      dup2\n      mstore\n      0x40\n      dup1\n      dup4\n      keccak256\n        /* \"@openzeppelin/contracts@5.0.0/token/ERC20/ERC20.sol\":3952:3979  _allowances[owner][spender] */\n      swap4\n      swap1\n      swap5\n      and\n      dup3\n      mstore\n      swap2\n      swap1\n      swap2\n      mstore\n      keccak256\n      sload\n      swap1\n        /* \"@openzeppelin/contracts@5.0.0/token/ERC20/ERC20.sol\":3846:3986  function allowance(address owner, address spender) public view virtual returns (uint256) {... */\n      jump\n        /* \"@openzeppelin/contracts@5.0.0/token/ERC20/ERC20.sol\":2074:2163  function name() public view virtual returns (string memory) {... */\n    tag_22:\n        /* \"@openzeppelin/contracts@5.0.0/token/ERC20/ERC20.sol\":2119:2132  string memory */\n      0x60\n        /* \"@openzeppelin/contracts@5.0.0/token/ERC20/ERC20.sol\":2151:2156  _name */\n      0x03\n        /* \"@openzeppelin/contracts@5.0.0/token/ERC20/ERC20.sol\":2144:2156  return _name */\n      dup1\n      sload\n      tag_85\n      swap1\n      tag_86\n      jump\t// in\n    tag_85:\n      dup1\n      0x1f\n      add\n      0x20\n      dup1\n      swap2\n      div\n      mul\n      0x20\n      add\n      mload(0x40)\n      swap1\n      dup2\n      add\n      0x40\n      mstore\n      dup1\n      swap3\n      swap2\n      swap1\n      dup2\n      dup2\n      mstore\n      0x20\n      add\n      dup3\n      dup1\n      sload\n      tag_87\n      swap1\n      tag_86\n      jump\t// in\n    tag_87:\n      dup1\n      iszero\n      tag_88\n      jumpi\n      dup1\n      0x1f\n      lt\n      tag_89\n      jumpi\n      0x0100\n      dup1\n      dup4\n      sload\n      div\n      mul\n      dup4\n      mstore\n      swap2\n      0x20\n      add\n      swap2\n      jump(tag_88)\n    tag_89:\n      dup3\n      add\n      swap2\n      swap1\n      0x00\n      mstore\n      keccak256(0x00, 0x20)\n      swap1\n    tag_90:\n      dup2\n      sload\n      dup2\n      mstore\n      swap1\n      0x01\n      add\n      swap1\n      0x20\n      add\n      dup1\n      dup4\n      gt\n      tag_90\n      jumpi\n      dup3\n      swap1\n      sub\n      0x1f\n      and\n      dup3\n      add\n      swap2\n    tag_88:\n      pop\n      pop\n      pop\n      pop\n      pop\n      swap1\n      pop\n        /* \"@openzeppelin/contracts@5.0.0/token/ERC20/ERC20.sol\":2074:2163  function name() public view virtual returns (string memory) {... */\n      swap1\n      jump\t// out\n        /* \"@openzeppelin/contracts@5.0.0/token/ERC20/ERC20.sol\":4293:4479  function approve(address spender, uint256 value) public virtual returns (bool) {... */\n    tag_28:\n        /* \"@openzeppelin/contracts@5.0.0/token/ERC20/ERC20.sol\":4366:4370  bool */\n      0x00\n        /* \"@openzeppelin/contracts@5.0.0/utils/Context.sol\":735:745  msg.sender */\n      caller\n        /* \"@openzeppelin/contracts@5.0.0/token/ERC20/ERC20.sol\":4420:4451  _approve(owner, spender, value) */\n      tag_94\n        /* \"@openzeppelin/contracts@5.0.0/utils/Context.sol\":735:745  msg.sender */\n      dup2\n        /* \"@openzeppelin/contracts@5.0.0/token/ERC20/ERC20.sol\":4436:4443  spender */\n      dup6\n        /* \"@openzeppelin/contracts@5.0.0/token/ERC20/ERC20.sol\":4445:4450  value */\n      dup6\n        /* \"@openzeppelin/contracts@5.0.0/token/ERC20/ERC20.sol\":4420:4428  _approve */\n      tag_95\n        /* \"@openzeppelin/contracts@5.0.0/token/ERC20/ERC20.sol\":4420:4451  _approve(owner, spender, value) */\n      jump\t// in\n    tag_94:\n        /* \"@openzeppelin/contracts@5.0.0/token/ERC20/ERC20.sol\":4468:4472  true */\n      0x01\n        /* \"@openzeppelin/contracts@5.0.0/token/ERC20/ERC20.sol\":4461:4472  return true */\n      swap2\n      pop\n      pop\n        /* \"@openzeppelin/contracts@5.0.0/token/ERC20/ERC20.sol\":4293:4479  function approve(address spender, uint256 value) public virtual returns (bool) {... */\n    tag_91:\n      swap3\n      swap2\n      pop\n      pop\n      jump\t// out\n        /* \"@openzeppelin/contracts@5.0.0/token/ERC20/ERC20.sol\":5039:5283  function transferFrom(address from, address to, uint256 value) public virtual returns (bool) {... */\n    tag_38:\n        /* \"@openzeppelin/contracts@5.0.0/token/ERC20/ERC20.sol\":5126:5130  bool */\n      0x00\n        /* \"@openzeppelin/contracts@5.0.0/utils/Context.sol\":735:745  msg.sender */\n      caller\n        /* \"@openzeppelin/contracts@5.0.0/token/ERC20/ERC20.sol\":5182:5219  _spendAllowance(from, spender, value) */\n      tag_99\n        /* \"@openzeppelin/contracts@5.0.0/token/ERC20/ERC20.sol\":5198:5202  from */\n      dup6\n        /* \"@openzeppelin/contracts@5.0.0/utils/Context.sol\":735:745  msg.sender */\n      dup3\n        /* \"@openzeppelin/contracts@5.0.0/token/ERC20/ERC20.sol\":5213:5218  value */\n      dup6\n        /* \"@openzeppelin/contracts@5.0.0/token/ERC20/ERC20.sol\":5182:5197  _spendAllowance */\n      tag_100\n        /* \"@openzeppelin/contracts@5.0.0/token/ERC20/ERC20.sol\":5182:5219  _spendAllowance(from, spender, value) */\n      jump\t// in\n    tag_99:\n        /* \"@openzeppelin/contracts@5.0.0/token/ERC20/ERC20.sol\":5229:5255  _transfer(from, to, value) */\n      tag_101\n        /* \"@openzeppelin/contracts@5.0.0/token/ERC20/ERC20.sol\":5239:5243  from */\n      dup6\n        /* \"@openzeppelin/contracts@5.0.0/token/ERC20/ERC20.sol\":5245:5247  to */\n      dup6\n        /* \"@openzeppelin/contracts@5.0.0/token/ERC20/ERC20.sol\":5249:5254  value */\n      dup6\n        /* \"@openzeppelin/contracts@5.0.0/token/ERC20/ERC20.sol\":5229:5238  _transfer */\n      tag_102\n        /* \"@openzeppelin/contracts@5.0.0/token/ERC20/ERC20.sol\":5229:5255  _transfer(from, to, value) */\n      jump\t// in\n    tag_101:\n      pop\n        /* \"@openzeppelin/contracts@5.0.0/token/ERC20/ERC20.sol\":5272:5276  true */\n      0x01\n      swap5\n        /* \"@openzeppelin/contracts@5.0.0/token/ERC20/ERC20.sol\":5039:5283  function transferFrom(address from, address to, uint256 value) public virtual returns (bool) {... */\n      swap4\n      pop\n      pop\n      pop\n      pop\n      jump\t// out\n        /* \"@openzeppelin/contracts@5.0.0/token/ERC20/extensions/ERC20Permit.sol\":2656:2768  function DOMAIN_SEPARATOR() external view virtual returns (bytes32) {... */\n    tag_45:\n        /* \"@openzeppelin/contracts@5.0.0/token/ERC20/extensions/ERC20Permit.sol\":2715:2722  bytes32 */\n      0x00\n        /* \"@openzeppelin/contracts@5.0.0/token/ERC20/extensions/ERC20Permit.sol\":2741:2761  _domainSeparatorV4() */\n      tag_105\n        /* \"@openzeppelin/contracts@5.0.0/token/ERC20/extensions/ERC20Permit.sol\":2741:2759  _domainSeparatorV4 */\n      tag_106\n        /* \"@openzeppelin/contracts@5.0.0/token/ERC20/extensions/ERC20Permit.sol\":2741:2761  _domainSeparatorV4() */\n      jump\t// in\n    tag_105:\n        /* \"@openzeppelin/contracts@5.0.0/token/ERC20/extensions/ERC20Permit.sol\":2734:2761  return _domainSeparatorV4() */\n      swap1\n      pop\n        /* \"@openzeppelin/contracts@5.0.0/token/ERC20/extensions/ERC20Permit.sol\":2656:2768  function DOMAIN_SEPARATOR() external view virtual returns (bytes32) {... */\n      swap1\n      jump\t// out\n        /* \"@openzeppelin/contracts@5.0.0/token/ERC20/extensions/ERC20Burnable.sol\":618:705  function burn(uint256 value) public virtual {... */\n    tag_51:\n        /* \"@openzeppelin/contracts@5.0.0/token/ERC20/extensions/ERC20Burnable.sol\":672:698  _burn(_msgSender(), value) */\n      tag_108\n        /* \"@openzeppelin/contracts@5.0.0/utils/Context.sol\":735:745  msg.sender */\n      caller\n        /* \"@openzeppelin/contracts@5.0.0/token/ERC20/extensions/ERC20Burnable.sol\":692:697  value */\n      dup3\n        /* \"@openzeppelin/contracts@5.0.0/token/ERC20/extensions/ERC20Burnable.sol\":672:677  _burn */\n      tag_110\n        /* \"@openzeppelin/contracts@5.0.0/token/ERC20/extensions/ERC20Burnable.sol\":672:698  _burn(_msgSender(), value) */\n      jump\t// in\n    tag_108:\n        /* \"@openzeppelin/contracts@5.0.0/token/ERC20/extensions/ERC20Burnable.sol\":618:705  function burn(uint256 value) public virtual {... */\n      pop\n      jump\t// out\n        /* \"@openzeppelin/contracts@5.0.0/token/ERC20/extensions/ERC20Burnable.sol\":1021:1179  function burnFrom(address account, uint256 value) public virtual {... */\n    tag_59:\n        /* \"@openzeppelin/contracts@5.0.0/token/ERC20/extensions/ERC20Burnable.sol\":1096:1141  _spendAllowance(account, _msgSender(), value) */\n      tag_113\n        /* \"@openzeppelin/contracts@5.0.0/token/ERC20/extensions/ERC20Burnable.sol\":1112:1119  account */\n      dup3\n        /* \"@openzeppelin/contracts@5.0.0/utils/Context.sol\":735:745  msg.sender */\n      caller\n        /* \"@openzeppelin/contracts@5.0.0/token/ERC20/extensions/ERC20Burnable.sol\":1135:1140  value */\n      dup4\n        /* \"@openzeppelin/contracts@5.0.0/token/ERC20/extensions/ERC20Burnable.sol\":1096:1111  _spendAllowance */\n      tag_100\n        /* \"@openzeppelin/contracts@5.0.0/token/ERC20/extensions/ERC20Burnable.sol\":1096:1141  _spendAllowance(account, _msgSender(), value) */\n      jump\t// in\n    tag_113:\n        /* \"@openzeppelin/contracts@5.0.0/token/ERC20/extensions/ERC20Burnable.sol\":1151:1172  _burn(account, value) */\n      tag_115\n        /* \"@openzeppelin/contracts@5.0.0/token/ERC20/extensions/ERC20Burnable.sol\":1157:1164  account */\n      dup3\n        /* \"@openzeppelin/contracts@5.0.0/token/ERC20/extensions/ERC20Burnable.sol\":1166:1171  value */\n      dup3\n        /* \"@openzeppelin/contracts@5.0.0/token/ERC20/extensions/ERC20Burnable.sol\":1151:1156  _burn */\n      tag_110\n        /* \"@openzeppelin/contracts@5.0.0/token/ERC20/extensions/ERC20Burnable.sol\":1151:1172  _burn(account, value) */\n      jump\t// in\n    tag_115:\n        /* \"@openzeppelin/contracts@5.0.0/token/ERC20/extensions/ERC20Burnable.sol\":1021:1179  function burnFrom(address account, uint256 value) public virtual {... */\n      pop\n      pop\n      jump\t// out\n        /* \"@openzeppelin/contracts@5.0.0/token/ERC20/extensions/ERC20Permit.sol\":2406:2549  function nonces(address owner) public view virtual override(IERC20Permit, Nonces) returns (uint256) {... */\n    tag_62:\n      sub(shl(0xa0, 0x01), 0x01)\n        /* \"@openzeppelin/contracts@5.0.0/utils/Nonces.sol\":624:638  _nonces[owner] */\n      dup2\n      and\n        /* \"@openzeppelin/contracts@5.0.0/token/ERC20/extensions/ERC20Permit.sol\":2497:2504  uint256 */\n      0x00\n        /* \"@openzeppelin/contracts@5.0.0/utils/Nonces.sol\":624:638  _nonces[owner] */\n      swap1\n      dup2\n      mstore\n        /* \"@openzeppelin/contracts@5.0.0/utils/Nonces.sol\":624:631  _nonces */\n      0x07\n        /* \"@openzeppelin/contracts@5.0.0/utils/Nonces.sol\":624:638  _nonces[owner] */\n      0x20\n      mstore\n      0x40\n      dup2\n      keccak256\n      sload\n        /* \"@openzeppelin/contracts@5.0.0/token/ERC20/extensions/ERC20Permit.sol\":2523:2542  super.nonces(owner) */\n      tag_91\n        /* \"@openzeppelin/contracts@5.0.0/utils/Nonces.sol\":538:645  function nonces(address owner) public view virtual returns (uint256) {... */\n      jump\n        /* \"@openzeppelin/contracts@5.0.0/utils/cryptography/EIP712.sol\":5144:5701  function eip712Domain()... */\n    tag_65:\n        /* \"@openzeppelin/contracts@5.0.0/utils/cryptography/EIP712.sol\":5242:5255  bytes1 fields */\n      0x00\n        /* \"@openzeppelin/contracts@5.0.0/utils/cryptography/EIP712.sol\":5269:5287  string memory name */\n      0x60\n        /* \"@openzeppelin/contracts@5.0.0/utils/cryptography/EIP712.sol\":5301:5322  string memory version */\n      dup1\n        /* \"@openzeppelin/contracts@5.0.0/utils/cryptography/EIP712.sol\":5336:5351  uint256 chainId */\n      0x00\n        /* \"@openzeppelin/contracts@5.0.0/utils/cryptography/EIP712.sol\":5365:5390  address verifyingContract */\n      dup1\n        /* \"@openzeppelin/contracts@5.0.0/utils/cryptography/EIP712.sol\":5404:5416  bytes32 salt */\n      0x00\n        /* \"@openzeppelin/contracts@5.0.0/utils/cryptography/EIP712.sol\":5430:5457  uint256[] memory extensions */\n      0x60\n        /* \"@openzeppelin/contracts@5.0.0/utils/cryptography/EIP712.sol\":5533:5546  _EIP712Name() */\n      tag_120\n        /* \"@openzeppelin/contracts@5.0.0/utils/cryptography/EIP712.sol\":5533:5544  _EIP712Name */\n      tag_121\n        /* \"@openzeppelin/contracts@5.0.0/utils/cryptography/EIP712.sol\":5533:5546  _EIP712Name() */\n      jump\t// in\n    tag_120:\n        /* \"@openzeppelin/contracts@5.0.0/utils/cryptography/EIP712.sol\":5560:5576  _EIP712Version() */\n      tag_122\n        /* \"@openzeppelin/contracts@5.0.0/utils/cryptography/EIP712.sol\":5560:5574  _EIP712Version */\n      tag_123\n        /* \"@openzeppelin/contracts@5.0.0/utils/cryptography/EIP712.sol\":5560:5576  _EIP712Version() */\n      jump\t// in\n    tag_122:\n        /* \"@openzeppelin/contracts@5.0.0/utils/cryptography/EIP712.sol\":5668:5684  new uint256[](0) */\n      0x40\n      dup1\n      mload\n        /* \"@openzeppelin/contracts@5.0.0/utils/cryptography/EIP712.sol\":5652:5653  0 */\n      0x00\n        /* \"@openzeppelin/contracts@5.0.0/utils/cryptography/EIP712.sol\":5668:5684  new uint256[](0) */\n      dup1\n      dup3\n      mstore\n      0x20\n      dup3\n      add\n      swap1\n      swap3\n      mstore\n      shl(0xf8, 0x0f)\n        /* \"@openzeppelin/contracts@5.0.0/utils/cryptography/EIP712.sol\":5482:5694  return (... */\n      swap12\n      swap4\n      swap11\n      pop\n      swap2\n      swap9\n      pop\n        /* \"@openzeppelin/contracts@5.0.0/utils/cryptography/EIP712.sol\":5590:5603  block.chainid */\n      chainid\n      swap8\n      pop\n        /* \"@openzeppelin/contracts@5.0.0/utils/cryptography/EIP712.sol\":5625:5629  this */\n      address\n      swap7\n      pop\n        /* \"@openzeppelin/contracts@5.0.0/utils/cryptography/EIP712.sol\":5652:5653  0 */\n      swap5\n      pop\n        /* \"@openzeppelin/contracts@5.0.0/utils/cryptography/EIP712.sol\":5668:5684  new uint256[](0) */\n      swap3\n      pop\n        /* \"@openzeppelin/contracts@5.0.0/utils/cryptography/EIP712.sol\":5482:5694  return (... */\n      swap1\n      pop\n        /* \"@openzeppelin/contracts@5.0.0/utils/cryptography/EIP712.sol\":5144:5701  function eip712Domain()... */\n      jump\t// out\n        /* \"@openzeppelin/contracts@5.0.0/token/ERC20/ERC20.sol\":2276:2369  function symbol() public view virtual returns (string memory) {... */\n    tag_69:\n        /* \"@openzeppelin/contracts@5.0.0/token/ERC20/ERC20.sol\":2323:2336  string memory */\n      0x60\n        /* \"@openzeppelin/contracts@5.0.0/token/ERC20/ERC20.sol\":2355:2362  _symbol */\n      0x04\n        /* \"@openzeppelin/contracts@5.0.0/token/ERC20/ERC20.sol\":2348:2362  return _symbol */\n      dup1\n      sload\n      tag_85\n      swap1\n      tag_86\n      jump\t// in\n        /* \"@openzeppelin/contracts@5.0.0/token/ERC20/ERC20.sol\":3610:3788  function transfer(address to, uint256 value) public virtual returns (bool) {... */\n    tag_73:\n        /* \"@openzeppelin/contracts@5.0.0/token/ERC20/ERC20.sol\":3679:3683  bool */\n      0x00\n        /* \"@openzeppelin/contracts@5.0.0/utils/Context.sol\":735:745  msg.sender */\n      caller\n        /* \"@openzeppelin/contracts@5.0.0/token/ERC20/ERC20.sol\":3733:3760  _transfer(owner, to, value) */\n      tag_94\n        /* \"@openzeppelin/contracts@5.0.0/utils/Context.sol\":735:745  msg.sender */\n      dup2\n        /* \"@openzeppelin/contracts@5.0.0/token/ERC20/ERC20.sol\":3750:3752  to */\n      dup6\n        /* \"@openzeppelin/contracts@5.0.0/token/ERC20/ERC20.sol\":3754:3759  value */\n      dup6\n        /* \"@openzeppelin/contracts@5.0.0/token/ERC20/ERC20.sol\":3733:3742  _transfer */\n      tag_102\n        /* \"@openzeppelin/contracts@5.0.0/token/ERC20/ERC20.sol\":3733:3760  _transfer(owner, to, value) */\n      jump\t// in\n        /* \"@openzeppelin/contracts@5.0.0/token/ERC20/extensions/ERC20Permit.sol\":1680:2352  function permit(... */\n    tag_78:\n        /* \"@openzeppelin/contracts@5.0.0/token/ERC20/extensions/ERC20Permit.sol\":1901:1909  deadline */\n      dup4\n        /* \"@openzeppelin/contracts@5.0.0/token/ERC20/extensions/ERC20Permit.sol\":1883:1898  block.timestamp */\n      timestamp\n        /* \"@openzeppelin/contracts@5.0.0/token/ERC20/extensions/ERC20Permit.sol\":1883:1909  block.timestamp > deadline */\n      gt\n        /* \"@openzeppelin/contracts@5.0.0/token/ERC20/extensions/ERC20Permit.sol\":1879:1976  if (block.timestamp > deadline) {... */\n      iszero\n      tag_138\n      jumpi\n        /* \"@openzeppelin/contracts@5.0.0/token/ERC20/extensions/ERC20Permit.sol\":1932:1965  ERC2612ExpiredSignature(deadline) */\n      mload(0x40)\n      shl(0xe1, 0x313c8981)\n      dup2\n      mstore\n      0x04\n      dup2\n      add\n        /* \"#utility.yul\":1442:1467   */\n      dup6\n      swap1\n      mstore\n        /* \"#utility.yul\":1415:1433   */\n      0x24\n      add\n        /* \"@openzeppelin/contracts@5.0.0/token/ERC20/extensions/ERC20Permit.sol\":1932:1965  ERC2612ExpiredSignature(deadline) */\n    tag_139:\n      mload(0x40)\n      dup1\n      swap2\n      sub\n      swap1\n      revert\n        /* \"@openzeppelin/contracts@5.0.0/token/ERC20/extensions/ERC20Permit.sol\":1879:1976  if (block.timestamp > deadline) {... */\n    tag_138:\n        /* \"@openzeppelin/contracts@5.0.0/token/ERC20/extensions/ERC20Permit.sol\":1986:2004  bytes32 structHash */\n      0x00\n        /* \"@openzeppelin/contracts@5.0.0/token/ERC20/extensions/ERC20Permit.sol\":1022:1117  keccak256(\"Permit(address owner,address spender,uint256 value,uint256 nonce,uint256 deadline)\") */\n      0x6e71edae12b1b97f4d1f60370fef10105fa2faae0126114a169c64845d6126c9\n        /* \"@openzeppelin/contracts@5.0.0/token/ERC20/extensions/ERC20Permit.sol\":2045:2050  owner */\n      dup9\n        /* \"@openzeppelin/contracts@5.0.0/token/ERC20/extensions/ERC20Permit.sol\":2052:2059  spender */\n      dup9\n        /* \"@openzeppelin/contracts@5.0.0/token/ERC20/extensions/ERC20Permit.sol\":2061:2066  value */\n      dup9\n        /* \"@openzeppelin/contracts@5.0.0/token/ERC20/extensions/ERC20Permit.sol\":2068:2084  _useNonce(owner) */\n      tag_140\n        /* \"@openzeppelin/contracts@5.0.0/token/ERC20/extensions/ERC20Permit.sol\":2078:2083  owner */\n      dup13\n      sub(shl(0xa0, 0x01), 0x01)\n        /* \"@openzeppelin/contracts@5.0.0/utils/Nonces.sol\":1121:1135  _nonces[owner] */\n      and\n        /* \"@openzeppelin/contracts@5.0.0/utils/Nonces.sol\":819:826  uint256 */\n      0x00\n        /* \"@openzeppelin/contracts@5.0.0/utils/Nonces.sol\":1121:1135  _nonces[owner] */\n      swap1\n      dup2\n      mstore\n        /* \"@openzeppelin/contracts@5.0.0/utils/Nonces.sol\":1121:1128  _nonces */\n      0x07\n        /* \"@openzeppelin/contracts@5.0.0/utils/Nonces.sol\":1121:1135  _nonces[owner] */\n      0x20\n      mstore\n      0x40\n      swap1\n      keccak256\n        /* \"@openzeppelin/contracts@5.0.0/utils/Nonces.sol\":1121:1137  _nonces[owner]++ */\n      dup1\n      sload\n      0x01\n      dup2\n      add\n      swap1\n      swap2\n      sstore\n      swap1\n        /* \"@openzeppelin/contracts@5.0.0/utils/Nonces.sol\":759:1154  function _useNonce(address owner) internal virtual returns (uint256) {... */\n      jump\n        /* \"@openzeppelin/contracts@5.0.0/token/ERC20/extensions/ERC20Permit.sol\":2068:2084  _useNonce(owner) */\n    tag_140:\n        /* \"@openzeppelin/contracts@5.0.0/token/ERC20/extensions/ERC20Permit.sol\":2017:2095  abi.encode(PERMIT_TYPEHASH, owner, spender, value, _useNonce(owner), deadline) */\n      0x40\n      dup1\n      mload\n      0x20\n      dup2\n      add\n        /* \"#utility.yul\":5589:5614   */\n      swap7\n      swap1\n      swap7\n      mstore\n      sub(shl(0xa0, 0x01), 0x01)\n        /* \"#utility.yul\":5688:5703   */\n      swap5\n      dup6\n      and\n        /* \"#utility.yul\":5668:5686   */\n      swap1\n      dup7\n      add\n        /* \"#utility.yul\":5661:5704   */\n      mstore\n        /* \"#utility.yul\":5740:5755   */\n      swap3\n      swap1\n      swap2\n      and\n        /* \"#utility.yul\":5720:5738   */\n      0x60\n      dup5\n      add\n        /* \"#utility.yul\":5713:5756   */\n      mstore\n        /* \"#utility.yul\":5772:5790   */\n      0x80\n      dup4\n      add\n        /* \"#utility.yul\":5765:5799   */\n      mstore\n        /* \"#utility.yul\":5815:5834   */\n      0xa0\n      dup3\n      add\n        /* \"#utility.yul\":5808:5843   */\n      mstore\n        /* \"#utility.yul\":5859:5878   */\n      0xc0\n      dup2\n      add\n        /* \"#utility.yul\":5852:5887   */\n      dup7\n      swap1\n      mstore\n        /* \"#utility.yul\":5561:5580   */\n      0xe0\n      add\n        /* \"@openzeppelin/contracts@5.0.0/token/ERC20/extensions/ERC20Permit.sol\":2017:2095  abi.encode(PERMIT_TYPEHASH, owner, spender, value, _useNonce(owner), deadline) */\n      mload(0x40)\n      0x20\n      dup2\n      dup4\n      sub\n      sub\n      dup2\n      mstore\n      swap1\n      0x40\n      mstore\n        /* \"@openzeppelin/contracts@5.0.0/token/ERC20/extensions/ERC20Permit.sol\":2007:2096  keccak256(abi.encode(PERMIT_TYPEHASH, owner, spender, value, _useNonce(owner), deadline)) */\n      dup1\n      mload\n      swap1\n      0x20\n      add\n      keccak256\n        /* \"@openzeppelin/contracts@5.0.0/token/ERC20/extensions/ERC20Permit.sol\":1986:2096  bytes32 structHash = keccak256(abi.encode(PERMIT_TYPEHASH, owner, spender, value, _useNonce(owner), deadline)) */\n      swap1\n      pop\n        /* \"@openzeppelin/contracts@5.0.0/token/ERC20/extensions/ERC20Permit.sol\":2107:2119  bytes32 hash */\n      0x00\n        /* \"@openzeppelin/contracts@5.0.0/token/ERC20/extensions/ERC20Permit.sol\":2122:2150  _hashTypedDataV4(structHash) */\n      tag_144\n        /* \"@openzeppelin/contracts@5.0.0/token/ERC20/extensions/ERC20Permit.sol\":2139:2149  structHash */\n      dup3\n        /* \"@openzeppelin/contracts@5.0.0/token/ERC20/extensions/ERC20Permit.sol\":2122:2138  _hashTypedDataV4 */\n      tag_145\n        /* \"@openzeppelin/contracts@5.0.0/token/ERC20/extensions/ERC20Permit.sol\":2122:2150  _hashTypedDataV4(structHash) */\n      jump\t// in\n    tag_144:\n        /* \"@openzeppelin/contracts@5.0.0/token/ERC20/extensions/ERC20Permit.sol\":2107:2150  bytes32 hash = _hashTypedDataV4(structHash) */\n      swap1\n      pop\n        /* \"@openzeppelin/contracts@5.0.0/token/ERC20/extensions/ERC20Permit.sol\":2161:2175  address signer */\n      0x00\n        /* \"@openzeppelin/contracts@5.0.0/token/ERC20/extensions/ERC20Permit.sol\":2178:2206  ECDSA.recover(hash, v, r, s) */\n      tag_146\n        /* \"@openzeppelin/contracts@5.0.0/token/ERC20/extensions/ERC20Permit.sol\":2192:2196  hash */\n      dup3\n        /* \"@openzeppelin/contracts@5.0.0/token/ERC20/extensions/ERC20Permit.sol\":2198:2199  v */\n      dup8\n        /* \"@openzeppelin/contracts@5.0.0/token/ERC20/extensions/ERC20Permit.sol\":2201:2202  r */\n      dup8\n        /* \"@openzeppelin/contracts@5.0.0/token/ERC20/extensions/ERC20Permit.sol\":2204:2205  s */\n      dup8\n        /* \"@openzeppelin/contracts@5.0.0/token/ERC20/extensions/ERC20Permit.sol\":2178:2191  ECDSA.recover */\n      tag_147\n        /* \"@openzeppelin/contracts@5.0.0/token/ERC20/extensions/ERC20Permit.sol\":2178:2206  ECDSA.recover(hash, v, r, s) */\n      jump\t// in\n    tag_146:\n        /* \"@openzeppelin/contracts@5.0.0/token/ERC20/extensions/ERC20Permit.sol\":2161:2206  address signer = ECDSA.recover(hash, v, r, s) */\n      swap1\n      pop\n        /* \"@openzeppelin/contracts@5.0.0/token/ERC20/extensions/ERC20Permit.sol\":2230:2235  owner */\n      dup10\n      sub(shl(0xa0, 0x01), 0x01)\n        /* \"@openzeppelin/contracts@5.0.0/token/ERC20/extensions/ERC20Permit.sol\":2220:2235  signer != owner */\n      and\n        /* \"@openzeppelin/contracts@5.0.0/token/ERC20/extensions/ERC20Permit.sol\":2220:2226  signer */\n      dup2\n      sub(shl(0xa0, 0x01), 0x01)\n        /* \"@openzeppelin/contracts@5.0.0/token/ERC20/extensions/ERC20Permit.sol\":2220:2235  signer != owner */\n      and\n      eq\n        /* \"@openzeppelin/contracts@5.0.0/token/ERC20/extensions/ERC20Permit.sol\":2216:2304  if (signer != owner) {... */\n      tag_148\n      jumpi\n        /* \"@openzeppelin/contracts@5.0.0/token/ERC20/extensions/ERC20Permit.sol\":2258:2293  ERC2612InvalidSigner(signer, owner) */\n      mload(0x40)\n      shl(0xe1, 0x25c00723)\n      dup2\n      mstore\n      sub(shl(0xa0, 0x01), 0x01)\n        /* \"#utility.yul\":6128:6143   */\n      dup1\n      dup4\n      and\n        /* \"@openzeppelin/contracts@5.0.0/token/ERC20/extensions/ERC20Permit.sol\":2258:2293  ERC2612InvalidSigner(signer, owner) */\n      0x04\n      dup4\n      add\n        /* \"#utility.yul\":6110:6144   */\n      mstore\n        /* \"#utility.yul\":6180:6195   */\n      dup12\n      and\n        /* \"#utility.yul\":6160:6178   */\n      0x24\n      dup3\n      add\n        /* \"#utility.yul\":6153:6196   */\n      mstore\n        /* \"#utility.yul\":6045:6063   */\n      0x44\n      add\n        /* \"@openzeppelin/contracts@5.0.0/token/ERC20/extensions/ERC20Permit.sol\":2258:2293  ERC2612InvalidSigner(signer, owner) */\n      tag_139\n        /* \"#utility.yul\":5898:6202   */\n      jump\n        /* \"@openzeppelin/contracts@5.0.0/token/ERC20/extensions/ERC20Permit.sol\":2216:2304  if (signer != owner) {... */\n    tag_148:\n        /* \"@openzeppelin/contracts@5.0.0/token/ERC20/extensions/ERC20Permit.sol\":2314:2345  _approve(owner, spender, value) */\n      tag_151\n        /* \"@openzeppelin/contracts@5.0.0/token/ERC20/extensions/ERC20Permit.sol\":2323:2328  owner */\n      dup11\n        /* \"@openzeppelin/contracts@5.0.0/token/ERC20/extensions/ERC20Permit.sol\":2330:2337  spender */\n      dup11\n        /* \"@openzeppelin/contracts@5.0.0/token/ERC20/extensions/ERC20Permit.sol\":2339:2344  value */\n      dup11\n        /* \"@openzeppelin/contracts@5.0.0/token/ERC20/extensions/ERC20Permit.sol\":2314:2322  _approve */\n      tag_95\n        /* \"@openzeppelin/contracts@5.0.0/token/ERC20/extensions/ERC20Permit.sol\":2314:2345  _approve(owner, spender, value) */\n      jump\t// in\n    tag_151:\n        /* \"@openzeppelin/contracts@5.0.0/token/ERC20/extensions/ERC20Permit.sol\":1869:2352  {... */\n      pop\n      pop\n      pop\n        /* \"@openzeppelin/contracts@5.0.0/token/ERC20/extensions/ERC20Permit.sol\":1680:2352  function permit(... */\n      pop\n      pop\n      pop\n      pop\n      pop\n      pop\n      pop\n      jump\t// out\n        /* \"@openzeppelin/contracts@5.0.0/token/ERC20/ERC20.sol\":8989:9117  function _approve(address owner, address spender, uint256 value) internal {... */\n    tag_95:\n        /* \"@openzeppelin/contracts@5.0.0/token/ERC20/ERC20.sol\":9073:9110  _approve(owner, spender, value, true) */\n      tag_155\n        /* \"@openzeppelin/contracts@5.0.0/token/ERC20/ERC20.sol\":9082:9087  owner */\n      dup4\n        /* \"@openzeppelin/contracts@5.0.0/token/ERC20/ERC20.sol\":9089:9096  spender */\n      dup4\n        /* \"@openzeppelin/contracts@5.0.0/token/ERC20/ERC20.sol\":9098:9103  value */\n      dup4\n        /* \"@openzeppelin/contracts@5.0.0/token/ERC20/ERC20.sol\":9105:9109  true */\n      0x01\n        /* \"@openzeppelin/contracts@5.0.0/token/ERC20/ERC20.sol\":9073:9081  _approve */\n      tag_156\n        /* \"@openzeppelin/contracts@5.0.0/token/ERC20/ERC20.sol\":9073:9110  _approve(owner, spender, value, true) */\n      jump\t// in\n    tag_155:\n        /* \"@openzeppelin/contracts@5.0.0/token/ERC20/ERC20.sol\":8989:9117  function _approve(address owner, address spender, uint256 value) internal {... */\n      pop\n      pop\n      pop\n      jump\t// out\n        /* \"@openzeppelin/contracts@5.0.0/token/ERC20/ERC20.sol\":10663:11140  function _spendAllowance(address owner, address spender, uint256 value) internal virtual {... */\n    tag_100:\n      sub(shl(0xa0, 0x01), 0x01)\n        /* \"@openzeppelin/contracts@5.0.0/token/ERC20/ERC20.sol\":3952:3970  _allowances[owner] */\n      dup4\n      dup2\n      and\n        /* \"@openzeppelin/contracts@5.0.0/token/ERC20/ERC20.sol\":10762:10786  uint256 currentAllowance */\n      0x00\n        /* \"@openzeppelin/contracts@5.0.0/token/ERC20/ERC20.sol\":3952:3970  _allowances[owner] */\n      swap1\n      dup2\n      mstore\n        /* \"@openzeppelin/contracts@5.0.0/token/ERC20/ERC20.sol\":3952:3963  _allowances */\n      0x01\n        /* \"@openzeppelin/contracts@5.0.0/token/ERC20/ERC20.sol\":3952:3970  _allowances[owner] */\n      0x20\n      swap1\n      dup2\n      mstore\n      0x40\n      dup1\n      dup4\n      keccak256\n        /* \"@openzeppelin/contracts@5.0.0/token/ERC20/ERC20.sol\":3952:3979  _allowances[owner][spender] */\n      swap4\n      dup7\n      and\n      dup4\n      mstore\n      swap3\n      swap1\n      mstore\n      keccak256\n      sload\n      not(0x00)\n        /* \"@openzeppelin/contracts@5.0.0/token/ERC20/ERC20.sol\":10828:10865  currentAllowance != type(uint256).max */\n      dup2\n      eq\n        /* \"@openzeppelin/contracts@5.0.0/token/ERC20/ERC20.sol\":10824:11134  if (currentAllowance != type(uint256).max) {... */\n      tag_163\n      jumpi\n        /* \"@openzeppelin/contracts@5.0.0/token/ERC20/ERC20.sol\":10904:10909  value */\n      dup2\n        /* \"@openzeppelin/contracts@5.0.0/token/ERC20/ERC20.sol\":10885:10901  currentAllowance */\n      dup2\n        /* \"@openzeppelin/contracts@5.0.0/token/ERC20/ERC20.sol\":10885:10909  currentAllowance < value */\n      lt\n        /* \"@openzeppelin/contracts@5.0.0/token/ERC20/ERC20.sol\":10881:11011  if (currentAllowance < value) {... */\n      iszero\n      tag_160\n      jumpi\n        /* \"@openzeppelin/contracts@5.0.0/token/ERC20/ERC20.sol\":10936:10996  ERC20InsufficientAllowance(spender, currentAllowance, value) */\n      mload(0x40)\n      shl(0xe1, 0x7dc7a0d9)\n      dup2\n      mstore\n      sub(shl(0xa0, 0x01), 0x01)\n        /* \"#utility.yul\":6427:6459   */\n      dup5\n      and\n        /* \"@openzeppelin/contracts@5.0.0/token/ERC20/ERC20.sol\":10936:10996  ERC20InsufficientAllowance(spender, currentAllowance, value) */\n      0x04\n      dup3\n      add\n        /* \"#utility.yul\":6409:6460   */\n      mstore\n        /* \"#utility.yul\":6476:6494   */\n      0x24\n      dup2\n      add\n        /* \"#utility.yul\":6469:6503   */\n      dup3\n      swap1\n      mstore\n        /* \"#utility.yul\":6519:6537   */\n      0x44\n      dup2\n      add\n        /* \"#utility.yul\":6512:6546   */\n      dup4\n      swap1\n      mstore\n        /* \"#utility.yul\":6382:6400   */\n      0x64\n      add\n        /* \"@openzeppelin/contracts@5.0.0/token/ERC20/ERC20.sol\":10936:10996  ERC20InsufficientAllowance(spender, currentAllowance, value) */\n      tag_139\n        /* \"#utility.yul\":6207:6552   */\n      jump\n        /* \"@openzeppelin/contracts@5.0.0/token/ERC20/ERC20.sol\":10881:11011  if (currentAllowance < value) {... */\n    tag_160:\n        /* \"@openzeppelin/contracts@5.0.0/token/ERC20/ERC20.sol\":11052:11109  _approve(owner, spender, currentAllowance - value, false) */\n      tag_163\n        /* \"@openzeppelin/contracts@5.0.0/token/ERC20/ERC20.sol\":11061:11066  owner */\n      dup5\n        /* \"@openzeppelin/contracts@5.0.0/token/ERC20/ERC20.sol\":11068:11075  spender */\n      dup5\n        /* \"@openzeppelin/contracts@5.0.0/token/ERC20/ERC20.sol\":11096:11101  value */\n      dup5\n        /* \"@openzeppelin/contracts@5.0.0/token/ERC20/ERC20.sol\":11077:11093  currentAllowance */\n      dup5\n        /* \"@openzeppelin/contracts@5.0.0/token/ERC20/ERC20.sol\":11077:11101  currentAllowance - value */\n      sub\n        /* \"@openzeppelin/contracts@5.0.0/token/ERC20/ERC20.sol\":11103:11108  false */\n      0x00\n        /* \"@openzeppelin/contracts@5.0.0/token/ERC20/ERC20.sol\":11052:11060  _approve */\n      tag_156\n        /* \"@openzeppelin/contracts@5.0.0/token/ERC20/ERC20.sol\":11052:11109  _approve(owner, spender, currentAllowance - value, false) */\n      jump\t// in\n    tag_163:\n        /* \"@openzeppelin/contracts@5.0.0/token/ERC20/ERC20.sol\":10752:11140  {... */\n      pop\n        /* \"@openzeppelin/contracts@5.0.0/token/ERC20/ERC20.sol\":10663:11140  function _spendAllowance(address owner, address spender, uint256 value) internal virtual {... */\n      pop\n      pop\n      pop\n      jump\t// out\n        /* \"@openzeppelin/contracts@5.0.0/token/ERC20/ERC20.sol\":5656:5956  function _transfer(address from, address to, uint256 value) internal {... */\n    tag_102:\n      sub(shl(0xa0, 0x01), 0x01)\n        /* \"@openzeppelin/contracts@5.0.0/token/ERC20/ERC20.sol\":5739:5757  from == address(0) */\n      dup4\n      and\n        /* \"@openzeppelin/contracts@5.0.0/token/ERC20/ERC20.sol\":5735:5821  if (from == address(0)) {... */\n      tag_165\n      jumpi\n        /* \"@openzeppelin/contracts@5.0.0/token/ERC20/ERC20.sol\":5780:5810  ERC20InvalidSender(address(0)) */\n      mload(0x40)\n      shl(0xe1, 0x4b637e8f)\n      dup2\n      mstore\n        /* \"@openzeppelin/contracts@5.0.0/token/ERC20/ERC20.sol\":5807:5808  0 */\n      0x00\n        /* \"@openzeppelin/contracts@5.0.0/token/ERC20/ERC20.sol\":5780:5810  ERC20InvalidSender(address(0)) */\n      0x04\n      dup3\n      add\n        /* \"#utility.yul\":6703:6754   */\n      mstore\n        /* \"#utility.yul\":6676:6694   */\n      0x24\n      add\n        /* \"@openzeppelin/contracts@5.0.0/token/ERC20/ERC20.sol\":5780:5810  ERC20InvalidSender(address(0)) */\n      tag_139\n        /* \"#utility.yul\":6557:6760   */\n      jump\n        /* \"@openzeppelin/contracts@5.0.0/token/ERC20/ERC20.sol\":5735:5821  if (from == address(0)) {... */\n    tag_165:\n      sub(shl(0xa0, 0x01), 0x01)\n        /* \"@openzeppelin/contracts@5.0.0/token/ERC20/ERC20.sol\":5834:5850  to == address(0) */\n      dup3\n      and\n        /* \"@openzeppelin/contracts@5.0.0/token/ERC20/ERC20.sol\":5830:5916  if (to == address(0)) {... */\n      tag_168\n      jumpi\n        /* \"@openzeppelin/contracts@5.0.0/token/ERC20/ERC20.sol\":5873:5905  ERC20InvalidReceiver(address(0)) */\n      mload(0x40)\n      shl(0xe0, 0xec442f05)\n      dup2\n      mstore\n        /* \"@openzeppelin/contracts@5.0.0/token/ERC20/ERC20.sol\":5902:5903  0 */\n      0x00\n        /* \"@openzeppelin/contracts@5.0.0/token/ERC20/ERC20.sol\":5873:5905  ERC20InvalidReceiver(address(0)) */\n      0x04\n      dup3\n      add\n        /* \"#utility.yul\":6703:6754   */\n      mstore\n        /* \"#utility.yul\":6676:6694   */\n      0x24\n      add\n        /* \"@openzeppelin/contracts@5.0.0/token/ERC20/ERC20.sol\":5873:5905  ERC20InvalidReceiver(address(0)) */\n      tag_139\n        /* \"#utility.yul\":6557:6760   */\n      jump\n        /* \"@openzeppelin/contracts@5.0.0/token/ERC20/ERC20.sol\":5830:5916  if (to == address(0)) {... */\n    tag_168:\n        /* \"@openzeppelin/contracts@5.0.0/token/ERC20/ERC20.sol\":5925:5949  _update(from, to, value) */\n      tag_155\n        /* \"@openzeppelin/contracts@5.0.0/token/ERC20/ERC20.sol\":5933:5937  from */\n      dup4\n        /* \"@openzeppelin/contracts@5.0.0/token/ERC20/ERC20.sol\":5939:5941  to */\n      dup4\n        /* \"@openzeppelin/contracts@5.0.0/token/ERC20/ERC20.sol\":5943:5948  value */\n      dup4\n        /* \"@openzeppelin/contracts@5.0.0/token/ERC20/ERC20.sol\":5925:5932  _update */\n      tag_171\n        /* \"@openzeppelin/contracts@5.0.0/token/ERC20/ERC20.sol\":5925:5949  _update(from, to, value) */\n      jump\t// in\n        /* \"@openzeppelin/contracts@5.0.0/utils/cryptography/EIP712.sol\":3845:4107  function _domainSeparatorV4() internal view returns (bytes32) {... */\n    tag_106:\n        /* \"@openzeppelin/contracts@5.0.0/utils/cryptography/EIP712.sol\":3898:3905  bytes32 */\n      0x00\n        /* \"@openzeppelin/contracts@5.0.0/utils/cryptography/EIP712.sol\":3929:3933  this */\n      address\n      sub(shl(0xa0, 0x01), 0x01)\n        /* \"@openzeppelin/contracts@5.0.0/utils/cryptography/EIP712.sol\":3938:3949  _cachedThis */\n      immutable(\"0xbbcd1c28ce682af6448978891f662eb3dc81396033e42cf25613829f0d41f2f6\")\n        /* \"@openzeppelin/contracts@5.0.0/utils/cryptography/EIP712.sol\":3921:3949  address(this) == _cachedThis */\n      and\n      eq\n        /* \"@openzeppelin/contracts@5.0.0/utils/cryptography/EIP712.sol\":3921:3984  address(this) == _cachedThis && block.chainid == _cachedChainId */\n      dup1\n      iszero\n      tag_173\n      jumpi\n      pop\n        /* \"@openzeppelin/contracts@5.0.0/utils/cryptography/EIP712.sol\":3970:3984  _cachedChainId */\n      immutable(\"0x1cecd53757ff41334b0aac95136e45c28b8f0c7557fa90afd0025eaeb7956e02\")\n        /* \"@openzeppelin/contracts@5.0.0/utils/cryptography/EIP712.sol\":3953:3966  block.chainid */\n      chainid\n        /* \"@openzeppelin/contracts@5.0.0/utils/cryptography/EIP712.sol\":3953:3984  block.chainid == _cachedChainId */\n      eq\n        /* \"@openzeppelin/contracts@5.0.0/utils/cryptography/EIP712.sol\":3921:3984  address(this) == _cachedThis && block.chainid == _cachedChainId */\n    tag_173:\n        /* \"@openzeppelin/contracts@5.0.0/utils/cryptography/EIP712.sol\":3917:4101  if (address(this) == _cachedThis && block.chainid == _cachedChainId) {... */\n      iszero\n      tag_174\n      jumpi\n      pop\n        /* \"@openzeppelin/contracts@5.0.0/utils/cryptography/EIP712.sol\":4007:4029  _cachedDomainSeparator */\n      immutable(\"0x214fa292011259fa3e2a454aff2965073026e84fae83737d5134727cec419afa\")\n      swap1\n        /* \"@openzeppelin/contracts@5.0.0/utils/cryptography/EIP712.sol\":3845:4107  function _domainSeparatorV4() internal view returns (bytes32) {... */\n      jump\t// out\n        /* \"@openzeppelin/contracts@5.0.0/utils/cryptography/EIP712.sol\":3917:4101  if (address(this) == _cachedThis && block.chainid == _cachedChainId) {... */\n    tag_174:\n        /* \"@openzeppelin/contracts@5.0.0/utils/cryptography/EIP712.sol\":4067:4090  _buildDomainSeparator() */\n      tag_105\n        /* \"@openzeppelin/contracts@5.0.0/utils/cryptography/EIP712.sol\":4204:4284  abi.encode(TYPE_HASH, _hashedName, _hashedVersion, block.chainid, address(this)) */\n      0x40\n      dup1\n      mload\n        /* \"@openzeppelin/contracts@5.0.0/utils/cryptography/EIP712.sol\":2079:2174  keccak256(\"EIP712Domain(string name,string version,uint256 chainId,address verifyingContract)\") */\n      0x8b73c3c69bb8fe3d512ecc4cf759cc79239f7b179b0ffacaa9a75d522b39400f\n        /* \"@openzeppelin/contracts@5.0.0/utils/cryptography/EIP712.sol\":4204:4284  abi.encode(TYPE_HASH, _hashedName, _hashedVersion, block.chainid, address(this)) */\n      0x20\n      dup3\n      add\n        /* \"#utility.yul\":7251:7276   */\n      mstore\n        /* \"@openzeppelin/contracts@5.0.0/utils/cryptography/EIP712.sol\":4226:4237  _hashedName */\n      immutable(\"0x4e669ebbfc9e66ba0d4cc2f926c330636a2f58d7a9b7cd75440140ab15886cf5\")\n        /* \"#utility.yul\":7292:7310   */\n      swap2\n      dup2\n      add\n        /* \"#utility.yul\":7285:7319   */\n      swap2\n      swap1\n      swap2\n      mstore\n        /* \"@openzeppelin/contracts@5.0.0/utils/cryptography/EIP712.sol\":4239:4253  _hashedVersion */\n      immutable(\"0xd188a1da6d6dfc972f5d1614b9a5ea681202f643e26bdaa8898fb08d79dc84fc\")\n        /* \"#utility.yul\":7335:7353   */\n      0x60\n      dup3\n      add\n        /* \"#utility.yul\":7328:7362   */\n      mstore\n        /* \"@openzeppelin/contracts@5.0.0/utils/cryptography/EIP712.sol\":4255:4268  block.chainid */\n      chainid\n        /* \"#utility.yul\":7378:7396   */\n      0x80\n      dup3\n      add\n        /* \"#utility.yul\":7371:7405   */\n      mstore\n        /* \"@openzeppelin/contracts@5.0.0/utils/cryptography/EIP712.sol\":4278:4282  this */\n      address\n        /* \"#utility.yul\":7421:7440   */\n      0xa0\n      dup3\n      add\n        /* \"#utility.yul\":7414:7475   */\n      mstore\n        /* \"@openzeppelin/contracts@5.0.0/utils/cryptography/EIP712.sol\":4168:4175  bytes32 */\n      0x00\n      swap1\n        /* \"#utility.yul\":7223:7242   */\n      0xc0\n      add\n        /* \"@openzeppelin/contracts@5.0.0/utils/cryptography/EIP712.sol\":4204:4284  abi.encode(TYPE_HASH, _hashedName, _hashedVersion, block.chainid, address(this)) */\n      mload(0x40)\n      0x20\n      dup2\n      dup4\n      sub\n      sub\n      dup2\n      mstore\n      swap1\n      0x40\n      mstore\n        /* \"@openzeppelin/contracts@5.0.0/utils/cryptography/EIP712.sol\":4194:4285  keccak256(abi.encode(TYPE_HASH, _hashedName, _hashedVersion, block.chainid, address(this))) */\n      dup1\n      mload\n      swap1\n      0x20\n      add\n      keccak256\n        /* \"@openzeppelin/contracts@5.0.0/utils/cryptography/EIP712.sol\":4187:4285  return keccak256(abi.encode(TYPE_HASH, _hashedName, _hashedVersion, block.chainid, address(this))) */\n      swap1\n      pop\n        /* \"@openzeppelin/contracts@5.0.0/utils/cryptography/EIP712.sol\":4113:4292  function _buildDomainSeparator() private view returns (bytes32) {... */\n      swap1\n      jump\n        /* \"@openzeppelin/contracts@5.0.0/token/ERC20/ERC20.sol\":8247:8453  function _burn(address account, uint256 value) internal {... */\n    tag_110:\n      sub(shl(0xa0, 0x01), 0x01)\n        /* \"@openzeppelin/contracts@5.0.0/token/ERC20/ERC20.sol\":8317:8338  account == address(0) */\n      dup3\n      and\n        /* \"@openzeppelin/contracts@5.0.0/token/ERC20/ERC20.sol\":8313:8402  if (account == address(0)) {... */\n      tag_179\n      jumpi\n        /* \"@openzeppelin/contracts@5.0.0/token/ERC20/ERC20.sol\":8361:8391  ERC20InvalidSender(address(0)) */\n      mload(0x40)\n      shl(0xe1, 0x4b637e8f)\n      dup2\n      mstore\n        /* \"@openzeppelin/contracts@5.0.0/token/ERC20/ERC20.sol\":8388:8389  0 */\n      0x00\n        /* \"@openzeppelin/contracts@5.0.0/token/ERC20/ERC20.sol\":8361:8391  ERC20InvalidSender(address(0)) */\n      0x04\n      dup3\n      add\n        /* \"#utility.yul\":6703:6754   */\n      mstore\n        /* \"#utility.yul\":6676:6694   */\n      0x24\n      add\n        /* \"@openzeppelin/contracts@5.0.0/token/ERC20/ERC20.sol\":8361:8391  ERC20InvalidSender(address(0)) */\n      tag_139\n        /* \"#utility.yul\":6557:6760   */\n      jump\n        /* \"@openzeppelin/contracts@5.0.0/token/ERC20/ERC20.sol\":8313:8402  if (account == address(0)) {... */\n    tag_179:\n        /* \"@openzeppelin/contracts@5.0.0/token/ERC20/ERC20.sol\":8411:8446  _update(account, address(0), value) */\n      tag_115\n        /* \"@openzeppelin/contracts@5.0.0/token/ERC20/ERC20.sol\":8419:8426  account */\n      dup3\n        /* \"@openzeppelin/contracts@5.0.0/token/ERC20/ERC20.sol\":8436:8437  0 */\n      0x00\n        /* \"@openzeppelin/contracts@5.0.0/token/ERC20/ERC20.sol\":8440:8445  value */\n      dup4\n        /* \"@openzeppelin/contracts@5.0.0/token/ERC20/ERC20.sol\":8411:8418  _update */\n      tag_171\n        /* \"@openzeppelin/contracts@5.0.0/token/ERC20/ERC20.sol\":8411:8446  _update(account, address(0), value) */\n      jump\t// in\n        /* \"@openzeppelin/contracts@5.0.0/utils/cryptography/EIP712.sol\":6021:6147  function _EIP712Name() internal view returns (string memory) {... */\n    tag_121:\n        /* \"@openzeppelin/contracts@5.0.0/utils/cryptography/EIP712.sol\":6067:6080  string memory */\n      0x60\n        /* \"@openzeppelin/contracts@5.0.0/utils/cryptography/EIP712.sol\":6099:6140  _name.toStringWithFallback(_nameFallback) */\n      tag_105\n        /* \"@openzeppelin/contracts@5.0.0/utils/cryptography/EIP712.sol\":6099:6104  _name */\n      immutable(\"0xf598d05e51facafddb4666a870ba9c91ee31463df052628aed50dc3216257420\")\n        /* \"@openzeppelin/contracts@5.0.0/utils/cryptography/EIP712.sol\":6126:6139  _nameFallback */\n      0x05\n        /* \"@openzeppelin/contracts@5.0.0/utils/cryptography/EIP712.sol\":6099:6125  _name.toStringWithFallback */\n      tag_185\n        /* \"@openzeppelin/contracts@5.0.0/utils/cryptography/EIP712.sol\":6099:6140  _name.toStringWithFallback(_nameFallback) */\n      jump\t// in\n        /* \"@openzeppelin/contracts@5.0.0/utils/cryptography/EIP712.sol\":6473:6608  function _EIP712Version() internal view returns (string memory) {... */\n    tag_123:\n        /* \"@openzeppelin/contracts@5.0.0/utils/cryptography/EIP712.sol\":6522:6535  string memory */\n      0x60\n        /* \"@openzeppelin/contracts@5.0.0/utils/cryptography/EIP712.sol\":6554:6601  _version.toStringWithFallback(_versionFallback) */\n      tag_105\n        /* \"@openzeppelin/contracts@5.0.0/utils/cryptography/EIP712.sol\":6554:6562  _version */\n      immutable(\"0xdd6ebedecc3782991b040722d05346ae76115706b237b0f241066a60ee7c2169\")\n        /* \"@openzeppelin/contracts@5.0.0/utils/cryptography/EIP712.sol\":6584:6600  _versionFallback */\n      0x06\n        /* \"@openzeppelin/contracts@5.0.0/utils/cryptography/EIP712.sol\":6554:6583  _version.toStringWithFallback */\n      tag_185\n        /* \"@openzeppelin/contracts@5.0.0/utils/cryptography/EIP712.sol\":6554:6601  _version.toStringWithFallback(_versionFallback) */\n      jump\t// in\n        /* \"@openzeppelin/contracts@5.0.0/utils/cryptography/EIP712.sol\":4917:5093  function _hashTypedDataV4(bytes32 structHash) internal view virtual returns (bytes32) {... */\n    tag_145:\n        /* \"@openzeppelin/contracts@5.0.0/utils/cryptography/EIP712.sol\":4994:5001  bytes32 */\n      0x00\n        /* \"@openzeppelin/contracts@5.0.0/utils/cryptography/EIP712.sol\":5020:5086  MessageHashUtils.toTypedDataHash(_domainSeparatorV4(), structHash) */\n      tag_91\n        /* \"@openzeppelin/contracts@5.0.0/utils/cryptography/EIP712.sol\":5053:5073  _domainSeparatorV4() */\n      tag_191\n        /* \"@openzeppelin/contracts@5.0.0/utils/cryptography/EIP712.sol\":5053:5071  _domainSeparatorV4 */\n      tag_106\n        /* \"@openzeppelin/contracts@5.0.0/utils/cryptography/EIP712.sol\":5053:5073  _domainSeparatorV4() */\n      jump\t// in\n    tag_191:\n        /* \"@openzeppelin/contracts@5.0.0/utils/cryptography/EIP712.sol\":5075:5085  structHash */\n      dup4\n        /* \"@openzeppelin/contracts@5.0.0/utils/cryptography/MessageHashUtils.sol\":3555:3559  0x40 */\n      0x40\n        /* \"@openzeppelin/contracts@5.0.0/utils/cryptography/MessageHashUtils.sol\":3549:3560  mload(0x40) */\n      mload\n      shl(0xf0, 0x1901)\n        /* \"@openzeppelin/contracts@5.0.0/utils/cryptography/MessageHashUtils.sol\":3573:3596  mstore(ptr, hex\"19_01\") */\n      dup2\n      mstore\n        /* \"@openzeppelin/contracts@5.0.0/utils/cryptography/MessageHashUtils.sol\":3625:3629  0x02 */\n      0x02\n        /* \"@openzeppelin/contracts@5.0.0/utils/cryptography/MessageHashUtils.sol\":3616:3630  add(ptr, 0x02) */\n      dup2\n      add\n        /* \"@openzeppelin/contracts@5.0.0/utils/cryptography/MessageHashUtils.sol\":3609:3648  mstore(add(ptr, 0x02), domainSeparator) */\n      swap3\n      swap1\n      swap3\n      mstore\n        /* \"@openzeppelin/contracts@5.0.0/utils/cryptography/MessageHashUtils.sol\":3677:3681  0x22 */\n      0x22\n        /* \"@openzeppelin/contracts@5.0.0/utils/cryptography/MessageHashUtils.sol\":3668:3682  add(ptr, 0x22) */\n      dup3\n      add\n        /* \"@openzeppelin/contracts@5.0.0/utils/cryptography/MessageHashUtils.sol\":3661:3695  mstore(add(ptr, 0x22), structHash) */\n      mstore\n        /* \"@openzeppelin/contracts@5.0.0/utils/cryptography/MessageHashUtils.sol\":3733:3737  0x42 */\n      0x42\n        /* \"@openzeppelin/contracts@5.0.0/utils/cryptography/MessageHashUtils.sol\":3718:3738  keccak256(ptr, 0x42) */\n      swap1\n      keccak256\n      swap1\n        /* \"@openzeppelin/contracts@5.0.0/utils/cryptography/MessageHashUtils.sol\":3353:3754  function toTypedDataHash(bytes32 domainSeparator, bytes32 structHash) internal pure returns (bytes32 digest) {... */\n      jump\n        /* \"@openzeppelin/contracts@5.0.0/utils/cryptography/ECDSA.sol\":6803:7063  function recover(bytes32 hash, uint8 v, bytes32 r, bytes32 s) internal pure returns (address) {... */\n    tag_147:\n        /* \"@openzeppelin/contracts@5.0.0/utils/cryptography/ECDSA.sol\":6888:6895  address */\n      0x00\n        /* \"@openzeppelin/contracts@5.0.0/utils/cryptography/ECDSA.sol\":6908:6925  address recovered */\n      dup1\n        /* \"@openzeppelin/contracts@5.0.0/utils/cryptography/ECDSA.sol\":6927:6945  RecoverError error */\n      0x00\n        /* \"@openzeppelin/contracts@5.0.0/utils/cryptography/ECDSA.sol\":6947:6963  bytes32 errorArg */\n      dup1\n        /* \"@openzeppelin/contracts@5.0.0/utils/cryptography/ECDSA.sol\":6967:6992  tryRecover(hash, v, r, s) */\n      tag_194\n        /* \"@openzeppelin/contracts@5.0.0/utils/cryptography/ECDSA.sol\":6978:6982  hash */\n      dup9\n        /* \"@openzeppelin/contracts@5.0.0/utils/cryptography/ECDSA.sol\":6984:6985  v */\n      dup9\n        /* \"@openzeppelin/contracts@5.0.0/utils/cryptography/ECDSA.sol\":6987:6988  r */\n      dup9\n        /* \"@openzeppelin/contracts@5.0.0/utils/cryptography/ECDSA.sol\":6990:6991  s */\n      dup9\n        /* \"@openzeppelin/contracts@5.0.0/utils/cryptography/ECDSA.sol\":6967:6977  tryRecover */\n      tag_195\n        /* \"@openzeppelin/contracts@5.0.0/utils/cryptography/ECDSA.sol\":6967:6992  tryRecover(hash, v, r, s) */\n      jump\t// in\n    tag_194:\n        /* \"@openzeppelin/contracts@5.0.0/utils/cryptography/ECDSA.sol\":6907:6992  (address recovered, RecoverError error, bytes32 errorArg) = tryRecover(hash, v, r, s) */\n      swap3\n      pop\n      swap3\n      pop\n      swap3\n      pop\n        /* \"@openzeppelin/contracts@5.0.0/utils/cryptography/ECDSA.sol\":7002:7030  _throwError(error, errorArg) */\n      tag_196\n        /* \"@openzeppelin/contracts@5.0.0/utils/cryptography/ECDSA.sol\":7014:7019  error */\n      dup3\n        /* \"@openzeppelin/contracts@5.0.0/utils/cryptography/ECDSA.sol\":7021:7029  errorArg */\n      dup3\n        /* \"@openzeppelin/contracts@5.0.0/utils/cryptography/ECDSA.sol\":7002:7013  _throwError */\n      tag_197\n        /* \"@openzeppelin/contracts@5.0.0/utils/cryptography/ECDSA.sol\":7002:7030  _throwError(error, errorArg) */\n      jump\t// in\n    tag_196:\n      pop\n        /* \"@openzeppelin/contracts@5.0.0/utils/cryptography/ECDSA.sol\":7047:7056  recovered */\n      swap1\n      swap7\n        /* \"@openzeppelin/contracts@5.0.0/utils/cryptography/ECDSA.sol\":6803:7063  function recover(bytes32 hash, uint8 v, bytes32 r, bytes32 s) internal pure returns (address) {... */\n      swap6\n      pop\n      pop\n      pop\n      pop\n      pop\n      pop\n      jump\t// out\n        /* \"@openzeppelin/contracts@5.0.0/token/ERC20/ERC20.sol\":9949:10381  function _approve(address owner, address spender, uint256 value, bool emitEvent) internal virtual {... */\n    tag_156:\n      sub(shl(0xa0, 0x01), 0x01)\n        /* \"@openzeppelin/contracts@5.0.0/token/ERC20/ERC20.sol\":10061:10080  owner == address(0) */\n      dup5\n      and\n        /* \"@openzeppelin/contracts@5.0.0/token/ERC20/ERC20.sol\":10057:10146  if (owner == address(0)) {... */\n      tag_199\n      jumpi\n        /* \"@openzeppelin/contracts@5.0.0/token/ERC20/ERC20.sol\":10103:10135  ERC20InvalidApprover(address(0)) */\n      mload(0x40)\n      shl(0xe0, 0xe602df05)\n      dup2\n      mstore\n        /* \"@openzeppelin/contracts@5.0.0/token/ERC20/ERC20.sol\":10132:10133  0 */\n      0x00\n        /* \"@openzeppelin/contracts@5.0.0/token/ERC20/ERC20.sol\":10103:10135  ERC20InvalidApprover(address(0)) */\n      0x04\n      dup3\n      add\n        /* \"#utility.yul\":6703:6754   */\n      mstore\n        /* \"#utility.yul\":6676:6694   */\n      0x24\n      add\n        /* \"@openzeppelin/contracts@5.0.0/token/ERC20/ERC20.sol\":10103:10135  ERC20InvalidApprover(address(0)) */\n      tag_139\n        /* \"#utility.yul\":6557:6760   */\n      jump\n        /* \"@openzeppelin/contracts@5.0.0/token/ERC20/ERC20.sol\":10057:10146  if (owner == address(0)) {... */\n    tag_199:\n      sub(shl(0xa0, 0x01), 0x01)\n        /* \"@openzeppelin/contracts@5.0.0/token/ERC20/ERC20.sol\":10159:10180  spender == address(0) */\n      dup4\n      and\n        /* \"@openzeppelin/contracts@5.0.0/token/ERC20/ERC20.sol\":10155:10245  if (spender == address(0)) {... */\n      tag_201\n      jumpi\n        /* \"@openzeppelin/contracts@5.0.0/token/ERC20/ERC20.sol\":10203:10234  ERC20InvalidSpender(address(0)) */\n      mload(0x40)\n      shl(0xe1, 0x4a1406b1)\n      dup2\n      mstore\n        /* \"@openzeppelin/contracts@5.0.0/token/ERC20/ERC20.sol\":10231:10232  0 */\n      0x00\n        /* \"@openzeppelin/contracts@5.0.0/token/ERC20/ERC20.sol\":10203:10234  ERC20InvalidSpender(address(0)) */\n      0x04\n      dup3\n      add\n        /* \"#utility.yul\":6703:6754   */\n      mstore\n        /* \"#utility.yul\":6676:6694   */\n      0x24\n      add\n        /* \"@openzeppelin/contracts@5.0.0/token/ERC20/ERC20.sol\":10203:10234  ERC20InvalidSpender(address(0)) */\n      tag_139\n        /* \"#utility.yul\":6557:6760   */\n      jump\n        /* \"@openzeppelin/contracts@5.0.0/token/ERC20/ERC20.sol\":10155:10245  if (spender == address(0)) {... */\n    tag_201:\n      sub(shl(0xa0, 0x01), 0x01)\n        /* \"@openzeppelin/contracts@5.0.0/token/ERC20/ERC20.sol\":10254:10272  _allowances[owner] */\n      dup1\n      dup6\n      and\n      0x00\n      swap1\n      dup2\n      mstore\n        /* \"@openzeppelin/contracts@5.0.0/token/ERC20/ERC20.sol\":10254:10265  _allowances */\n      0x01\n        /* \"@openzeppelin/contracts@5.0.0/token/ERC20/ERC20.sol\":10254:10272  _allowances[owner] */\n      0x20\n      swap1\n      dup2\n      mstore\n      0x40\n      dup1\n      dup4\n      keccak256\n        /* \"@openzeppelin/contracts@5.0.0/token/ERC20/ERC20.sol\":10254:10281  _allowances[owner][spender] */\n      swap4\n      dup8\n      and\n      dup4\n      mstore\n      swap3\n      swap1\n      mstore\n      keccak256\n        /* \"@openzeppelin/contracts@5.0.0/token/ERC20/ERC20.sol\":10254:10289  _allowances[owner][spender] = value */\n      dup3\n      swap1\n      sstore\n        /* \"@openzeppelin/contracts@5.0.0/token/ERC20/ERC20.sol\":10299:10375  if (emitEvent) {... */\n      dup1\n      iszero\n      tag_163\n      jumpi\n        /* \"@openzeppelin/contracts@5.0.0/token/ERC20/ERC20.sol\":10349:10356  spender */\n      dup3\n      sub(shl(0xa0, 0x01), 0x01)\n        /* \"@openzeppelin/contracts@5.0.0/token/ERC20/ERC20.sol\":10333:10364  Approval(owner, spender, value) */\n      and\n        /* \"@openzeppelin/contracts@5.0.0/token/ERC20/ERC20.sol\":10342:10347  owner */\n      dup5\n      sub(shl(0xa0, 0x01), 0x01)\n        /* \"@openzeppelin/contracts@5.0.0/token/ERC20/ERC20.sol\":10333:10364  Approval(owner, spender, value) */\n      and\n      0x8c5be1e5ebec7d5bd14f71427d1e84f3dd0314c0f7b2291e5b200ac8c7c3b925\n        /* \"@openzeppelin/contracts@5.0.0/token/ERC20/ERC20.sol\":10358:10363  value */\n      dup5\n        /* \"@openzeppelin/contracts@5.0.0/token/ERC20/ERC20.sol\":10333:10364  Approval(owner, spender, value) */\n      mload(0x40)\n      tag_204\n      swap2\n        /* \"#utility.yul\":1442:1467   */\n      dup2\n      mstore\n        /* \"#utility.yul\":1430:1432   */\n      0x20\n        /* \"#utility.yul\":1415:1433   */\n      add\n      swap1\n        /* \"#utility.yul\":1296:1473   */\n      jump\n        /* \"@openzeppelin/contracts@5.0.0/token/ERC20/ERC20.sol\":10333:10364  Approval(owner, spender, value) */\n    tag_204:\n      mload(0x40)\n      dup1\n      swap2\n      sub\n      swap1\n      log3\n        /* \"@openzeppelin/contracts@5.0.0/token/ERC20/ERC20.sol\":9949:10381  function _approve(address owner, address spender, uint256 value, bool emitEvent) internal virtual {... */\n      pop\n      pop\n      pop\n      pop\n      jump\t// out\n        /* \"@openzeppelin/contracts@5.0.0/token/ERC20/ERC20.sol\":6271:7378  function _update(address from, address to, uint256 value) internal virtual {... */\n    tag_171:\n      sub(shl(0xa0, 0x01), 0x01)\n        /* \"@openzeppelin/contracts@5.0.0/token/ERC20/ERC20.sol\":6360:6378  from == address(0) */\n      dup4\n      and\n        /* \"@openzeppelin/contracts@5.0.0/token/ERC20/ERC20.sol\":6356:6896  if (from == address(0)) {... */\n      tag_206\n      jumpi\n        /* \"@openzeppelin/contracts@5.0.0/token/ERC20/ERC20.sol\":6512:6517  value */\n      dup1\n        /* \"@openzeppelin/contracts@5.0.0/token/ERC20/ERC20.sol\":6496:6508  _totalSupply */\n      0x02\n      0x00\n        /* \"@openzeppelin/contracts@5.0.0/token/ERC20/ERC20.sol\":6496:6517  _totalSupply += value */\n      dup3\n      dup3\n      sload\n      tag_207\n      swap2\n      swap1\n      tag_208\n      jump\t// in\n    tag_207:\n      swap1\n      swap2\n      sstore\n      pop\n        /* \"@openzeppelin/contracts@5.0.0/token/ERC20/ERC20.sol\":6356:6896  if (from == address(0)) {... */\n      tag_209\n      swap1\n      pop\n      jump\n    tag_206:\n      sub(shl(0xa0, 0x01), 0x01)\n        /* \"@openzeppelin/contracts@5.0.0/token/ERC20/ERC20.sol\":6570:6585  _balances[from] */\n      dup4\n      and\n        /* \"@openzeppelin/contracts@5.0.0/token/ERC20/ERC20.sol\":6548:6567  uint256 fromBalance */\n      0x00\n        /* \"@openzeppelin/contracts@5.0.0/token/ERC20/ERC20.sol\":6570:6585  _balances[from] */\n      swap1\n      dup2\n      mstore\n      0x20\n      dup2\n      swap1\n      mstore\n      0x40\n      swap1\n      keccak256\n      sload\n        /* \"@openzeppelin/contracts@5.0.0/token/ERC20/ERC20.sol\":6603:6622  fromBalance < value */\n      dup2\n      dup2\n      lt\n        /* \"@openzeppelin/contracts@5.0.0/token/ERC20/ERC20.sol\":6599:6714  if (fromBalance < value) {... */\n      iszero\n      tag_210\n      jumpi\n        /* \"@openzeppelin/contracts@5.0.0/token/ERC20/ERC20.sol\":6649:6699  ERC20InsufficientBalance(from, fromBalance, value) */\n      mload(0x40)\n      shl(0xe2, 0x391434e3)\n      dup2\n      mstore\n      sub(shl(0xa0, 0x01), 0x01)\n        /* \"#utility.yul\":6427:6459   */\n      dup6\n      and\n        /* \"@openzeppelin/contracts@5.0.0/token/ERC20/ERC20.sol\":6649:6699  ERC20InsufficientBalance(from, fromBalance, value) */\n      0x04\n      dup3\n      add\n        /* \"#utility.yul\":6409:6460   */\n      mstore\n        /* \"#utility.yul\":6476:6494   */\n      0x24\n      dup2\n      add\n        /* \"#utility.yul\":6469:6503   */\n      dup3\n      swap1\n      mstore\n        /* \"#utility.yul\":6519:6537   */\n      0x44\n      dup2\n      add\n        /* \"#utility.yul\":6512:6546   */\n      dup4\n      swap1\n      mstore\n        /* \"#utility.yul\":6382:6400   */\n      0x64\n      add\n        /* \"@openzeppelin/contracts@5.0.0/token/ERC20/ERC20.sol\":6649:6699  ERC20InsufficientBalance(from, fromBalance, value) */\n      tag_139\n        /* \"#utility.yul\":6207:6552   */\n      jump\n        /* \"@openzeppelin/contracts@5.0.0/token/ERC20/ERC20.sol\":6599:6714  if (fromBalance < value) {... */\n    tag_210:\n      sub(shl(0xa0, 0x01), 0x01)\n        /* \"@openzeppelin/contracts@5.0.0/token/ERC20/ERC20.sol\":6834:6849  _balances[from] */\n      dup5\n      and\n        /* \"@openzeppelin/contracts@5.0.0/token/ERC20/ERC20.sol\":6834:6843  _balances */\n      0x00\n        /* \"@openzeppelin/contracts@5.0.0/token/ERC20/ERC20.sol\":6834:6849  _balances[from] */\n      swap1\n      dup2\n      mstore\n      0x20\n      dup2\n      swap1\n      mstore\n      0x40\n      swap1\n      keccak256\n        /* \"@openzeppelin/contracts@5.0.0/token/ERC20/ERC20.sol\":6852:6871  fromBalance - value */\n      swap1\n      dup3\n      swap1\n      sub\n        /* \"@openzeppelin/contracts@5.0.0/token/ERC20/ERC20.sol\":6834:6871  _balances[from] = fromBalance - value */\n      swap1\n      sstore\n        /* \"@openzeppelin/contracts@5.0.0/token/ERC20/ERC20.sol\":6356:6896  if (from == address(0)) {... */\n    tag_209:\n      sub(shl(0xa0, 0x01), 0x01)\n        /* \"@openzeppelin/contracts@5.0.0/token/ERC20/ERC20.sol\":6910:6926  to == address(0) */\n      dup3\n      and\n        /* \"@openzeppelin/contracts@5.0.0/token/ERC20/ERC20.sol\":6906:7331  if (to == address(0)) {... */\n      tag_212\n      jumpi\n        /* \"@openzeppelin/contracts@5.0.0/token/ERC20/ERC20.sol\":7073:7085  _totalSupply */\n      0x02\n        /* \"@openzeppelin/contracts@5.0.0/token/ERC20/ERC20.sol\":7073:7094  _totalSupply -= value */\n      dup1\n      sload\n      dup3\n      swap1\n      sub\n      swap1\n      sstore\n        /* \"@openzeppelin/contracts@5.0.0/token/ERC20/ERC20.sol\":6906:7331  if (to == address(0)) {... */\n      jump(tag_213)\n    tag_212:\n      sub(shl(0xa0, 0x01), 0x01)\n        /* \"@openzeppelin/contracts@5.0.0/token/ERC20/ERC20.sol\":7284:7297  _balances[to] */\n      dup3\n      and\n        /* \"@openzeppelin/contracts@5.0.0/token/ERC20/ERC20.sol\":7284:7293  _balances */\n      0x00\n        /* \"@openzeppelin/contracts@5.0.0/token/ERC20/ERC20.sol\":7284:7297  _balances[to] */\n      swap1\n      dup2\n      mstore\n      0x20\n      dup2\n      swap1\n      mstore\n      0x40\n      swap1\n      keccak256\n        /* \"@openzeppelin/contracts@5.0.0/token/ERC20/ERC20.sol\":7284:7306  _balances[to] += value */\n      dup1\n      sload\n      dup3\n      add\n      swap1\n      sstore\n        /* \"@openzeppelin/contracts@5.0.0/token/ERC20/ERC20.sol\":6906:7331  if (to == address(0)) {... */\n    tag_213:\n        /* \"@openzeppelin/contracts@5.0.0/token/ERC20/ERC20.sol\":7361:7363  to */\n      dup2\n      sub(shl(0xa0, 0x01), 0x01)\n        /* \"@openzeppelin/contracts@5.0.0/token/ERC20/ERC20.sol\":7346:7371  Transfer(from, to, value) */\n      and\n        /* \"@openzeppelin/contracts@5.0.0/token/ERC20/ERC20.sol\":7355:7359  from */\n      dup4\n      sub(shl(0xa0, 0x01), 0x01)\n        /* \"@openzeppelin/contracts@5.0.0/token/ERC20/ERC20.sol\":7346:7371  Transfer(from, to, value) */\n      and\n      0xddf252ad1be2c89b69c2b068fc378daa952ba7f163c4a11628f55a4df523b3ef\n        /* \"@openzeppelin/contracts@5.0.0/token/ERC20/ERC20.sol\":7365:7370  value */\n      dup4\n        /* \"@openzeppelin/contracts@5.0.0/token/ERC20/ERC20.sol\":7346:7371  Transfer(from, to, value) */\n      mload(0x40)\n      tag_214\n      swap2\n        /* \"#utility.yul\":1442:1467   */\n      dup2\n      mstore\n        /* \"#utility.yul\":1430:1432   */\n      0x20\n        /* \"#utility.yul\":1415:1433   */\n      add\n      swap1\n        /* \"#utility.yul\":1296:1473   */\n      jump\n        /* \"@openzeppelin/contracts@5.0.0/token/ERC20/ERC20.sol\":7346:7371  Transfer(from, to, value) */\n    tag_214:\n      mload(0x40)\n      dup1\n      swap2\n      sub\n      swap1\n      log3\n        /* \"@openzeppelin/contracts@5.0.0/token/ERC20/ERC20.sol\":6271:7378  function _update(address from, address to, uint256 value) internal virtual {... */\n      pop\n      pop\n      pop\n      jump\t// out\n        /* \"@openzeppelin/contracts@5.0.0/utils/ShortStrings.sol\":3385:3652  function toStringWithFallback(ShortString value, string storage store) internal pure returns (string memory) {... */\n    tag_185:\n        /* \"@openzeppelin/contracts@5.0.0/utils/ShortStrings.sol\":3479:3492  string memory */\n      0x60\n        /* \"@openzeppelin/contracts@5.0.0/utils/ShortStrings.sol\":1390:1456  0x00000000000000000000000000000000000000000000000000000000000000FF */\n      0xff\n        /* \"@openzeppelin/contracts@5.0.0/utils/ShortStrings.sol\":3508:3554  ShortString.unwrap(value) != FALLBACK_SENTINEL */\n      dup4\n      eq\n        /* \"@openzeppelin/contracts@5.0.0/utils/ShortStrings.sol\":3504:3646  if (ShortString.unwrap(value) != FALLBACK_SENTINEL) {... */\n      tag_219\n      jumpi\n        /* \"@openzeppelin/contracts@5.0.0/utils/ShortStrings.sol\":3577:3592  toString(value) */\n      tag_220\n        /* \"@openzeppelin/contracts@5.0.0/utils/ShortStrings.sol\":3586:3591  value */\n      dup4\n        /* \"@openzeppelin/contracts@5.0.0/utils/ShortStrings.sol\":3577:3585  toString */\n      tag_221\n        /* \"@openzeppelin/contracts@5.0.0/utils/ShortStrings.sol\":3577:3592  toString(value) */\n      jump\t// in\n    tag_220:\n        /* \"@openzeppelin/contracts@5.0.0/utils/ShortStrings.sol\":3570:3592  return toString(value) */\n      swap1\n      pop\n      jump(tag_91)\n        /* \"@openzeppelin/contracts@5.0.0/utils/ShortStrings.sol\":3504:3646  if (ShortString.unwrap(value) != FALLBACK_SENTINEL) {... */\n    tag_219:\n        /* \"@openzeppelin/contracts@5.0.0/utils/ShortStrings.sol\":3630:3635  store */\n      dup2\n        /* \"@openzeppelin/contracts@5.0.0/utils/ShortStrings.sol\":3623:3635  return store */\n      dup1\n      sload\n      tag_223\n      swap1\n      tag_86\n      jump\t// in\n    tag_223:\n      dup1\n      0x1f\n      add\n      0x20\n      dup1\n      swap2\n      div\n      mul\n      0x20\n      add\n      mload(0x40)\n      swap1\n      dup2\n      add\n      0x40\n      mstore\n      dup1\n      swap3\n      swap2\n      swap1\n      dup2\n      dup2\n      mstore\n      0x20\n      add\n      dup3\n      dup1\n      sload\n      tag_224\n      swap1\n      tag_86\n      jump\t// in\n    tag_224:\n      dup1\n      iszero\n      tag_225\n      jumpi\n      dup1\n      0x1f\n      lt\n      tag_226\n      jumpi\n      0x0100\n      dup1\n      dup4\n      sload\n      div\n      mul\n      dup4\n      mstore\n      swap2\n      0x20\n      add\n      swap2\n      jump(tag_225)\n    tag_226:\n      dup3\n      add\n      swap2\n      swap1\n      0x00\n      mstore\n      keccak256(0x00, 0x20)\n      swap1\n    tag_227:\n      dup2\n      sload\n      dup2\n      mstore\n      swap1\n      0x01\n      add\n      swap1\n      0x20\n      add\n      dup1\n      dup4\n      gt\n      tag_227\n      jumpi\n      dup3\n      swap1\n      sub\n      0x1f\n      and\n      dup3\n      add\n      swap2\n    tag_225:\n      pop\n      pop\n      pop\n      pop\n      pop\n      swap1\n      pop\n      jump(tag_91)\n        /* \"@openzeppelin/contracts@5.0.0/utils/cryptography/ECDSA.sol\":5140:6670  function tryRecover(... */\n    tag_195:\n        /* \"@openzeppelin/contracts@5.0.0/utils/cryptography/ECDSA.sol\":5266:5273  address */\n      0x00\n      dup1\n      dup1\n        /* \"@openzeppelin/contracts@5.0.0/utils/cryptography/ECDSA.sol\":6199:6265  0x7FFFFFFFFFFFFFFFFFFFFFFFFFFFFFFF5D576E7357A4501DDFE92F46681B20A0 */\n      0x7fffffffffffffffffffffffffffffff5d576e7357a4501ddfe92f46681b20a0\n        /* \"@openzeppelin/contracts@5.0.0/utils/cryptography/ECDSA.sol\":6186:6265  uint256(s) > 0x7FFFFFFFFFFFFFFFFFFFFFFFFFFFFFFF5D576E7357A4501DDFE92F46681B20A0 */\n      dup5\n      gt\n        /* \"@openzeppelin/contracts@5.0.0/utils/cryptography/ECDSA.sol\":6182:6346  if (uint256(s) > 0x7FFFFFFFFFFFFFFFFFFFFFFFFFFFFFFF5D576E7357A4501DDFE92F46681B20A0) {... */\n      iszero\n      tag_230\n      jumpi\n      pop\n        /* \"@openzeppelin/contracts@5.0.0/utils/cryptography/ECDSA.sol\":6297:6298  0 */\n      0x00\n      swap2\n      pop\n        /* \"@openzeppelin/contracts@5.0.0/utils/cryptography/ECDSA.sol\":6301:6331  RecoverError.InvalidSignatureS */\n      0x03\n      swap1\n      pop\n        /* \"@openzeppelin/contracts@5.0.0/utils/cryptography/ECDSA.sol\":6333:6334  s */\n      dup3\n        /* \"@openzeppelin/contracts@5.0.0/utils/cryptography/ECDSA.sol\":6281:6335  return (address(0), RecoverError.InvalidSignatureS, s) */\n      jump(tag_229)\n        /* \"@openzeppelin/contracts@5.0.0/utils/cryptography/ECDSA.sol\":6182:6346  if (uint256(s) > 0x7FFFFFFFFFFFFFFFFFFFFFFFFFFFFFFF5D576E7357A4501DDFE92F46681B20A0) {... */\n    tag_230:\n        /* \"@openzeppelin/contracts@5.0.0/utils/cryptography/ECDSA.sol\":6457:6481  ecrecover(hash, v, r, s) */\n      0x40\n      dup1\n      mload\n        /* \"@openzeppelin/contracts@5.0.0/utils/cryptography/ECDSA.sol\":6440:6454  address signer */\n      0x00\n        /* \"@openzeppelin/contracts@5.0.0/utils/cryptography/ECDSA.sol\":6457:6481  ecrecover(hash, v, r, s) */\n      dup1\n      dup3\n      mstore\n      0x20\n      dup3\n      add\n      dup1\n      dup5\n      mstore\n        /* \"#utility.yul\":7713:7738   */\n      dup11\n      swap1\n      mstore\n        /* \"#utility.yul\":7786:7790   */\n      0xff\n        /* \"#utility.yul\":7774:7791   */\n      dup10\n      and\n        /* \"#utility.yul\":7754:7772   */\n      swap3\n      dup3\n      add\n        /* \"#utility.yul\":7747:7792   */\n      swap3\n      swap1\n      swap3\n      mstore\n        /* \"#utility.yul\":7808:7826   */\n      0x60\n      dup2\n      add\n        /* \"#utility.yul\":7801:7835   */\n      dup8\n      swap1\n      mstore\n        /* \"#utility.yul\":7851:7869   */\n      0x80\n      dup2\n      add\n        /* \"#utility.yul\":7844:7878   */\n      dup7\n      swap1\n      mstore\n        /* \"@openzeppelin/contracts@5.0.0/utils/cryptography/ECDSA.sol\":6457:6481  ecrecover(hash, v, r, s) */\n      0x01\n      swap1\n        /* \"#utility.yul\":7685:7704   */\n      0xa0\n      add\n        /* \"@openzeppelin/contracts@5.0.0/utils/cryptography/ECDSA.sol\":6457:6481  ecrecover(hash, v, r, s) */\n      0x20\n      mload(0x40)\n      0x20\n      dup2\n      sub\n      swap1\n      dup1\n      dup5\n      sub\n      swap1\n      dup6\n      gas\n      staticcall\n      iszero\n      dup1\n      iszero\n      tag_234\n      jumpi\n      returndatasize\n      0x00\n      dup1\n      returndatacopy\n      revert(0x00, returndatasize)\n    tag_234:\n      pop\n      pop\n      mload(add(not(0x1f), mload(0x40)))\n      swap2\n      pop\n      pop\n      sub(shl(0xa0, 0x01), 0x01)\n        /* \"@openzeppelin/contracts@5.0.0/utils/cryptography/ECDSA.sol\":6495:6515  signer == address(0) */\n      dup2\n      and\n        /* \"@openzeppelin/contracts@5.0.0/utils/cryptography/ECDSA.sol\":6491:6604  if (signer == address(0)) {... */\n      tag_235\n      jumpi\n      pop\n        /* \"@openzeppelin/contracts@5.0.0/utils/cryptography/ECDSA.sol\":6547:6548  0 */\n      0x00\n      swap3\n      pop\n        /* \"@openzeppelin/contracts@5.0.0/utils/cryptography/ECDSA.sol\":6551:6580  RecoverError.InvalidSignature */\n      0x01\n      swap2\n      pop\n        /* \"@openzeppelin/contracts@5.0.0/utils/cryptography/ECDSA.sol\":6547:6548  0 */\n      dup3\n      swap1\n      pop\n        /* \"@openzeppelin/contracts@5.0.0/utils/cryptography/ECDSA.sol\":6531:6593  return (address(0), RecoverError.InvalidSignature, bytes32(0)) */\n      jump(tag_229)\n        /* \"@openzeppelin/contracts@5.0.0/utils/cryptography/ECDSA.sol\":6491:6604  if (signer == address(0)) {... */\n    tag_235:\n        /* \"@openzeppelin/contracts@5.0.0/utils/cryptography/ECDSA.sol\":6622:6628  signer */\n      swap3\n      pop\n        /* \"@openzeppelin/contracts@5.0.0/utils/cryptography/ECDSA.sol\":6630:6650  RecoverError.NoError */\n      0x00\n      swap2\n      pop\n      dup2\n      swap1\n      pop\n        /* \"@openzeppelin/contracts@5.0.0/utils/cryptography/ECDSA.sol\":5140:6670  function tryRecover(... */\n    tag_229:\n      swap5\n      pop\n      swap5\n      pop\n      swap5\n      swap2\n      pop\n      pop\n      jump\t// out\n        /* \"@openzeppelin/contracts@5.0.0/utils/cryptography/ECDSA.sol\":7196:7728  function _throwError(RecoverError error, bytes32 errorArg) private pure {... */\n    tag_197:\n        /* \"@openzeppelin/contracts@5.0.0/utils/cryptography/ECDSA.sol\":7291:7311  RecoverError.NoError */\n      0x00\n        /* \"@openzeppelin/contracts@5.0.0/utils/cryptography/ECDSA.sol\":7282:7287  error */\n      dup3\n        /* \"@openzeppelin/contracts@5.0.0/utils/cryptography/ECDSA.sol\":7282:7311  error == RecoverError.NoError */\n      0x03\n      dup2\n      gt\n      iszero\n      tag_241\n      jumpi\n      tag_241\n      tag_239\n      jump\t// in\n    tag_241:\n      sub\n        /* \"@openzeppelin/contracts@5.0.0/utils/cryptography/ECDSA.sol\":7278:7722  if (error == RecoverError.NoError) {... */\n      tag_242\n      jumpi\n        /* \"@openzeppelin/contracts@5.0.0/utils/cryptography/ECDSA.sol\":7196:7728  function _throwError(RecoverError error, bytes32 errorArg) private pure {... */\n      pop\n      pop\n      jump\t// out\n        /* \"@openzeppelin/contracts@5.0.0/utils/cryptography/ECDSA.sol\":7278:7722  if (error == RecoverError.NoError) {... */\n    tag_242:\n        /* \"@openzeppelin/contracts@5.0.0/utils/cryptography/ECDSA.sol\":7387:7416  RecoverError.InvalidSignature */\n      0x01\n        /* \"@openzeppelin/contracts@5.0.0/utils/cryptography/ECDSA.sol\":7378:7383  error */\n      dup3\n        /* \"@openzeppelin/contracts@5.0.0/utils/cryptography/ECDSA.sol\":7378:7416  error == RecoverError.InvalidSignature */\n      0x03\n      dup2\n      gt\n      iszero\n      tag_247\n      jumpi\n      tag_247\n      tag_239\n      jump\t// in\n    tag_247:\n      sub\n        /* \"@openzeppelin/contracts@5.0.0/utils/cryptography/ECDSA.sol\":7374:7722  if (error == RecoverError.InvalidSignature) {... */\n      tag_248\n      jumpi\n        /* \"@openzeppelin/contracts@5.0.0/utils/cryptography/ECDSA.sol\":7439:7462  ECDSAInvalidSignature() */\n      mload(0x40)\n      shl(0xe0, 0xf645eedf)\n      dup2\n      mstore\n      0x04\n      add\n      mload(0x40)\n      dup1\n      swap2\n      sub\n      swap1\n      revert\n        /* \"@openzeppelin/contracts@5.0.0/utils/cryptography/ECDSA.sol\":7374:7722  if (error == RecoverError.InvalidSignature) {... */\n    tag_248:\n        /* \"@openzeppelin/contracts@5.0.0/utils/cryptography/ECDSA.sol\":7492:7527  RecoverError.InvalidSignatureLength */\n      0x02\n        /* \"@openzeppelin/contracts@5.0.0/utils/cryptography/ECDSA.sol\":7483:7488  error */\n      dup3\n        /* \"@openzeppelin/contracts@5.0.0/utils/cryptography/ECDSA.sol\":7483:7527  error == RecoverError.InvalidSignatureLength */\n      0x03\n      dup2\n      gt\n      iszero\n      tag_253\n      jumpi\n      tag_253\n      tag_239\n      jump\t// in\n    tag_253:\n      sub\n        /* \"@openzeppelin/contracts@5.0.0/utils/cryptography/ECDSA.sol\":7479:7722  if (error == RecoverError.InvalidSignatureLength) {... */\n      tag_254\n      jumpi\n        /* \"@openzeppelin/contracts@5.0.0/utils/cryptography/ECDSA.sol\":7550:7596  ECDSAInvalidSignatureLength(uint256(errorArg)) */\n      mload(0x40)\n      shl(0xe0, 0xfce698f7)\n      dup2\n      mstore\n      0x04\n      dup2\n      add\n        /* \"#utility.yul\":1442:1467   */\n      dup3\n      swap1\n      mstore\n        /* \"#utility.yul\":1415:1433   */\n      0x24\n      add\n        /* \"@openzeppelin/contracts@5.0.0/utils/cryptography/ECDSA.sol\":7550:7596  ECDSAInvalidSignatureLength(uint256(errorArg)) */\n      tag_139\n        /* \"#utility.yul\":1296:1473   */\n      jump\n        /* \"@openzeppelin/contracts@5.0.0/utils/cryptography/ECDSA.sol\":7479:7722  if (error == RecoverError.InvalidSignatureLength) {... */\n    tag_254:\n        /* \"@openzeppelin/contracts@5.0.0/utils/cryptography/ECDSA.sol\":7626:7656  RecoverError.InvalidSignatureS */\n      0x03\n        /* \"@openzeppelin/contracts@5.0.0/utils/cryptography/ECDSA.sol\":7617:7622  error */\n      dup3\n        /* \"@openzeppelin/contracts@5.0.0/utils/cryptography/ECDSA.sol\":7617:7656  error == RecoverError.InvalidSignatureS */\n      0x03\n      dup2\n      gt\n      iszero\n      tag_260\n      jumpi\n      tag_260\n      tag_239\n      jump\t// in\n    tag_260:\n      sub\n        /* \"@openzeppelin/contracts@5.0.0/utils/cryptography/ECDSA.sol\":7613:7722  if (error == RecoverError.InvalidSignatureS) {... */\n      tag_115\n      jumpi\n        /* \"@openzeppelin/contracts@5.0.0/utils/cryptography/ECDSA.sol\":7679:7711  ECDSAInvalidSignatureS(errorArg) */\n      mload(0x40)\n      shl(0xe2, 0x35e2f383)\n      dup2\n      mstore\n      0x04\n      dup2\n      add\n        /* \"#utility.yul\":1442:1467   */\n      dup3\n      swap1\n      mstore\n        /* \"#utility.yul\":1415:1433   */\n      0x24\n      add\n        /* \"@openzeppelin/contracts@5.0.0/utils/cryptography/ECDSA.sol\":7679:7711  ECDSAInvalidSignatureS(errorArg) */\n      tag_139\n        /* \"#utility.yul\":1296:1473   */\n      jump\n        /* \"@openzeppelin/contracts@5.0.0/utils/ShortStrings.sol\":2078:2483  function toString(ShortString sstr) internal pure returns (string memory) {... */\n    tag_221:\n        /* \"@openzeppelin/contracts@5.0.0/utils/ShortStrings.sol\":2137:2150  string memory */\n      0x60\n        /* \"@openzeppelin/contracts@5.0.0/utils/ShortStrings.sol\":2162:2173  uint256 len */\n      0x00\n        /* \"@openzeppelin/contracts@5.0.0/utils/ShortStrings.sol\":2176:2192  byteLength(sstr) */\n      tag_264\n        /* \"@openzeppelin/contracts@5.0.0/utils/ShortStrings.sol\":2187:2191  sstr */\n      dup4\n        /* \"@openzeppelin/contracts@5.0.0/utils/ShortStrings.sol\":2176:2186  byteLength */\n      tag_265\n        /* \"@openzeppelin/contracts@5.0.0/utils/ShortStrings.sol\":2176:2192  byteLength(sstr) */\n      jump\t// in\n    tag_264:\n        /* \"@openzeppelin/contracts@5.0.0/utils/ShortStrings.sol\":2300:2314  new string(32) */\n      0x40\n      dup1\n      mload\n        /* \"@openzeppelin/contracts@5.0.0/utils/ShortStrings.sol\":2311:2313  32 */\n      0x20\n        /* \"@openzeppelin/contracts@5.0.0/utils/ShortStrings.sol\":2300:2314  new string(32) */\n      dup1\n      dup3\n      mstore\n      dup2\n      dup4\n      add\n      swap1\n      swap3\n      mstore\n        /* \"@openzeppelin/contracts@5.0.0/utils/ShortStrings.sol\":2162:2192  uint256 len = byteLength(sstr) */\n      swap2\n      swap3\n      pop\n        /* \"@openzeppelin/contracts@5.0.0/utils/ShortStrings.sol\":2280:2297  string memory str */\n      0x00\n      swap2\n        /* \"@openzeppelin/contracts@5.0.0/utils/ShortStrings.sol\":2300:2314  new string(32) */\n      swap1\n      0x20\n      dup3\n      add\n      dup2\n      dup1\n      calldatasize\n      dup4\n      calldatacopy\n      pop\n      pop\n      pop\n        /* \"@openzeppelin/contracts@5.0.0/utils/ShortStrings.sol\":2390:2406  mstore(str, len) */\n      swap2\n      dup3\n      mstore\n      pop\n        /* \"@openzeppelin/contracts@5.0.0/utils/ShortStrings.sol\":2435:2439  0x20 */\n      0x20\n        /* \"@openzeppelin/contracts@5.0.0/utils/ShortStrings.sol\":2426:2440  add(str, 0x20) */\n      dup2\n      add\n        /* \"@openzeppelin/contracts@5.0.0/utils/ShortStrings.sol\":2419:2447  mstore(add(str, 0x20), sstr) */\n      swap3\n      swap1\n      swap3\n      mstore\n      pop\n        /* \"@openzeppelin/contracts@5.0.0/utils/ShortStrings.sol\":2390:2406  mstore(str, len) */\n      swap1\n        /* \"@openzeppelin/contracts@5.0.0/utils/ShortStrings.sol\":2078:2483  function toString(ShortString sstr) internal pure returns (string memory) {... */\n      jump\t// out\n        /* \"@openzeppelin/contracts@5.0.0/utils/ShortStrings.sol\":2555:2800  function byteLength(ShortString sstr) internal pure returns (uint256) {... */\n    tag_265:\n        /* \"@openzeppelin/contracts@5.0.0/utils/ShortStrings.sol\":2616:2623  uint256 */\n      0x00\n        /* \"@openzeppelin/contracts@5.0.0/utils/ShortStrings.sol\":2688:2692  0xFF */\n      0xff\n        /* \"@openzeppelin/contracts@5.0.0/utils/ShortStrings.sol\":2652:2692  uint256(ShortString.unwrap(sstr)) & 0xFF */\n      dup3\n      and\n        /* \"@openzeppelin/contracts@5.0.0/utils/ShortStrings.sol\":2715:2717  31 */\n      0x1f\n        /* \"@openzeppelin/contracts@5.0.0/utils/ShortStrings.sol\":2706:2717  result > 31 */\n      dup2\n      gt\n        /* \"@openzeppelin/contracts@5.0.0/utils/ShortStrings.sol\":2702:2771  if (result > 31) {... */\n      iszero\n      tag_91\n      jumpi\n        /* \"@openzeppelin/contracts@5.0.0/utils/ShortStrings.sol\":2740:2760  InvalidShortString() */\n      mload(0x40)\n      shl(0xe2, 0x2cd44ac3)\n      dup2\n      mstore\n      0x04\n      add\n      mload(0x40)\n      dup1\n      swap2\n      sub\n      swap1\n      revert\n        /* \"#utility.yul\":14:437   */\n    tag_271:\n        /* \"#utility.yul\":56:59   */\n      0x00\n        /* \"#utility.yul\":94:99   */\n      dup2\n        /* \"#utility.yul\":88:100   */\n      mload\n        /* \"#utility.yul\":121:127   */\n      dup1\n        /* \"#utility.yul\":116:119   */\n      dup5\n        /* \"#utility.yul\":109:128   */\n      mstore\n        /* \"#utility.yul\":146:147   */\n      0x00\n        /* \"#utility.yul\":156:318   */\n    tag_275:\n        /* \"#utility.yul\":170:176   */\n      dup2\n        /* \"#utility.yul\":167:168   */\n      dup2\n        /* \"#utility.yul\":164:177   */\n      lt\n        /* \"#utility.yul\":156:318   */\n      iszero\n      tag_277\n      jumpi\n        /* \"#utility.yul\":232:236   */\n      0x20\n        /* \"#utility.yul\":288:301   */\n      dup2\n      dup6\n      add\n        /* \"#utility.yul\":284:306   */\n      dup2\n      add\n        /* \"#utility.yul\":278:307   */\n      mload\n        /* \"#utility.yul\":260:271   */\n      dup7\n      dup4\n      add\n        /* \"#utility.yul\":256:276   */\n      dup3\n      add\n        /* \"#utility.yul\":249:308   */\n      mstore\n        /* \"#utility.yul\":185:197   */\n      add\n        /* \"#utility.yul\":156:318   */\n      jump(tag_275)\n    tag_277:\n        /* \"#utility.yul\":160:163   */\n      pop\n        /* \"#utility.yul\":363:364   */\n      0x00\n        /* \"#utility.yul\":356:360   */\n      0x20\n        /* \"#utility.yul\":347:353   */\n      dup3\n        /* \"#utility.yul\":342:345   */\n      dup7\n        /* \"#utility.yul\":338:354   */\n      add\n        /* \"#utility.yul\":334:361   */\n      add\n        /* \"#utility.yul\":327:365   */\n      mstore\n        /* \"#utility.yul\":426:430   */\n      0x20\n        /* \"#utility.yul\":419:421   */\n      0x1f\n        /* \"#utility.yul\":415:422   */\n      not\n        /* \"#utility.yul\":410:412   */\n      0x1f\n        /* \"#utility.yul\":402:408   */\n      dup4\n        /* \"#utility.yul\":398:413   */\n      add\n        /* \"#utility.yul\":394:423   */\n      and\n        /* \"#utility.yul\":389:392   */\n      dup6\n        /* \"#utility.yul\":385:424   */\n      add\n        /* \"#utility.yul\":381:431   */\n      add\n        /* \"#utility.yul\":374:431   */\n      swap2\n      pop\n      pop\n        /* \"#utility.yul\":14:437   */\n      swap3\n      swap2\n      pop\n      pop\n      jump\t// out\n        /* \"#utility.yul\":442:662   */\n    tag_24:\n        /* \"#utility.yul\":591:593   */\n      0x20\n        /* \"#utility.yul\":580:589   */\n      dup2\n        /* \"#utility.yul\":573:594   */\n      mstore\n        /* \"#utility.yul\":554:558   */\n      0x00\n        /* \"#utility.yul\":611:656   */\n      tag_279\n        /* \"#utility.yul\":652:654   */\n      0x20\n        /* \"#utility.yul\":641:650   */\n      dup4\n        /* \"#utility.yul\":637:655   */\n      add\n        /* \"#utility.yul\":629:635   */\n      dup5\n        /* \"#utility.yul\":611:656   */\n      tag_271\n      jump\t// in\n    tag_279:\n        /* \"#utility.yul\":603:656   */\n      swap4\n        /* \"#utility.yul\":442:662   */\n      swap3\n      pop\n      pop\n      pop\n      jump\t// out\n        /* \"#utility.yul\":667:840   */\n    tag_272:\n        /* \"#utility.yul\":735:755   */\n      dup1\n      calldataload\n      sub(shl(0xa0, 0x01), 0x01)\n        /* \"#utility.yul\":784:815   */\n      dup2\n      and\n        /* \"#utility.yul\":774:816   */\n      dup2\n      eq\n        /* \"#utility.yul\":764:834   */\n      tag_281\n      jumpi\n        /* \"#utility.yul\":830:831   */\n      0x00\n        /* \"#utility.yul\":827:828   */\n      dup1\n        /* \"#utility.yul\":820:832   */\n      revert\n        /* \"#utility.yul\":764:834   */\n    tag_281:\n        /* \"#utility.yul\":667:840   */\n      swap2\n      swap1\n      pop\n      jump\t// out\n        /* \"#utility.yul\":845:1099   */\n    tag_27:\n        /* \"#utility.yul\":913:919   */\n      0x00\n        /* \"#utility.yul\":921:927   */\n      dup1\n        /* \"#utility.yul\":974:976   */\n      0x40\n        /* \"#utility.yul\":962:971   */\n      dup4\n        /* \"#utility.yul\":953:960   */\n      dup6\n        /* \"#utility.yul\":949:972   */\n      sub\n        /* \"#utility.yul\":945:977   */\n      slt\n        /* \"#utility.yul\":942:994   */\n      iszero\n      tag_283\n      jumpi\n        /* \"#utility.yul\":990:991   */\n      0x00\n        /* \"#utility.yul\":987:988   */\n      dup1\n        /* \"#utility.yul\":980:992   */\n      revert\n        /* \"#utility.yul\":942:994   */\n    tag_283:\n        /* \"#utility.yul\":1013:1042   */\n      tag_284\n        /* \"#utility.yul\":1032:1041   */\n      dup4\n        /* \"#utility.yul\":1013:1042   */\n      tag_272\n      jump\t// in\n    tag_284:\n        /* \"#utility.yul\":1003:1042   */\n      swap5\n        /* \"#utility.yul\":1089:1091   */\n      0x20\n        /* \"#utility.yul\":1074:1092   */\n      swap4\n      swap1\n      swap4\n      add\n        /* \"#utility.yul\":1061:1093   */\n      calldataload\n      swap4\n      pop\n      pop\n      pop\n        /* \"#utility.yul\":845:1099   */\n      jump\t// out\n        /* \"#utility.yul\":1478:1806   */\n    tag_37:\n        /* \"#utility.yul\":1555:1561   */\n      0x00\n        /* \"#utility.yul\":1563:1569   */\n      dup1\n        /* \"#utility.yul\":1571:1577   */\n      0x00\n        /* \"#utility.yul\":1624:1626   */\n      0x60\n        /* \"#utility.yul\":1612:1621   */\n      dup5\n        /* \"#utility.yul\":1603:1610   */\n      dup7\n        /* \"#utility.yul\":1599:1622   */\n      sub\n        /* \"#utility.yul\":1595:1627   */\n      slt\n        /* \"#utility.yul\":1592:1644   */\n      iszero\n      tag_288\n      jumpi\n        /* \"#utility.yul\":1640:1641   */\n      0x00\n        /* \"#utility.yul\":1637:1638   */\n      dup1\n        /* \"#utility.yul\":1630:1642   */\n      revert\n        /* \"#utility.yul\":1592:1644   */\n    tag_288:\n        /* \"#utility.yul\":1663:1692   */\n      tag_289\n        /* \"#utility.yul\":1682:1691   */\n      dup5\n        /* \"#utility.yul\":1663:1692   */\n      tag_272\n      jump\t// in\n    tag_289:\n        /* \"#utility.yul\":1653:1692   */\n      swap3\n      pop\n        /* \"#utility.yul\":1711:1749   */\n      tag_290\n        /* \"#utility.yul\":1745:1747   */\n      0x20\n        /* \"#utility.yul\":1734:1743   */\n      dup6\n        /* \"#utility.yul\":1730:1748   */\n      add\n        /* \"#utility.yul\":1711:1749   */\n      tag_272\n      jump\t// in\n    tag_290:\n        /* \"#utility.yul\":1701:1749   */\n      swap2\n      pop\n        /* \"#utility.yul\":1796:1798   */\n      0x40\n        /* \"#utility.yul\":1785:1794   */\n      dup5\n        /* \"#utility.yul\":1781:1799   */\n      add\n        /* \"#utility.yul\":1768:1800   */\n      calldataload\n        /* \"#utility.yul\":1758:1800   */\n      swap1\n      pop\n        /* \"#utility.yul\":1478:1806   */\n      swap3\n      pop\n      swap3\n      pop\n      swap3\n      jump\t// out\n        /* \"#utility.yul\":2182:2362   */\n    tag_50:\n        /* \"#utility.yul\":2241:2247   */\n      0x00\n        /* \"#utility.yul\":2294:2296   */\n      0x20\n        /* \"#utility.yul\":2282:2291   */\n      dup3\n        /* \"#utility.yul\":2273:2280   */\n      dup5\n        /* \"#utility.yul\":2269:2292   */\n      sub\n        /* \"#utility.yul\":2265:2297   */\n      slt\n        /* \"#utility.yul\":2262:2314   */\n      iszero\n      tag_294\n      jumpi\n        /* \"#utility.yul\":2310:2311   */\n      0x00\n        /* \"#utility.yul\":2307:2308   */\n      dup1\n        /* \"#utility.yul\":2300:2312   */\n      revert\n        /* \"#utility.yul\":2262:2314   */\n    tag_294:\n      pop\n        /* \"#utility.yul\":2333:2356   */\n      calldataload\n      swap2\n        /* \"#utility.yul\":2182:2362   */\n      swap1\n      pop\n      jump\t// out\n        /* \"#utility.yul\":2367:2553   */\n    tag_54:\n        /* \"#utility.yul\":2426:2432   */\n      0x00\n        /* \"#utility.yul\":2479:2481   */\n      0x20\n        /* \"#utility.yul\":2467:2476   */\n      dup3\n        /* \"#utility.yul\":2458:2465   */\n      dup5\n        /* \"#utility.yul\":2454:2477   */\n      sub\n        /* \"#utility.yul\":2450:2482   */\n      slt\n        /* \"#utility.yul\":2447:2499   */\n      iszero\n      tag_296\n      jumpi\n        /* \"#utility.yul\":2495:2496   */\n      0x00\n        /* \"#utility.yul\":2492:2493   */\n      dup1\n        /* \"#utility.yul\":2485:2497   */\n      revert\n        /* \"#utility.yul\":2447:2499   */\n    tag_296:\n        /* \"#utility.yul\":2518:2547   */\n      tag_279\n        /* \"#utility.yul\":2537:2546   */\n      dup3\n        /* \"#utility.yul\":2518:2547   */\n      tag_272\n      jump\t// in\n        /* \"#utility.yul\":2558:3817   */\n    tag_67:\n        /* \"#utility.yul\":2964:2967   */\n      0xff\n        /* \"#utility.yul\":2959:2962   */\n      0xf8\n        /* \"#utility.yul\":2955:2968   */\n      shl\n        /* \"#utility.yul\":2947:2953   */\n      dup9\n        /* \"#utility.yul\":2943:2969   */\n      and\n        /* \"#utility.yul\":2932:2941   */\n      dup2\n        /* \"#utility.yul\":2925:2970   */\n      mstore\n        /* \"#utility.yul\":2906:2910   */\n      0x00\n        /* \"#utility.yul\":2989:2991   */\n      0x20\n        /* \"#utility.yul\":3027:3030   */\n      0xe0\n        /* \"#utility.yul\":3022:3024   */\n      dup2\n        /* \"#utility.yul\":3011:3020   */\n      dup5\n        /* \"#utility.yul\":3007:3025   */\n      add\n        /* \"#utility.yul\":3000:3031   */\n      mstore\n        /* \"#utility.yul\":3054:3100   */\n      tag_299\n        /* \"#utility.yul\":3095:3098   */\n      0xe0\n        /* \"#utility.yul\":3084:3093   */\n      dup5\n        /* \"#utility.yul\":3080:3099   */\n      add\n        /* \"#utility.yul\":3072:3078   */\n      dup11\n        /* \"#utility.yul\":3054:3100   */\n      tag_271\n      jump\t// in\n    tag_299:\n        /* \"#utility.yul\":3148:3157   */\n      dup4\n        /* \"#utility.yul\":3140:3146   */\n      dup2\n        /* \"#utility.yul\":3136:3158   */\n      sub\n        /* \"#utility.yul\":3131:3133   */\n      0x40\n        /* \"#utility.yul\":3120:3129   */\n      dup6\n        /* \"#utility.yul\":3116:3134   */\n      add\n        /* \"#utility.yul\":3109:3159   */\n      mstore\n        /* \"#utility.yul\":3182:3215   */\n      tag_300\n        /* \"#utility.yul\":3208:3214   */\n      dup2\n        /* \"#utility.yul\":3200:3206   */\n      dup11\n        /* \"#utility.yul\":3182:3215   */\n      tag_271\n      jump\t// in\n    tag_300:\n        /* \"#utility.yul\":3246:3248   */\n      0x60\n        /* \"#utility.yul\":3231:3249   */\n      dup6\n      add\n        /* \"#utility.yul\":3224:3258   */\n      dup10\n      swap1\n      mstore\n      sub(shl(0xa0, 0x01), 0x01)\n        /* \"#utility.yul\":3295:3327   */\n      dup9\n      and\n        /* \"#utility.yul\":3289:3292   */\n      0x80\n        /* \"#utility.yul\":3274:3293   */\n      dup7\n      add\n        /* \"#utility.yul\":3267:3328   */\n      mstore\n        /* \"#utility.yul\":3315:3318   */\n      0xa0\n        /* \"#utility.yul\":3344:3363   */\n      dup6\n      add\n        /* \"#utility.yul\":3337:3372   */\n      dup8\n      swap1\n      mstore\n        /* \"#utility.yul\":3409:3431   */\n      dup5\n      dup2\n      sub\n        /* \"#utility.yul\":3403:3406   */\n      0xc0\n        /* \"#utility.yul\":3388:3407   */\n      dup7\n      add\n        /* \"#utility.yul\":3381:3432   */\n      mstore\n        /* \"#utility.yul\":3481:3494   */\n      dup6\n      mload\n        /* \"#utility.yul\":3503:3525   */\n      dup1\n      dup3\n      mstore\n        /* \"#utility.yul\":3579:3594   */\n      dup4\n      dup8\n      add\n      swap3\n      pop\n        /* \"#utility.yul\":3541:3556   */\n      swap1\n      dup4\n      add\n      swap1\n      0x00\n        /* \"#utility.yul\":3622:3791   */\n    tag_301:\n        /* \"#utility.yul\":3636:3642   */\n      dup2\n        /* \"#utility.yul\":3633:3634   */\n      dup2\n        /* \"#utility.yul\":3630:3643   */\n      lt\n        /* \"#utility.yul\":3622:3791   */\n      iszero\n      tag_303\n      jumpi\n        /* \"#utility.yul\":3697:3710   */\n      dup4\n      mload\n        /* \"#utility.yul\":3685:3711   */\n      dup4\n      mstore\n        /* \"#utility.yul\":3766:3781   */\n      swap3\n      dup5\n      add\n      swap3\n        /* \"#utility.yul\":3731:3743   */\n      swap2\n      dup5\n      add\n      swap2\n        /* \"#utility.yul\":3658:3659   */\n      0x01\n        /* \"#utility.yul\":3651:3660   */\n      add\n        /* \"#utility.yul\":3622:3791   */\n      jump(tag_301)\n    tag_303:\n      pop\n        /* \"#utility.yul\":3808:3811   */\n      swap1\n      swap13\n        /* \"#utility.yul\":2558:3817   */\n      swap12\n      pop\n      pop\n      pop\n      pop\n      pop\n      pop\n      pop\n      pop\n      pop\n      pop\n      pop\n      pop\n      jump\t// out\n        /* \"#utility.yul\":3822:4515   */\n    tag_77:\n        /* \"#utility.yul\":3933:3939   */\n      0x00\n        /* \"#utility.yul\":3941:3947   */\n      dup1\n        /* \"#utility.yul\":3949:3955   */\n      0x00\n        /* \"#utility.yul\":3957:3963   */\n      dup1\n        /* \"#utility.yul\":3965:3971   */\n      0x00\n        /* \"#utility.yul\":3973:3979   */\n      dup1\n        /* \"#utility.yul\":3981:3987   */\n      0x00\n        /* \"#utility.yul\":4034:4037   */\n      0xe0\n        /* \"#utility.yul\":4022:4031   */\n      dup9\n        /* \"#utility.yul\":4013:4020   */\n      dup11\n        /* \"#utility.yul\":4009:4032   */\n      sub\n        /* \"#utility.yul\":4005:4038   */\n      slt\n        /* \"#utility.yul\":4002:4055   */\n      iszero\n      tag_305\n      jumpi\n        /* \"#utility.yul\":4051:4052   */\n      0x00\n        /* \"#utility.yul\":4048:4049   */\n      dup1\n        /* \"#utility.yul\":4041:4053   */\n      revert\n        /* \"#utility.yul\":4002:4055   */\n    tag_305:\n        /* \"#utility.yul\":4074:4103   */\n      tag_306\n        /* \"#utility.yul\":4093:4102   */\n      dup9\n        /* \"#utility.yul\":4074:4103   */\n      tag_272\n      jump\t// in\n    tag_306:\n        /* \"#utility.yul\":4064:4103   */\n      swap7\n      pop\n        /* \"#utility.yul\":4122:4160   */\n      tag_307\n        /* \"#utility.yul\":4156:4158   */\n      0x20\n        /* \"#utility.yul\":4145:4154   */\n      dup10\n        /* \"#utility.yul\":4141:4159   */\n      add\n        /* \"#utility.yul\":4122:4160   */\n      tag_272\n      jump\t// in\n    tag_307:\n        /* \"#utility.yul\":4112:4160   */\n      swap6\n      pop\n        /* \"#utility.yul\":4207:4209   */\n      0x40\n        /* \"#utility.yul\":4196:4205   */\n      dup9\n        /* \"#utility.yul\":4192:4210   */\n      add\n        /* \"#utility.yul\":4179:4211   */\n      calldataload\n        /* \"#utility.yul\":4169:4211   */\n      swap5\n      pop\n        /* \"#utility.yul\":4258:4260   */\n      0x60\n        /* \"#utility.yul\":4247:4256   */\n      dup9\n        /* \"#utility.yul\":4243:4261   */\n      add\n        /* \"#utility.yul\":4230:4262   */\n      calldataload\n        /* \"#utility.yul\":4220:4262   */\n      swap4\n      pop\n        /* \"#utility.yul\":4312:4315   */\n      0x80\n        /* \"#utility.yul\":4301:4310   */\n      dup9\n        /* \"#utility.yul\":4297:4316   */\n      add\n        /* \"#utility.yul\":4284:4317   */\n      calldataload\n        /* \"#utility.yul\":4357:4361   */\n      0xff\n        /* \"#utility.yul\":4350:4355   */\n      dup2\n        /* \"#utility.yul\":4346:4362   */\n      and\n        /* \"#utility.yul\":4339:4344   */\n      dup2\n        /* \"#utility.yul\":4336:4363   */\n      eq\n        /* \"#utility.yul\":4326:4381   */\n      tag_308\n      jumpi\n        /* \"#utility.yul\":4377:4378   */\n      0x00\n        /* \"#utility.yul\":4374:4375   */\n      dup1\n        /* \"#utility.yul\":4367:4379   */\n      revert\n        /* \"#utility.yul\":4326:4381   */\n    tag_308:\n        /* \"#utility.yul\":3822:4515   */\n      swap7\n      swap10\n      swap6\n      swap9\n      pop\n      swap4\n      swap7\n      swap3\n      swap6\n        /* \"#utility.yul\":4400:4405   */\n      swap5\n        /* \"#utility.yul\":4452:4455   */\n      0xa0\n        /* \"#utility.yul\":4437:4456   */\n      dup5\n      add\n        /* \"#utility.yul\":4424:4457   */\n      calldataload\n      swap5\n      pop\n        /* \"#utility.yul\":4504:4507   */\n      0xc0\n        /* \"#utility.yul\":4489:4508   */\n      swap1\n      swap4\n      add\n        /* \"#utility.yul\":4476:4509   */\n      calldataload\n      swap3\n        /* \"#utility.yul\":3822:4515   */\n      swap2\n      pop\n      pop\n      jump\t// out\n        /* \"#utility.yul\":4520:4780   */\n    tag_81:\n        /* \"#utility.yul\":4588:4594   */\n      0x00\n        /* \"#utility.yul\":4596:4602   */\n      dup1\n        /* \"#utility.yul\":4649:4651   */\n      0x40\n        /* \"#utility.yul\":4637:4646   */\n      dup4\n        /* \"#utility.yul\":4628:4635   */\n      dup6\n        /* \"#utility.yul\":4624:4647   */\n      sub\n        /* \"#utility.yul\":4620:4652   */\n      slt\n        /* \"#utility.yul\":4617:4669   */\n      iszero\n      tag_310\n      jumpi\n        /* \"#utility.yul\":4665:4666   */\n      0x00\n        /* \"#utility.yul\":4662:4663   */\n      dup1\n        /* \"#utility.yul\":4655:4667   */\n      revert\n        /* \"#utility.yul\":4617:4669   */\n    tag_310:\n        /* \"#utility.yul\":4688:4717   */\n      tag_311\n        /* \"#utility.yul\":4707:4716   */\n      dup4\n        /* \"#utility.yul\":4688:4717   */\n      tag_272\n      jump\t// in\n    tag_311:\n        /* \"#utility.yul\":4678:4717   */\n      swap2\n      pop\n        /* \"#utility.yul\":4736:4774   */\n      tag_312\n        /* \"#utility.yul\":4770:4772   */\n      0x20\n        /* \"#utility.yul\":4759:4768   */\n      dup5\n        /* \"#utility.yul\":4755:4773   */\n      add\n        /* \"#utility.yul\":4736:4774   */\n      tag_272\n      jump\t// in\n    tag_312:\n        /* \"#utility.yul\":4726:4774   */\n      swap1\n      pop\n        /* \"#utility.yul\":4520:4780   */\n      swap3\n      pop\n      swap3\n      swap1\n      pop\n      jump\t// out\n        /* \"#utility.yul\":4785:5165   */\n    tag_86:\n        /* \"#utility.yul\":4864:4865   */\n      0x01\n        /* \"#utility.yul\":4860:4872   */\n      dup2\n      dup2\n      shr\n      swap1\n        /* \"#utility.yul\":4907:4919   */\n      dup3\n      and\n      dup1\n        /* \"#utility.yul\":4928:4989   */\n      tag_314\n      jumpi\n        /* \"#utility.yul\":4982:4986   */\n      0x7f\n        /* \"#utility.yul\":4974:4980   */\n      dup3\n        /* \"#utility.yul\":4970:4987   */\n      and\n        /* \"#utility.yul\":4960:4987   */\n      swap2\n      pop\n        /* \"#utility.yul\":4928:4989   */\n    tag_314:\n        /* \"#utility.yul\":5035:5037   */\n      0x20\n        /* \"#utility.yul\":5027:5033   */\n      dup3\n        /* \"#utility.yul\":5024:5038   */\n      lt\n        /* \"#utility.yul\":5004:5022   */\n      dup2\n        /* \"#utility.yul\":5001:5039   */\n      sub\n        /* \"#utility.yul\":4998:5159   */\n      tag_315\n      jumpi\n        /* \"#utility.yul\":5081:5091   */\n      0x4e487b71\n        /* \"#utility.yul\":5076:5079   */\n      0xe0\n        /* \"#utility.yul\":5072:5092   */\n      shl\n        /* \"#utility.yul\":5069:5070   */\n      0x00\n        /* \"#utility.yul\":5062:5093   */\n      mstore\n        /* \"#utility.yul\":5116:5120   */\n      0x22\n        /* \"#utility.yul\":5113:5114   */\n      0x04\n        /* \"#utility.yul\":5106:5121   */\n      mstore\n        /* \"#utility.yul\":5144:5148   */\n      0x24\n        /* \"#utility.yul\":5141:5142   */\n      0x00\n        /* \"#utility.yul\":5134:5149   */\n      revert\n        /* \"#utility.yul\":4998:5159   */\n    tag_315:\n      pop\n        /* \"#utility.yul\":4785:5165   */\n      swap2\n      swap1\n      pop\n      jump\t// out\n        /* \"#utility.yul\":6765:6987   */\n    tag_208:\n        /* \"#utility.yul\":6830:6839   */\n      dup1\n      dup3\n      add\n        /* \"#utility.yul\":6851:6861   */\n      dup1\n      dup3\n      gt\n        /* \"#utility.yul\":6848:6981   */\n      iszero\n      tag_91\n      jumpi\n        /* \"#utility.yul\":6903:6913   */\n      0x4e487b71\n        /* \"#utility.yul\":6898:6901   */\n      0xe0\n        /* \"#utility.yul\":6894:6914   */\n      shl\n        /* \"#utility.yul\":6891:6892   */\n      0x00\n        /* \"#utility.yul\":6884:6915   */\n      mstore\n        /* \"#utility.yul\":6938:6942   */\n      0x11\n        /* \"#utility.yul\":6935:6936   */\n      0x04\n        /* \"#utility.yul\":6928:6943   */\n      mstore\n        /* \"#utility.yul\":6966:6970   */\n      0x24\n        /* \"#utility.yul\":6963:6964   */\n      0x00\n        /* \"#utility.yul\":6956:6971   */\n      revert\n        /* \"#utility.yul\":7889:8016   */\n    tag_239:\n        /* \"#utility.yul\":7950:7960   */\n      0x4e487b71\n        /* \"#utility.yul\":7945:7948   */\n      0xe0\n        /* \"#utility.yul\":7941:7961   */\n      shl\n        /* \"#utility.yul\":7938:7939   */\n      0x00\n        /* \"#utility.yul\":7931:7962   */\n      mstore\n        /* \"#utility.yul\":7981:7985   */\n      0x21\n        /* \"#utility.yul\":7978:7979   */\n      0x04\n        /* \"#utility.yul\":7971:7986   */\n      mstore\n        /* \"#utility.yul\":8005:8009   */\n      0x24\n        /* \"#utility.yul\":8002:8003   */\n      0x00\n        /* \"#utility.yul\":7995:8010   */\n      revert\n\n    auxdata: 0xa26469706673582212204abcf217a6b3f3caf3d6b71391b85d1eede317e7fe809e7b47d1312c0ee0509364736f6c63430008130033\n}\n",
				"bytecode": {
					"linkReferences": {},
					"object": "6101606040523480156200001257600080fd5b506040518060400160405280600b81526020016a4d6f6f6c6168766572736560a81b81525080604051806040016040528060018152602001603160f81b8152506040518060400160405280600b81526020016a4d6f6f6c6168766572736560a81b8152506040518060400160405280600381526020016209a98960eb1b8152508160039081620000a3919062000432565b506004620000b2828262000432565b50620000c4915083905060056200019c565b61012052620000d58160066200019c565b61014052815160208084019190912060e052815190820120610100524660a0526200016360e05161010051604080517f8b73c3c69bb8fe3d512ecc4cf759cc79239f7b179b0ffacaa9a75d522b39400f60208201529081019290925260608201524660808201523060a082015260009060c00160405160208183030381529060405280519060200120905090565b60805250503060c052506200019633620001806012600a62000611565b6200019090633b9aca0062000629565b620001d5565b620006ce565b6000602083511015620001bc57620001b48362000217565b9050620001cf565b81620001c9848262000432565b5060ff90505b92915050565b6001600160a01b038216620002055760405163ec442f0560e01b8152600060048201526024015b60405180910390fd5b62000213600083836200025a565b5050565b600080829050601f8151111562000245578260405163305a27a960e01b8152600401620001fc919062000643565b8051620002528262000693565b179392505050565b6001600160a01b038316620002895780600260008282546200027d9190620006b8565b90915550620002fd9050565b6001600160a01b03831660009081526020819052604090205481811015620002de5760405163391434e360e21b81526001600160a01b03851660048201526024810182905260448101839052606401620001fc565b6001600160a01b03841660009081526020819052604090209082900390555b6001600160a01b0382166200031b576002805482900390556200033a565b6001600160a01b03821660009081526020819052604090208054820190555b816001600160a01b0316836001600160a01b03167fddf252ad1be2c89b69c2b068fc378daa952ba7f163c4a11628f55a4df523b3ef836040516200038091815260200190565b60405180910390a3505050565b634e487b7160e01b600052604160045260246000fd5b600181811c90821680620003b857607f821691505b602082108103620003d957634e487b7160e01b600052602260045260246000fd5b50919050565b601f8211156200042d57600081815260208120601f850160051c81016020861015620004085750805b601f850160051c820191505b81811015620004295782815560010162000414565b5050505b505050565b81516001600160401b038111156200044e576200044e6200038d565b62000466816200045f8454620003a3565b84620003df565b602080601f8311600181146200049e5760008415620004855750858301515b600019600386901b1c1916600185901b17855562000429565b600085815260208120601f198616915b82811015620004cf57888601518255948401946001909101908401620004ae565b5085821015620004ee5787850151600019600388901b60f8161c191681555b5050505050600190811b01905550565b634e487b7160e01b600052601160045260246000fd5b600181815b8085111562000555578160001904821115620005395762000539620004fe565b808516156200054757918102915b93841c939080029062000519565b509250929050565b6000826200056e57506001620001cf565b816200057d57506000620001cf565b8160018114620005965760028114620005a157620005c1565b6001915050620001cf565b60ff841115620005b557620005b5620004fe565b50506001821b620001cf565b5060208310610133831016604e8410600b8410161715620005e6575081810a620001cf565b620005f2838362000514565b8060001904821115620006095762000609620004fe565b029392505050565b60006200062260ff8416836200055d565b9392505050565b8082028115828204841417620001cf57620001cf620004fe565b600060208083528351808285015260005b81811015620006725785810183015185820160400152820162000654565b506000604082860101526040601f19601f8301168501019250505092915050565b80516020808301519190811015620003d95760001960209190910360031b1b16919050565b80820180821115620001cf57620001cf620004fe565b60805160a05160c05160e051610100516101205161014051610fb96200072960003960006107a601526000610779015260006106eb015260006106c30152600061061e01526000610648015260006106720152610fb96000f3fe608060405234801561001057600080fd5b50600436106100f55760003560e01c806370a082311161009757806395d89b411161006657806395d89b41146101f6578063a9059cbb146101fe578063d505accf14610211578063dd62ed3e1461022457600080fd5b806370a082311461018c57806379cc6790146101b55780637ecebe00146101c857806384b0196e146101db57600080fd5b806323b872dd116100d357806323b872dd1461014d578063313ce567146101605780633644e5151461016f57806342966c681461017757600080fd5b806306fdde03146100fa578063095ea7b31461011857806318160ddd1461013b575b600080fd5b61010261025d565b60405161010f9190610d06565b60405180910390f35b61012b610126366004610d3c565b6102ef565b604051901515815260200161010f565b6002545b60405190815260200161010f565b61012b61015b366004610d66565b610309565b6040516012815260200161010f565b61013f61032d565b61018a610185366004610da2565b61033c565b005b61013f61019a366004610dbb565b6001600160a01b031660009081526020819052604090205490565b61018a6101c3366004610d3c565b610349565b61013f6101d6366004610dbb565b610362565b6101e3610380565b60405161010f9796959493929190610dd6565b6101026103c6565b61012b61020c366004610d3c565b6103d5565b61018a61021f366004610e6c565b6103e3565b61013f610232366004610edf565b6001600160a01b03918216600090815260016020908152604080832093909416825291909152205490565b60606003805461026c90610f12565b80601f016020809104026020016040519081016040528092919081815260200182805461029890610f12565b80156102e55780601f106102ba576101008083540402835291602001916102e5565b820191906000526020600020905b8154815290600101906020018083116102c857829003601f168201915b5050505050905090565b6000336102fd818585610522565b60019150505b92915050565b600033610317858285610534565b6103228585856105b2565b506001949350505050565b6000610337610611565b905090565b610346338261073c565b50565b610354823383610534565b61035e828261073c565b5050565b6001600160a01b038116600090815260076020526040812054610303565b600060608060008060006060610394610772565b61039c61079f565b60408051600080825260208201909252600f60f81b9b939a50919850469750309650945092509050565b60606004805461026c90610f12565b6000336102fd8185856105b2565b8342111561040c5760405163313c898160e11b8152600481018590526024015b60405180910390fd5b60007f6e71edae12b1b97f4d1f60370fef10105fa2faae0126114a169c64845d6126c98888886104598c6001600160a01b0316600090815260076020526040902080546001810190915590565b6040805160208101969096526001600160a01b0394851690860152929091166060840152608083015260a082015260c0810186905260e00160405160208183030381529060405280519060200120905060006104b4826107cc565b905060006104c4828787876107f9565b9050896001600160a01b0316816001600160a01b03161461050b576040516325c0072360e11b81526001600160a01b0380831660048301528b166024820152604401610403565b6105168a8a8a610522565b50505050505050505050565b61052f8383836001610827565b505050565b6001600160a01b0383811660009081526001602090815260408083209386168352929052205460001981146105ac578181101561059d57604051637dc7a0d960e11b81526001600160a01b03841660048201526024810182905260448101839052606401610403565b6105ac84848484036000610827565b50505050565b6001600160a01b0383166105dc57604051634b637e8f60e11b815260006004820152602401610403565b6001600160a01b0382166106065760405163ec442f0560e01b815260006004820152602401610403565b61052f8383836108fc565b6000306001600160a01b037f00000000000000000000000000000000000000000000000000000000000000001614801561066a57507f000000000000000000000000000000000000000000000000000000000000000046145b1561069457507f000000000000000000000000000000000000000000000000000000000000000090565b610337604080517f8b73c3c69bb8fe3d512ecc4cf759cc79239f7b179b0ffacaa9a75d522b39400f60208201527f0000000000000000000000000000000000000000000000000000000000000000918101919091527f000000000000000000000000000000000000000000000000000000000000000060608201524660808201523060a082015260009060c00160405160208183030381529060405280519060200120905090565b6001600160a01b03821661076657604051634b637e8f60e11b815260006004820152602401610403565b61035e826000836108fc565b60606103377f00000000000000000000000000000000000000000000000000000000000000006005610a26565b60606103377f00000000000000000000000000000000000000000000000000000000000000006006610a26565b60006103036107d9610611565b8360405161190160f01b8152600281019290925260228201526042902090565b60008060008061080b88888888610ad1565b92509250925061081b8282610ba0565b50909695505050505050565b6001600160a01b0384166108515760405163e602df0560e01b815260006004820152602401610403565b6001600160a01b03831661087b57604051634a1406b160e11b815260006004820152602401610403565b6001600160a01b03808516600090815260016020908152604080832093871683529290522082905580156105ac57826001600160a01b0316846001600160a01b03167f8c5be1e5ebec7d5bd14f71427d1e84f3dd0314c0f7b2291e5b200ac8c7c3b925846040516108ee91815260200190565b60405180910390a350505050565b6001600160a01b03831661092757806002600082825461091c9190610f4c565b909155506109999050565b6001600160a01b0383166000908152602081905260409020548181101561097a5760405163391434e360e21b81526001600160a01b03851660048201526024810182905260448101839052606401610403565b6001600160a01b03841660009081526020819052604090209082900390555b6001600160a01b0382166109b5576002805482900390556109d4565b6001600160a01b03821660009081526020819052604090208054820190555b816001600160a01b0316836001600160a01b03167fddf252ad1be2c89b69c2b068fc378daa952ba7f163c4a11628f55a4df523b3ef83604051610a1991815260200190565b60405180910390a3505050565b606060ff8314610a4057610a3983610c59565b9050610303565b818054610a4c90610f12565b80601f0160208091040260200160405190810160405280929190818152602001828054610a7890610f12565b8015610ac55780601f10610a9a57610100808354040283529160200191610ac5565b820191906000526020600020905b815481529060010190602001808311610aa857829003601f168201915b50505050509050610303565b600080807f7fffffffffffffffffffffffffffffff5d576e7357a4501ddfe92f46681b20a0841115610b0c5750600091506003905082610b96565b604080516000808252602082018084528a905260ff891692820192909252606081018790526080810186905260019060a0016020604051602081039080840390855afa158015610b60573d6000803e3d6000fd5b5050604051601f1901519150506001600160a01b038116610b8c57506000925060019150829050610b96565b9250600091508190505b9450945094915050565b6000826003811115610bb457610bb4610f6d565b03610bbd575050565b6001826003811115610bd157610bd1610f6d565b03610bef5760405163f645eedf60e01b815260040160405180910390fd5b6002826003811115610c0357610c03610f6d565b03610c245760405163fce698f760e01b815260048101829052602401610403565b6003826003811115610c3857610c38610f6d565b0361035e576040516335e2f38360e21b815260048101829052602401610403565b60606000610c6683610c98565b604080516020808252818301909252919250600091906020820181803683375050509182525060208101929092525090565b600060ff8216601f81111561030357604051632cd44ac360e21b815260040160405180910390fd5b6000815180845260005b81811015610ce657602081850181015186830182015201610cca565b506000602082860101526020601f19601f83011685010191505092915050565b602081526000610d196020830184610cc0565b9392505050565b80356001600160a01b0381168114610d3757600080fd5b919050565b60008060408385031215610d4f57600080fd5b610d5883610d20565b946020939093013593505050565b600080600060608486031215610d7b57600080fd5b610d8484610d20565b9250610d9260208501610d20565b9150604084013590509250925092565b600060208284031215610db457600080fd5b5035919050565b600060208284031215610dcd57600080fd5b610d1982610d20565b60ff60f81b881681526000602060e081840152610df660e084018a610cc0565b8381036040850152610e08818a610cc0565b606085018990526001600160a01b038816608086015260a0850187905284810360c0860152855180825283870192509083019060005b81811015610e5a57835183529284019291840191600101610e3e565b50909c9b505050505050505050505050565b600080600080600080600060e0888a031215610e8757600080fd5b610e9088610d20565b9650610e9e60208901610d20565b95506040880135945060608801359350608088013560ff81168114610ec257600080fd5b9699959850939692959460a0840135945060c09093013592915050565b60008060408385031215610ef257600080fd5b610efb83610d20565b9150610f0960208401610d20565b90509250929050565b600181811c90821680610f2657607f821691505b602082108103610f4657634e487b7160e01b600052602260045260246000fd5b50919050565b8082018082111561030357634e487b7160e01b600052601160045260246000fd5b634e487b7160e01b600052602160045260246000fdfea26469706673582212204abcf217a6b3f3caf3d6b71391b85d1eede317e7fe809e7b47d1312c0ee0509364736f6c63430008130033",
					"opcodes": "PUSH2 0x160 PUSH1 0x40 MSTORE CALLVALUE DUP1 ISZERO PUSH3 0x12 JUMPI PUSH1 0x0 DUP1 REVERT JUMPDEST POP PUSH1 0x40 MLOAD DUP1 PUSH1 0x40 ADD PUSH1 0x40 MSTORE DUP1 PUSH1 0xB DUP2 MSTORE PUSH1 0x20 ADD PUSH11 0x4D6F6F6C61687665727365 PUSH1 0xA8 SHL DUP2 MSTORE POP DUP1 PUSH1 0x40 MLOAD DUP1 PUSH1 0x40 ADD PUSH1 0x40 MSTORE DUP1 PUSH1 0x1 DUP2 MSTORE PUSH1 0x20 ADD PUSH1 0x31 PUSH1 0xF8 SHL DUP2 MSTORE POP PUSH1 0x40 MLOAD DUP1 PUSH1 0x40 ADD PUSH1 0x40 MSTORE DUP1 PUSH1 0xB DUP2 MSTORE PUSH1 0x20 ADD PUSH11 0x4D6F6F6C61687665727365 PUSH1 0xA8 SHL DUP2 MSTORE POP PUSH1 0x40 MLOAD DUP1 PUSH1 0x40 ADD PUSH1 0x40 MSTORE DUP1 PUSH1 0x3 DUP2 MSTORE PUSH1 0x20 ADD PUSH3 0x9A989 PUSH1 0xEB SHL DUP2 MSTORE POP DUP2 PUSH1 0x3 SWAP1 DUP2 PUSH3 0xA3 SWAP2 SWAP1 PUSH3 0x432 JUMP JUMPDEST POP PUSH1 0x4 PUSH3 0xB2 DUP3 DUP3 PUSH3 0x432 JUMP JUMPDEST POP PUSH3 0xC4 SWAP2 POP DUP4 SWAP1 POP PUSH1 0x5 PUSH3 0x19C JUMP JUMPDEST PUSH2 0x120 MSTORE PUSH3 0xD5 DUP2 PUSH1 0x6 PUSH3 0x19C JUMP JUMPDEST PUSH2 0x140 MSTORE DUP2 MLOAD PUSH1 0x20 DUP1 DUP5 ADD SWAP2 SWAP1 SWAP2 KECCAK256 PUSH1 0xE0 MSTORE DUP2 MLOAD SWAP1 DUP3 ADD KECCAK256 PUSH2 0x100 MSTORE CHAINID PUSH1 0xA0 MSTORE PUSH3 0x163 PUSH1 0xE0 MLOAD PUSH2 0x100 MLOAD PUSH1 0x40 DUP1 MLOAD PUSH32 0x8B73C3C69BB8FE3D512ECC4CF759CC79239F7B179B0FFACAA9A75D522B39400F PUSH1 0x20 DUP3 ADD MSTORE SWAP1 DUP2 ADD SWAP3 SWAP1 SWAP3 MSTORE PUSH1 0x60 DUP3 ADD MSTORE CHAINID PUSH1 0x80 DUP3 ADD MSTORE ADDRESS PUSH1 0xA0 DUP3 ADD MSTORE PUSH1 0x0 SWAP1 PUSH1 0xC0 ADD PUSH1 0x40 MLOAD PUSH1 0x20 DUP2 DUP4 SUB SUB DUP2 MSTORE SWAP1 PUSH1 0x40 MSTORE DUP1 MLOAD SWAP1 PUSH1 0x20 ADD KECCAK256 SWAP1 POP SWAP1 JUMP JUMPDEST PUSH1 0x80 MSTORE POP POP ADDRESS PUSH1 0xC0 MSTORE POP PUSH3 0x196 CALLER PUSH3 0x180 PUSH1 0x12 PUSH1 0xA PUSH3 0x611 JUMP JUMPDEST PUSH3 0x190 SWAP1 PUSH4 0x3B9ACA00 PUSH3 0x629 JUMP JUMPDEST PUSH3 0x1D5 JUMP JUMPDEST PUSH3 0x6CE JUMP JUMPDEST PUSH1 0x0 PUSH1 0x20 DUP4 MLOAD LT ISZERO PUSH3 0x1BC JUMPI PUSH3 0x1B4 DUP4 PUSH3 0x217 JUMP JUMPDEST SWAP1 POP PUSH3 0x1CF JUMP JUMPDEST DUP2 PUSH3 0x1C9 DUP5 DUP3 PUSH3 0x432 JUMP JUMPDEST POP PUSH1 0xFF SWAP1 POP JUMPDEST SWAP3 SWAP2 POP POP JUMP JUMPDEST PUSH1 0x1 PUSH1 0x1 PUSH1 0xA0 SHL SUB DUP3 AND PUSH3 0x205 JUMPI PUSH1 0x40 MLOAD PUSH4 0xEC442F05 PUSH1 0xE0 SHL DUP2 MSTORE PUSH1 0x0 PUSH1 0x4 DUP3 ADD MSTORE PUSH1 0x24 ADD JUMPDEST PUSH1 0x40 MLOAD DUP1 SWAP2 SUB SWAP1 REVERT JUMPDEST PUSH3 0x213 PUSH1 0x0 DUP4 DUP4 PUSH3 0x25A JUMP JUMPDEST POP POP JUMP JUMPDEST PUSH1 0x0 DUP1 DUP3 SWAP1 POP PUSH1 0x1F DUP2 MLOAD GT ISZERO PUSH3 0x245 JUMPI DUP3 PUSH1 0x40 MLOAD PUSH4 0x305A27A9 PUSH1 0xE0 SHL DUP2 MSTORE PUSH1 0x4 ADD PUSH3 0x1FC SWAP2 SWAP1 PUSH3 0x643 JUMP JUMPDEST DUP1 MLOAD PUSH3 0x252 DUP3 PUSH3 0x693 JUMP JUMPDEST OR SWAP4 SWAP3 POP POP POP JUMP JUMPDEST PUSH1 0x1 PUSH1 0x1 PUSH1 0xA0 SHL SUB DUP4 AND PUSH3 0x289 JUMPI DUP1 PUSH1 0x2 PUSH1 0x0 DUP3 DUP3 SLOAD PUSH3 0x27D SWAP2 SWAP1 PUSH3 0x6B8 JUMP JUMPDEST SWAP1 SWAP2 SSTORE POP PUSH3 0x2FD SWAP1 POP JUMP JUMPDEST PUSH1 0x1 PUSH1 0x1 PUSH1 0xA0 SHL SUB DUP4 AND PUSH1 0x0 SWAP1 DUP2 MSTORE PUSH1 0x20 DUP2 SWAP1 MSTORE PUSH1 0x40 SWAP1 KECCAK256 SLOAD DUP2 DUP2 LT ISZERO PUSH3 0x2DE JUMPI PUSH1 0x40 MLOAD PUSH4 0x391434E3 PUSH1 0xE2 SHL DUP2 MSTORE PUSH1 0x1 PUSH1 0x1 PUSH1 0xA0 SHL SUB DUP6 AND PUSH1 0x4 DUP3 ADD MSTORE PUSH1 0x24 DUP2 ADD DUP3 SWAP1 MSTORE PUSH1 0x44 DUP2 ADD DUP4 SWAP1 MSTORE PUSH1 0x64 ADD PUSH3 0x1FC JUMP JUMPDEST PUSH1 0x1 PUSH1 0x1 PUSH1 0xA0 SHL SUB DUP5 AND PUSH1 0x0 SWAP1 DUP2 MSTORE PUSH1 0x20 DUP2 SWAP1 MSTORE PUSH1 0x40 SWAP1 KECCAK256 SWAP1 DUP3 SWAP1 SUB SWAP1 SSTORE JUMPDEST PUSH1 0x1 PUSH1 0x1 PUSH1 0xA0 SHL SUB DUP3 AND PUSH3 0x31B JUMPI PUSH1 0x2 DUP1 SLOAD DUP3 SWAP1 SUB SWAP1 SSTORE PUSH3 0x33A JUMP JUMPDEST PUSH1 0x1 PUSH1 0x1 PUSH1 0xA0 SHL SUB DUP3 AND PUSH1 0x0 SWAP1 DUP2 MSTORE PUSH1 0x20 DUP2 SWAP1 MSTORE PUSH1 0x40 SWAP1 KECCAK256 DUP1 SLOAD DUP3 ADD SWAP1 SSTORE JUMPDEST DUP2 PUSH1 0x1 PUSH1 0x1 PUSH1 0xA0 SHL SUB AND DUP4 PUSH1 0x1 PUSH1 0x1 PUSH1 0xA0 SHL SUB AND PUSH32 0xDDF252AD1BE2C89B69C2B068FC378DAA952BA7F163C4A11628F55A4DF523B3EF DUP4 PUSH1 0x40 MLOAD PUSH3 0x380 SWAP2 DUP2 MSTORE PUSH1 0x20 ADD SWAP1 JUMP JUMPDEST PUSH1 0x40 MLOAD DUP1 SWAP2 SUB SWAP1 LOG3 POP POP POP JUMP JUMPDEST PUSH4 0x4E487B71 PUSH1 0xE0 SHL PUSH1 0x0 MSTORE PUSH1 0x41 PUSH1 0x4 MSTORE PUSH1 0x24 PUSH1 0x0 REVERT JUMPDEST PUSH1 0x1 DUP2 DUP2 SHR SWAP1 DUP3 AND DUP1 PUSH3 0x3B8 JUMPI PUSH1 0x7F DUP3 AND SWAP2 POP JUMPDEST PUSH1 0x20 DUP3 LT DUP2 SUB PUSH3 0x3D9 JUMPI PUSH4 0x4E487B71 PUSH1 0xE0 SHL PUSH1 0x0 MSTORE PUSH1 0x22 PUSH1 0x4 MSTORE PUSH1 0x24 PUSH1 0x0 REVERT JUMPDEST POP SWAP2 SWAP1 POP JUMP JUMPDEST PUSH1 0x1F DUP3 GT ISZERO PUSH3 0x42D JUMPI PUSH1 0x0 DUP2 DUP2 MSTORE PUSH1 0x20 DUP2 KECCAK256 PUSH1 0x1F DUP6 ADD PUSH1 0x5 SHR DUP2 ADD PUSH1 0x20 DUP7 LT ISZERO PUSH3 0x408 JUMPI POP DUP1 JUMPDEST PUSH1 0x1F DUP6 ADD PUSH1 0x5 SHR DUP3 ADD SWAP2 POP JUMPDEST DUP2 DUP2 LT ISZERO PUSH3 0x429 JUMPI DUP3 DUP2 SSTORE PUSH1 0x1 ADD PUSH3 0x414 JUMP JUMPDEST POP POP POP JUMPDEST POP POP POP JUMP JUMPDEST DUP2 MLOAD PUSH1 0x1 PUSH1 0x1 PUSH1 0x40 SHL SUB DUP2 GT ISZERO PUSH3 0x44E JUMPI PUSH3 0x44E PUSH3 0x38D JUMP JUMPDEST PUSH3 0x466 DUP2 PUSH3 0x45F DUP5 SLOAD PUSH3 0x3A3 JUMP JUMPDEST DUP5 PUSH3 0x3DF JUMP JUMPDEST PUSH1 0x20 DUP1 PUSH1 0x1F DUP4 GT PUSH1 0x1 DUP2 EQ PUSH3 0x49E JUMPI PUSH1 0x0 DUP5 ISZERO PUSH3 0x485 JUMPI POP DUP6 DUP4 ADD MLOAD JUMPDEST PUSH1 0x0 NOT PUSH1 0x3 DUP7 SWAP1 SHL SHR NOT AND PUSH1 0x1 DUP6 SWAP1 SHL OR DUP6 SSTORE PUSH3 0x429 JUMP JUMPDEST PUSH1 0x0 DUP6 DUP2 MSTORE PUSH1 0x20 DUP2 KECCAK256 PUSH1 0x1F NOT DUP7 AND SWAP2 JUMPDEST DUP3 DUP2 LT ISZERO PUSH3 0x4CF JUMPI DUP9 DUP7 ADD MLOAD DUP3 SSTORE SWAP5 DUP5 ADD SWAP5 PUSH1 0x1 SWAP1 SWAP2 ADD SWAP1 DUP5 ADD PUSH3 0x4AE JUMP JUMPDEST POP DUP6 DUP3 LT ISZERO PUSH3 0x4EE JUMPI DUP8 DUP6 ADD MLOAD PUSH1 0x0 NOT PUSH1 0x3 DUP9 SWAP1 SHL PUSH1 0xF8 AND SHR NOT AND DUP2 SSTORE JUMPDEST POP POP POP POP POP PUSH1 0x1 SWAP1 DUP2 SHL ADD SWAP1 SSTORE POP JUMP JUMPDEST PUSH4 0x4E487B71 PUSH1 0xE0 SHL PUSH1 0x0 MSTORE PUSH1 0x11 PUSH1 0x4 MSTORE PUSH1 0x24 PUSH1 0x0 REVERT JUMPDEST PUSH1 0x1 DUP2 DUP2 JUMPDEST DUP1 DUP6 GT ISZERO PUSH3 0x555 JUMPI DUP2 PUSH1 0x0 NOT DIV DUP3 GT ISZERO PUSH3 0x539 JUMPI PUSH3 0x539 PUSH3 0x4FE JUMP JUMPDEST DUP1 DUP6 AND ISZERO PUSH3 0x547 JUMPI SWAP2 DUP2 MUL SWAP2 JUMPDEST SWAP4 DUP5 SHR SWAP4 SWAP1 DUP1 MUL SWAP1 PUSH3 0x519 JUMP JUMPDEST POP SWAP3 POP SWAP3 SWAP1 POP JUMP JUMPDEST PUSH1 0x0 DUP3 PUSH3 0x56E JUMPI POP PUSH1 0x1 PUSH3 0x1CF JUMP JUMPDEST DUP2 PUSH3 0x57D JUMPI POP PUSH1 0x0 PUSH3 0x1CF JUMP JUMPDEST DUP2 PUSH1 0x1 DUP2 EQ PUSH3 0x596 JUMPI PUSH1 0x2 DUP2 EQ PUSH3 0x5A1 JUMPI PUSH3 0x5C1 JUMP JUMPDEST PUSH1 0x1 SWAP2 POP POP PUSH3 0x1CF JUMP JUMPDEST PUSH1 0xFF DUP5 GT ISZERO PUSH3 0x5B5 JUMPI PUSH3 0x5B5 PUSH3 0x4FE JUMP JUMPDEST POP POP PUSH1 0x1 DUP3 SHL PUSH3 0x1CF JUMP JUMPDEST POP PUSH1 0x20 DUP4 LT PUSH2 0x133 DUP4 LT AND PUSH1 0x4E DUP5 LT PUSH1 0xB DUP5 LT AND OR ISZERO PUSH3 0x5E6 JUMPI POP DUP2 DUP2 EXP PUSH3 0x1CF JUMP JUMPDEST PUSH3 0x5F2 DUP4 DUP4 PUSH3 0x514 JUMP JUMPDEST DUP1 PUSH1 0x0 NOT DIV DUP3 GT ISZERO PUSH3 0x609 JUMPI PUSH3 0x609 PUSH3 0x4FE JUMP JUMPDEST MUL SWAP4 SWAP3 POP POP POP JUMP JUMPDEST PUSH1 0x0 PUSH3 0x622 PUSH1 0xFF DUP5 AND DUP4 PUSH3 0x55D JUMP JUMPDEST SWAP4 SWAP3 POP POP POP JUMP JUMPDEST DUP1 DUP3 MUL DUP2 ISZERO DUP3 DUP3 DIV DUP5 EQ OR PUSH3 0x1CF JUMPI PUSH3 0x1CF PUSH3 0x4FE JUMP JUMPDEST PUSH1 0x0 PUSH1 0x20 DUP1 DUP4 MSTORE DUP4 MLOAD DUP1 DUP3 DUP6 ADD MSTORE PUSH1 0x0 JUMPDEST DUP2 DUP2 LT ISZERO PUSH3 0x672 JUMPI DUP6 DUP2 ADD DUP4 ADD MLOAD DUP6 DUP3 ADD PUSH1 0x40 ADD MSTORE DUP3 ADD PUSH3 0x654 JUMP JUMPDEST POP PUSH1 0x0 PUSH1 0x40 DUP3 DUP7 ADD ADD MSTORE PUSH1 0x40 PUSH1 0x1F NOT PUSH1 0x1F DUP4 ADD AND DUP6 ADD ADD SWAP3 POP POP POP SWAP3 SWAP2 POP POP JUMP JUMPDEST DUP1 MLOAD PUSH1 0x20 DUP1 DUP4 ADD MLOAD SWAP2 SWAP1 DUP2 LT ISZERO PUSH3 0x3D9 JUMPI PUSH1 0x0 NOT PUSH1 0x20 SWAP2 SWAP1 SWAP2 SUB PUSH1 0x3 SHL SHL AND SWAP2 SWAP1 POP JUMP JUMPDEST DUP1 DUP3 ADD DUP1 DUP3 GT ISZERO PUSH3 0x1CF JUMPI PUSH3 0x1CF PUSH3 0x4FE JUMP JUMPDEST PUSH1 0x80 MLOAD PUSH1 0xA0 MLOAD PUSH1 0xC0 MLOAD PUSH1 0xE0 MLOAD PUSH2 0x100 MLOAD PUSH2 0x120 MLOAD PUSH2 0x140 MLOAD PUSH2 0xFB9 PUSH3 0x729 PUSH1 0x0 CODECOPY PUSH1 0x0 PUSH2 0x7A6 ADD MSTORE PUSH1 0x0 PUSH2 0x779 ADD MSTORE PUSH1 0x0 PUSH2 0x6EB ADD MSTORE PUSH1 0x0 PUSH2 0x6C3 ADD MSTORE PUSH1 0x0 PUSH2 0x61E ADD MSTORE PUSH1 0x0 PUSH2 0x648 ADD MSTORE PUSH1 0x0 PUSH2 0x672 ADD MSTORE PUSH2 0xFB9 PUSH1 0x0 RETURN INVALID PUSH1 0x80 PUSH1 0x40 MSTORE CALLVALUE DUP1 ISZERO PUSH2 0x10 JUMPI PUSH1 0x0 DUP1 REVERT JUMPDEST POP PUSH1 0x4 CALLDATASIZE LT PUSH2 0xF5 JUMPI PUSH1 0x0 CALLDATALOAD PUSH1 0xE0 SHR DUP1 PUSH4 0x70A08231 GT PUSH2 0x97 JUMPI DUP1 PUSH4 0x95D89B41 GT PUSH2 0x66 JUMPI DUP1 PUSH4 0x95D89B41 EQ PUSH2 0x1F6 JUMPI DUP1 PUSH4 0xA9059CBB EQ PUSH2 0x1FE JUMPI DUP1 PUSH4 0xD505ACCF EQ PUSH2 0x211 JUMPI DUP1 PUSH4 0xDD62ED3E EQ PUSH2 0x224 JUMPI PUSH1 0x0 DUP1 REVERT JUMPDEST DUP1 PUSH4 0x70A08231 EQ PUSH2 0x18C JUMPI DUP1 PUSH4 0x79CC6790 EQ PUSH2 0x1B5 JUMPI DUP1 PUSH4 0x7ECEBE00 EQ PUSH2 0x1C8 JUMPI DUP1 PUSH4 0x84B0196E EQ PUSH2 0x1DB JUMPI PUSH1 0x0 DUP1 REVERT JUMPDEST DUP1 PUSH4 0x23B872DD GT PUSH2 0xD3 JUMPI DUP1 PUSH4 0x23B872DD EQ PUSH2 0x14D JUMPI DUP1 PUSH4 0x313CE567 EQ PUSH2 0x160 JUMPI DUP1 PUSH4 0x3644E515 EQ PUSH2 0x16F JUMPI DUP1 PUSH4 0x42966C68 EQ PUSH2 0x177 JUMPI PUSH1 0x0 DUP1 REVERT JUMPDEST DUP1 PUSH4 0x6FDDE03 EQ PUSH2 0xFA JUMPI DUP1 PUSH4 0x95EA7B3 EQ PUSH2 0x118 JUMPI DUP1 PUSH4 0x18160DDD EQ PUSH2 0x13B JUMPI JUMPDEST PUSH1 0x0 DUP1 REVERT JUMPDEST PUSH2 0x102 PUSH2 0x25D JUMP JUMPDEST PUSH1 0x40 MLOAD PUSH2 0x10F SWAP2 SWAP1 PUSH2 0xD06 JUMP JUMPDEST PUSH1 0x40 MLOAD DUP1 SWAP2 SUB SWAP1 RETURN JUMPDEST PUSH2 0x12B PUSH2 0x126 CALLDATASIZE PUSH1 0x4 PUSH2 0xD3C JUMP JUMPDEST PUSH2 0x2EF JUMP JUMPDEST PUSH1 0x40 MLOAD SWAP1 ISZERO ISZERO DUP2 MSTORE PUSH1 0x20 ADD PUSH2 0x10F JUMP JUMPDEST PUSH1 0x2 SLOAD JUMPDEST PUSH1 0x40 MLOAD SWAP1 DUP2 MSTORE PUSH1 0x20 ADD PUSH2 0x10F JUMP JUMPDEST PUSH2 0x12B PUSH2 0x15B CALLDATASIZE PUSH1 0x4 PUSH2 0xD66 JUMP JUMPDEST PUSH2 0x309 JUMP JUMPDEST PUSH1 0x40 MLOAD PUSH1 0x12 DUP2 MSTORE PUSH1 0x20 ADD PUSH2 0x10F JUMP JUMPDEST PUSH2 0x13F PUSH2 0x32D JUMP JUMPDEST PUSH2 0x18A PUSH2 0x185 CALLDATASIZE PUSH1 0x4 PUSH2 0xDA2 JUMP JUMPDEST PUSH2 0x33C JUMP JUMPDEST STOP JUMPDEST PUSH2 0x13F PUSH2 0x19A CALLDATASIZE PUSH1 0x4 PUSH2 0xDBB JUMP JUMPDEST PUSH1 0x1 PUSH1 0x1 PUSH1 0xA0 SHL SUB AND PUSH1 0x0 SWAP1 DUP2 MSTORE PUSH1 0x20 DUP2 SWAP1 MSTORE PUSH1 0x40 SWAP1 KECCAK256 SLOAD SWAP1 JUMP JUMPDEST PUSH2 0x18A PUSH2 0x1C3 CALLDATASIZE PUSH1 0x4 PUSH2 0xD3C JUMP JUMPDEST PUSH2 0x349 JUMP JUMPDEST PUSH2 0x13F PUSH2 0x1D6 CALLDATASIZE PUSH1 0x4 PUSH2 0xDBB JUMP JUMPDEST PUSH2 0x362 JUMP JUMPDEST PUSH2 0x1E3 PUSH2 0x380 JUMP JUMPDEST PUSH1 0x40 MLOAD PUSH2 0x10F SWAP8 SWAP7 SWAP6 SWAP5 SWAP4 SWAP3 SWAP2 SWAP1 PUSH2 0xDD6 JUMP JUMPDEST PUSH2 0x102 PUSH2 0x3C6 JUMP JUMPDEST PUSH2 0x12B PUSH2 0x20C CALLDATASIZE PUSH1 0x4 PUSH2 0xD3C JUMP JUMPDEST PUSH2 0x3D5 JUMP JUMPDEST PUSH2 0x18A PUSH2 0x21F CALLDATASIZE PUSH1 0x4 PUSH2 0xE6C JUMP JUMPDEST PUSH2 0x3E3 JUMP JUMPDEST PUSH2 0x13F PUSH2 0x232 CALLDATASIZE PUSH1 0x4 PUSH2 0xEDF JUMP JUMPDEST PUSH1 0x1 PUSH1 0x1 PUSH1 0xA0 SHL SUB SWAP2 DUP3 AND PUSH1 0x0 SWAP1 DUP2 MSTORE PUSH1 0x1 PUSH1 0x20 SWAP1 DUP2 MSTORE PUSH1 0x40 DUP1 DUP4 KECCAK256 SWAP4 SWAP1 SWAP5 AND DUP3 MSTORE SWAP2 SWAP1 SWAP2 MSTORE KECCAK256 SLOAD SWAP1 JUMP JUMPDEST PUSH1 0x60 PUSH1 0x3 DUP1 SLOAD PUSH2 0x26C SWAP1 PUSH2 0xF12 JUMP JUMPDEST DUP1 PUSH1 0x1F ADD PUSH1 0x20 DUP1 SWAP2 DIV MUL PUSH1 0x20 ADD PUSH1 0x40 MLOAD SWAP1 DUP2 ADD PUSH1 0x40 MSTORE DUP1 SWAP3 SWAP2 SWAP1 DUP2 DUP2 MSTORE PUSH1 0x20 ADD DUP3 DUP1 SLOAD PUSH2 0x298 SWAP1 PUSH2 0xF12 JUMP JUMPDEST DUP1 ISZERO PUSH2 0x2E5 JUMPI DUP1 PUSH1 0x1F LT PUSH2 0x2BA JUMPI PUSH2 0x100 DUP1 DUP4 SLOAD DIV MUL DUP4 MSTORE SWAP2 PUSH1 0x20 ADD SWAP2 PUSH2 0x2E5 JUMP JUMPDEST DUP3 ADD SWAP2 SWAP1 PUSH1 0x0 MSTORE PUSH1 0x20 PUSH1 0x0 KECCAK256 SWAP1 JUMPDEST DUP2 SLOAD DUP2 MSTORE SWAP1 PUSH1 0x1 ADD SWAP1 PUSH1 0x20 ADD DUP1 DUP4 GT PUSH2 0x2C8 JUMPI DUP3 SWAP1 SUB PUSH1 0x1F AND DUP3 ADD SWAP2 JUMPDEST POP POP POP POP POP SWAP1 POP SWAP1 JUMP JUMPDEST PUSH1 0x0 CALLER PUSH2 0x2FD DUP2 DUP6 DUP6 PUSH2 0x522 JUMP JUMPDEST PUSH1 0x1 SWAP2 POP POP JUMPDEST SWAP3 SWAP2 POP POP JUMP JUMPDEST PUSH1 0x0 CALLER PUSH2 0x317 DUP6 DUP3 DUP6 PUSH2 0x534 JUMP JUMPDEST PUSH2 0x322 DUP6 DUP6 DUP6 PUSH2 0x5B2 JUMP JUMPDEST POP PUSH1 0x1 SWAP5 SWAP4 POP POP POP POP JUMP JUMPDEST PUSH1 0x0 PUSH2 0x337 PUSH2 0x611 JUMP JUMPDEST SWAP1 POP SWAP1 JUMP JUMPDEST PUSH2 0x346 CALLER DUP3 PUSH2 0x73C JUMP JUMPDEST POP JUMP JUMPDEST PUSH2 0x354 DUP3 CALLER DUP4 PUSH2 0x534 JUMP JUMPDEST PUSH2 0x35E DUP3 DUP3 PUSH2 0x73C JUMP JUMPDEST POP POP JUMP JUMPDEST PUSH1 0x1 PUSH1 0x1 PUSH1 0xA0 SHL SUB DUP2 AND PUSH1 0x0 SWAP1 DUP2 MSTORE PUSH1 0x7 PUSH1 0x20 MSTORE PUSH1 0x40 DUP2 KECCAK256 SLOAD PUSH2 0x303 JUMP JUMPDEST PUSH1 0x0 PUSH1 0x60 DUP1 PUSH1 0x0 DUP1 PUSH1 0x0 PUSH1 0x60 PUSH2 0x394 PUSH2 0x772 JUMP JUMPDEST PUSH2 0x39C PUSH2 0x79F JUMP JUMPDEST PUSH1 0x40 DUP1 MLOAD PUSH1 0x0 DUP1 DUP3 MSTORE PUSH1 0x20 DUP3 ADD SWAP1 SWAP3 MSTORE PUSH1 0xF PUSH1 0xF8 SHL SWAP12 SWAP4 SWAP11 POP SWAP2 SWAP9 POP CHAINID SWAP8 POP ADDRESS SWAP7 POP SWAP5 POP SWAP3 POP SWAP1 POP JUMP JUMPDEST PUSH1 0x60 PUSH1 0x4 DUP1 SLOAD PUSH2 0x26C SWAP1 PUSH2 0xF12 JUMP JUMPDEST PUSH1 0x0 CALLER PUSH2 0x2FD DUP2 DUP6 DUP6 PUSH2 0x5B2 JUMP JUMPDEST DUP4 TIMESTAMP GT ISZERO PUSH2 0x40C JUMPI PUSH1 0x40 MLOAD PUSH4 0x313C8981 PUSH1 0xE1 SHL DUP2 MSTORE PUSH1 0x4 DUP2 ADD DUP6 SWAP1 MSTORE PUSH1 0x24 ADD JUMPDEST PUSH1 0x40 MLOAD DUP1 SWAP2 SUB SWAP1 REVERT JUMPDEST PUSH1 0x0 PUSH32 0x6E71EDAE12B1B97F4D1F60370FEF10105FA2FAAE0126114A169C64845D6126C9 DUP9 DUP9 DUP9 PUSH2 0x459 DUP13 PUSH1 0x1 PUSH1 0x1 PUSH1 0xA0 SHL SUB AND PUSH1 0x0 SWAP1 DUP2 MSTORE PUSH1 0x7 PUSH1 0x20 MSTORE PUSH1 0x40 SWAP1 KECCAK256 DUP1 SLOAD PUSH1 0x1 DUP2 ADD SWAP1 SWAP2 SSTORE SWAP1 JUMP JUMPDEST PUSH1 0x40 DUP1 MLOAD PUSH1 0x20 DUP2 ADD SWAP7 SWAP1 SWAP7 MSTORE PUSH1 0x1 PUSH1 0x1 PUSH1 0xA0 SHL SUB SWAP5 DUP6 AND SWAP1 DUP7 ADD MSTORE SWAP3 SWAP1 SWAP2 AND PUSH1 0x60 DUP5 ADD MSTORE PUSH1 0x80 DUP4 ADD MSTORE PUSH1 0xA0 DUP3 ADD MSTORE PUSH1 0xC0 DUP2 ADD DUP7 SWAP1 MSTORE PUSH1 0xE0 ADD PUSH1 0x40 MLOAD PUSH1 0x20 DUP2 DUP4 SUB SUB DUP2 MSTORE SWAP1 PUSH1 0x40 MSTORE DUP1 MLOAD SWAP1 PUSH1 0x20 ADD KECCAK256 SWAP1 POP PUSH1 0x0 PUSH2 0x4B4 DUP3 PUSH2 0x7CC JUMP JUMPDEST SWAP1 POP PUSH1 0x0 PUSH2 0x4C4 DUP3 DUP8 DUP8 DUP8 PUSH2 0x7F9 JUMP JUMPDEST SWAP1 POP DUP10 PUSH1 0x1 PUSH1 0x1 PUSH1 0xA0 SHL SUB AND DUP2 PUSH1 0x1 PUSH1 0x1 PUSH1 0xA0 SHL SUB AND EQ PUSH2 0x50B JUMPI PUSH1 0x40 MLOAD PUSH4 0x25C00723 PUSH1 0xE1 SHL DUP2 MSTORE PUSH1 0x1 PUSH1 0x1 PUSH1 0xA0 SHL SUB DUP1 DUP4 AND PUSH1 0x4 DUP4 ADD MSTORE DUP12 AND PUSH1 0x24 DUP3 ADD MSTORE PUSH1 0x44 ADD PUSH2 0x403 JUMP JUMPDEST PUSH2 0x516 DUP11 DUP11 DUP11 PUSH2 0x522 JUMP JUMPDEST POP POP POP POP POP POP POP POP POP POP JUMP JUMPDEST PUSH2 0x52F DUP4 DUP4 DUP4 PUSH1 0x1 PUSH2 0x827 JUMP JUMPDEST POP POP POP JUMP JUMPDEST PUSH1 0x1 PUSH1 0x1 PUSH1 0xA0 SHL SUB DUP4 DUP2 AND PUSH1 0x0 SWAP1 DUP2 MSTORE PUSH1 0x1 PUSH1 0x20 SWAP1 DUP2 MSTORE PUSH1 0x40 DUP1 DUP4 KECCAK256 SWAP4 DUP7 AND DUP4 MSTORE SWAP3 SWAP1 MSTORE KECCAK256 SLOAD PUSH1 0x0 NOT DUP2 EQ PUSH2 0x5AC JUMPI DUP2 DUP2 LT ISZERO PUSH2 0x59D JUMPI PUSH1 0x40 MLOAD PUSH4 0x7DC7A0D9 PUSH1 0xE1 SHL DUP2 MSTORE PUSH1 0x1 PUSH1 0x1 PUSH1 0xA0 SHL SUB DUP5 AND PUSH1 0x4 DUP3 ADD MSTORE PUSH1 0x24 DUP2 ADD DUP3 SWAP1 MSTORE PUSH1 0x44 DUP2 ADD DUP4 SWAP1 MSTORE PUSH1 0x64 ADD PUSH2 0x403 JUMP JUMPDEST PUSH2 0x5AC DUP5 DUP5 DUP5 DUP5 SUB PUSH1 0x0 PUSH2 0x827 JUMP JUMPDEST POP POP POP POP JUMP JUMPDEST PUSH1 0x1 PUSH1 0x1 PUSH1 0xA0 SHL SUB DUP4 AND PUSH2 0x5DC JUMPI PUSH1 0x40 MLOAD PUSH4 0x4B637E8F PUSH1 0xE1 SHL DUP2 MSTORE PUSH1 0x0 PUSH1 0x4 DUP3 ADD MSTORE PUSH1 0x24 ADD PUSH2 0x403 JUMP JUMPDEST PUSH1 0x1 PUSH1 0x1 PUSH1 0xA0 SHL SUB DUP3 AND PUSH2 0x606 JUMPI PUSH1 0x40 MLOAD PUSH4 0xEC442F05 PUSH1 0xE0 SHL DUP2 MSTORE PUSH1 0x0 PUSH1 0x4 DUP3 ADD MSTORE PUSH1 0x24 ADD PUSH2 0x403 JUMP JUMPDEST PUSH2 0x52F DUP4 DUP4 DUP4 PUSH2 0x8FC JUMP JUMPDEST PUSH1 0x0 ADDRESS PUSH1 0x1 PUSH1 0x1 PUSH1 0xA0 SHL SUB PUSH32 0x0 AND EQ DUP1 ISZERO PUSH2 0x66A JUMPI POP PUSH32 0x0 CHAINID EQ JUMPDEST ISZERO PUSH2 0x694 JUMPI POP PUSH32 0x0 SWAP1 JUMP JUMPDEST PUSH2 0x337 PUSH1 0x40 DUP1 MLOAD PUSH32 0x8B73C3C69BB8FE3D512ECC4CF759CC79239F7B179B0FFACAA9A75D522B39400F PUSH1 0x20 DUP3 ADD MSTORE PUSH32 0x0 SWAP2 DUP2 ADD SWAP2 SWAP1 SWAP2 MSTORE PUSH32 0x0 PUSH1 0x60 DUP3 ADD MSTORE CHAINID PUSH1 0x80 DUP3 ADD MSTORE ADDRESS PUSH1 0xA0 DUP3 ADD MSTORE PUSH1 0x0 SWAP1 PUSH1 0xC0 ADD PUSH1 0x40 MLOAD PUSH1 0x20 DUP2 DUP4 SUB SUB DUP2 MSTORE SWAP1 PUSH1 0x40 MSTORE DUP1 MLOAD SWAP1 PUSH1 0x20 ADD KECCAK256 SWAP1 POP SWAP1 JUMP JUMPDEST PUSH1 0x1 PUSH1 0x1 PUSH1 0xA0 SHL SUB DUP3 AND PUSH2 0x766 JUMPI PUSH1 0x40 MLOAD PUSH4 0x4B637E8F PUSH1 0xE1 SHL DUP2 MSTORE PUSH1 0x0 PUSH1 0x4 DUP3 ADD MSTORE PUSH1 0x24 ADD PUSH2 0x403 JUMP JUMPDEST PUSH2 0x35E DUP3 PUSH1 0x0 DUP4 PUSH2 0x8FC JUMP JUMPDEST PUSH1 0x60 PUSH2 0x337 PUSH32 0x0 PUSH1 0x5 PUSH2 0xA26 JUMP JUMPDEST PUSH1 0x60 PUSH2 0x337 PUSH32 0x0 PUSH1 0x6 PUSH2 0xA26 JUMP JUMPDEST PUSH1 0x0 PUSH2 0x303 PUSH2 0x7D9 PUSH2 0x611 JUMP JUMPDEST DUP4 PUSH1 0x40 MLOAD PUSH2 0x1901 PUSH1 0xF0 SHL DUP2 MSTORE PUSH1 0x2 DUP2 ADD SWAP3 SWAP1 SWAP3 MSTORE PUSH1 0x22 DUP3 ADD MSTORE PUSH1 0x42 SWAP1 KECCAK256 SWAP1 JUMP JUMPDEST PUSH1 0x0 DUP1 PUSH1 0x0 DUP1 PUSH2 0x80B DUP9 DUP9 DUP9 DUP9 PUSH2 0xAD1 JUMP JUMPDEST SWAP3 POP SWAP3 POP SWAP3 POP PUSH2 0x81B DUP3 DUP3 PUSH2 0xBA0 JUMP JUMPDEST POP SWAP1 SWAP7 SWAP6 POP POP POP POP POP POP JUMP JUMPDEST PUSH1 0x1 PUSH1 0x1 PUSH1 0xA0 SHL SUB DUP5 AND PUSH2 0x851 JUMPI PUSH1 0x40 MLOAD PUSH4 0xE602DF05 PUSH1 0xE0 SHL DUP2 MSTORE PUSH1 0x0 PUSH1 0x4 DUP3 ADD MSTORE PUSH1 0x24 ADD PUSH2 0x403 JUMP JUMPDEST PUSH1 0x1 PUSH1 0x1 PUSH1 0xA0 SHL SUB DUP4 AND PUSH2 0x87B JUMPI PUSH1 0x40 MLOAD PUSH4 0x4A1406B1 PUSH1 0xE1 SHL DUP2 MSTORE PUSH1 0x0 PUSH1 0x4 DUP3 ADD MSTORE PUSH1 0x24 ADD PUSH2 0x403 JUMP JUMPDEST PUSH1 0x1 PUSH1 0x1 PUSH1 0xA0 SHL SUB DUP1 DUP6 AND PUSH1 0x0 SWAP1 DUP2 MSTORE PUSH1 0x1 PUSH1 0x20 SWAP1 DUP2 MSTORE PUSH1 0x40 DUP1 DUP4 KECCAK256 SWAP4 DUP8 AND DUP4 MSTORE SWAP3 SWAP1 MSTORE KECCAK256 DUP3 SWAP1 SSTORE DUP1 ISZERO PUSH2 0x5AC JUMPI DUP3 PUSH1 0x1 PUSH1 0x1 PUSH1 0xA0 SHL SUB AND DUP5 PUSH1 0x1 PUSH1 0x1 PUSH1 0xA0 SHL SUB AND PUSH32 0x8C5BE1E5EBEC7D5BD14F71427D1E84F3DD0314C0F7B2291E5B200AC8C7C3B925 DUP5 PUSH1 0x40 MLOAD PUSH2 0x8EE SWAP2 DUP2 MSTORE PUSH1 0x20 ADD SWAP1 JUMP JUMPDEST PUSH1 0x40 MLOAD DUP1 SWAP2 SUB SWAP1 LOG3 POP POP POP POP JUMP JUMPDEST PUSH1 0x1 PUSH1 0x1 PUSH1 0xA0 SHL SUB DUP4 AND PUSH2 0x927 JUMPI DUP1 PUSH1 0x2 PUSH1 0x0 DUP3 DUP3 SLOAD PUSH2 0x91C SWAP2 SWAP1 PUSH2 0xF4C JUMP JUMPDEST SWAP1 SWAP2 SSTORE POP PUSH2 0x999 SWAP1 POP JUMP JUMPDEST PUSH1 0x1 PUSH1 0x1 PUSH1 0xA0 SHL SUB DUP4 AND PUSH1 0x0 SWAP1 DUP2 MSTORE PUSH1 0x20 DUP2 SWAP1 MSTORE PUSH1 0x40 SWAP1 KECCAK256 SLOAD DUP2 DUP2 LT ISZERO PUSH2 0x97A JUMPI PUSH1 0x40 MLOAD PUSH4 0x391434E3 PUSH1 0xE2 SHL DUP2 MSTORE PUSH1 0x1 PUSH1 0x1 PUSH1 0xA0 SHL SUB DUP6 AND PUSH1 0x4 DUP3 ADD MSTORE PUSH1 0x24 DUP2 ADD DUP3 SWAP1 MSTORE PUSH1 0x44 DUP2 ADD DUP4 SWAP1 MSTORE PUSH1 0x64 ADD PUSH2 0x403 JUMP JUMPDEST PUSH1 0x1 PUSH1 0x1 PUSH1 0xA0 SHL SUB DUP5 AND PUSH1 0x0 SWAP1 DUP2 MSTORE PUSH1 0x20 DUP2 SWAP1 MSTORE PUSH1 0x40 SWAP1 KECCAK256 SWAP1 DUP3 SWAP1 SUB SWAP1 SSTORE JUMPDEST PUSH1 0x1 PUSH1 0x1 PUSH1 0xA0 SHL SUB DUP3 AND PUSH2 0x9B5 JUMPI PUSH1 0x2 DUP1 SLOAD DUP3 SWAP1 SUB SWAP1 SSTORE PUSH2 0x9D4 JUMP JUMPDEST PUSH1 0x1 PUSH1 0x1 PUSH1 0xA0 SHL SUB DUP3 AND PUSH1 0x0 SWAP1 DUP2 MSTORE PUSH1 0x20 DUP2 SWAP1 MSTORE PUSH1 0x40 SWAP1 KECCAK256 DUP1 SLOAD DUP3 ADD SWAP1 SSTORE JUMPDEST DUP2 PUSH1 0x1 PUSH1 0x1 PUSH1 0xA0 SHL SUB AND DUP4 PUSH1 0x1 PUSH1 0x1 PUSH1 0xA0 SHL SUB AND PUSH32 0xDDF252AD1BE2C89B69C2B068FC378DAA952BA7F163C4A11628F55A4DF523B3EF DUP4 PUSH1 0x40 MLOAD PUSH2 0xA19 SWAP2 DUP2 MSTORE PUSH1 0x20 ADD SWAP1 JUMP JUMPDEST PUSH1 0x40 MLOAD DUP1 SWAP2 SUB SWAP1 LOG3 POP POP POP JUMP JUMPDEST PUSH1 0x60 PUSH1 0xFF DUP4 EQ PUSH2 0xA40 JUMPI PUSH2 0xA39 DUP4 PUSH2 0xC59 JUMP JUMPDEST SWAP1 POP PUSH2 0x303 JUMP JUMPDEST DUP2 DUP1 SLOAD PUSH2 0xA4C SWAP1 PUSH2 0xF12 JUMP JUMPDEST DUP1 PUSH1 0x1F ADD PUSH1 0x20 DUP1 SWAP2 DIV MUL PUSH1 0x20 ADD PUSH1 0x40 MLOAD SWAP1 DUP2 ADD PUSH1 0x40 MSTORE DUP1 SWAP3 SWAP2 SWAP1 DUP2 DUP2 MSTORE PUSH1 0x20 ADD DUP3 DUP1 SLOAD PUSH2 0xA78 SWAP1 PUSH2 0xF12 JUMP JUMPDEST DUP1 ISZERO PUSH2 0xAC5 JUMPI DUP1 PUSH1 0x1F LT PUSH2 0xA9A JUMPI PUSH2 0x100 DUP1 DUP4 SLOAD DIV MUL DUP4 MSTORE SWAP2 PUSH1 0x20 ADD SWAP2 PUSH2 0xAC5 JUMP JUMPDEST DUP3 ADD SWAP2 SWAP1 PUSH1 0x0 MSTORE PUSH1 0x20 PUSH1 0x0 KECCAK256 SWAP1 JUMPDEST DUP2 SLOAD DUP2 MSTORE SWAP1 PUSH1 0x1 ADD SWAP1 PUSH1 0x20 ADD DUP1 DUP4 GT PUSH2 0xAA8 JUMPI DUP3 SWAP1 SUB PUSH1 0x1F AND DUP3 ADD SWAP2 JUMPDEST POP POP POP POP POP SWAP1 POP PUSH2 0x303 JUMP JUMPDEST PUSH1 0x0 DUP1 DUP1 PUSH32 0x7FFFFFFFFFFFFFFFFFFFFFFFFFFFFFFF5D576E7357A4501DDFE92F46681B20A0 DUP5 GT ISZERO PUSH2 0xB0C JUMPI POP PUSH1 0x0 SWAP2 POP PUSH1 0x3 SWAP1 POP DUP3 PUSH2 0xB96 JUMP JUMPDEST PUSH1 0x40 DUP1 MLOAD PUSH1 0x0 DUP1 DUP3 MSTORE PUSH1 0x20 DUP3 ADD DUP1 DUP5 MSTORE DUP11 SWAP1 MSTORE PUSH1 0xFF DUP10 AND SWAP3 DUP3 ADD SWAP3 SWAP1 SWAP3 MSTORE PUSH1 0x60 DUP2 ADD DUP8 SWAP1 MSTORE PUSH1 0x80 DUP2 ADD DUP7 SWAP1 MSTORE PUSH1 0x1 SWAP1 PUSH1 0xA0 ADD PUSH1 0x20 PUSH1 0x40 MLOAD PUSH1 0x20 DUP2 SUB SWAP1 DUP1 DUP5 SUB SWAP1 DUP6 GAS STATICCALL ISZERO DUP1 ISZERO PUSH2 0xB60 JUMPI RETURNDATASIZE PUSH1 0x0 DUP1 RETURNDATACOPY RETURNDATASIZE PUSH1 0x0 REVERT JUMPDEST POP POP PUSH1 0x40 MLOAD PUSH1 0x1F NOT ADD MLOAD SWAP2 POP POP PUSH1 0x1 PUSH1 0x1 PUSH1 0xA0 SHL SUB DUP2 AND PUSH2 0xB8C JUMPI POP PUSH1 0x0 SWAP3 POP PUSH1 0x1 SWAP2 POP DUP3 SWAP1 POP PUSH2 0xB96 JUMP JUMPDEST SWAP3 POP PUSH1 0x0 SWAP2 POP DUP2 SWAP1 POP JUMPDEST SWAP5 POP SWAP5 POP SWAP5 SWAP2 POP POP JUMP JUMPDEST PUSH1 0x0 DUP3 PUSH1 0x3 DUP2 GT ISZERO PUSH2 0xBB4 JUMPI PUSH2 0xBB4 PUSH2 0xF6D JUMP JUMPDEST SUB PUSH2 0xBBD JUMPI POP POP JUMP JUMPDEST PUSH1 0x1 DUP3 PUSH1 0x3 DUP2 GT ISZERO PUSH2 0xBD1 JUMPI PUSH2 0xBD1 PUSH2 0xF6D JUMP JUMPDEST SUB PUSH2 0xBEF JUMPI PUSH1 0x40 MLOAD PUSH4 0xF645EEDF PUSH1 0xE0 SHL DUP2 MSTORE PUSH1 0x4 ADD PUSH1 0x40 MLOAD DUP1 SWAP2 SUB SWAP1 REVERT JUMPDEST PUSH1 0x2 DUP3 PUSH1 0x3 DUP2 GT ISZERO PUSH2 0xC03 JUMPI PUSH2 0xC03 PUSH2 0xF6D JUMP JUMPDEST SUB PUSH2 0xC24 JUMPI PUSH1 0x40 MLOAD PUSH4 0xFCE698F7 PUSH1 0xE0 SHL DUP2 MSTORE PUSH1 0x4 DUP2 ADD DUP3 SWAP1 MSTORE PUSH1 0x24 ADD PUSH2 0x403 JUMP JUMPDEST PUSH1 0x3 DUP3 PUSH1 0x3 DUP2 GT ISZERO PUSH2 0xC38 JUMPI PUSH2 0xC38 PUSH2 0xF6D JUMP JUMPDEST SUB PUSH2 0x35E JUMPI PUSH1 0x40 MLOAD PUSH4 0x35E2F383 PUSH1 0xE2 SHL DUP2 MSTORE PUSH1 0x4 DUP2 ADD DUP3 SWAP1 MSTORE PUSH1 0x24 ADD PUSH2 0x403 JUMP JUMPDEST PUSH1 0x60 PUSH1 0x0 PUSH2 0xC66 DUP4 PUSH2 0xC98 JUMP JUMPDEST PUSH1 0x40 DUP1 MLOAD PUSH1 0x20 DUP1 DUP3 MSTORE DUP2 DUP4 ADD SWAP1 SWAP3 MSTORE SWAP2 SWAP3 POP PUSH1 0x0 SWAP2 SWAP1 PUSH1 0x20 DUP3 ADD DUP2 DUP1 CALLDATASIZE DUP4 CALLDATACOPY POP POP POP SWAP2 DUP3 MSTORE POP PUSH1 0x20 DUP2 ADD SWAP3 SWAP1 SWAP3 MSTORE POP SWAP1 JUMP JUMPDEST PUSH1 0x0 PUSH1 0xFF DUP3 AND PUSH1 0x1F DUP2 GT ISZERO PUSH2 0x303 JUMPI PUSH1 0x40 MLOAD PUSH4 0x2CD44AC3 PUSH1 0xE2 SHL DUP2 MSTORE PUSH1 0x4 ADD PUSH1 0x40 MLOAD DUP1 SWAP2 SUB SWAP1 REVERT JUMPDEST PUSH1 0x0 DUP2 MLOAD DUP1 DUP5 MSTORE PUSH1 0x0 JUMPDEST DUP2 DUP2 LT ISZERO PUSH2 0xCE6 JUMPI PUSH1 0x20 DUP2 DUP6 ADD DUP2 ADD MLOAD DUP7 DUP4 ADD DUP3 ADD MSTORE ADD PUSH2 0xCCA JUMP JUMPDEST POP PUSH1 0x0 PUSH1 0x20 DUP3 DUP7 ADD ADD MSTORE PUSH1 0x20 PUSH1 0x1F NOT PUSH1 0x1F DUP4 ADD AND DUP6 ADD ADD SWAP2 POP POP SWAP3 SWAP2 POP POP JUMP JUMPDEST PUSH1 0x20 DUP2 MSTORE PUSH1 0x0 PUSH2 0xD19 PUSH1 0x20 DUP4 ADD DUP5 PUSH2 0xCC0 JUMP JUMPDEST SWAP4 SWAP3 POP POP POP JUMP JUMPDEST DUP1 CALLDATALOAD PUSH1 0x1 PUSH1 0x1 PUSH1 0xA0 SHL SUB DUP2 AND DUP2 EQ PUSH2 0xD37 JUMPI PUSH1 0x0 DUP1 REVERT JUMPDEST SWAP2 SWAP1 POP JUMP JUMPDEST PUSH1 0x0 DUP1 PUSH1 0x40 DUP4 DUP6 SUB SLT ISZERO PUSH2 0xD4F JUMPI PUSH1 0x0 DUP1 REVERT JUMPDEST PUSH2 0xD58 DUP4 PUSH2 0xD20 JUMP JUMPDEST SWAP5 PUSH1 0x20 SWAP4 SWAP1 SWAP4 ADD CALLDATALOAD SWAP4 POP POP POP JUMP JUMPDEST PUSH1 0x0 DUP1 PUSH1 0x0 PUSH1 0x60 DUP5 DUP7 SUB SLT ISZERO PUSH2 0xD7B JUMPI PUSH1 0x0 DUP1 REVERT JUMPDEST PUSH2 0xD84 DUP5 PUSH2 0xD20 JUMP JUMPDEST SWAP3 POP PUSH2 0xD92 PUSH1 0x20 DUP6 ADD PUSH2 0xD20 JUMP JUMPDEST SWAP2 POP PUSH1 0x40 DUP5 ADD CALLDATALOAD SWAP1 POP SWAP3 POP SWAP3 POP SWAP3 JUMP JUMPDEST PUSH1 0x0 PUSH1 0x20 DUP3 DUP5 SUB SLT ISZERO PUSH2 0xDB4 JUMPI PUSH1 0x0 DUP1 REVERT JUMPDEST POP CALLDATALOAD SWAP2 SWAP1 POP JUMP JUMPDEST PUSH1 0x0 PUSH1 0x20 DUP3 DUP5 SUB SLT ISZERO PUSH2 0xDCD JUMPI PUSH1 0x0 DUP1 REVERT JUMPDEST PUSH2 0xD19 DUP3 PUSH2 0xD20 JUMP JUMPDEST PUSH1 0xFF PUSH1 0xF8 SHL DUP9 AND DUP2 MSTORE PUSH1 0x0 PUSH1 0x20 PUSH1 0xE0 DUP2 DUP5 ADD MSTORE PUSH2 0xDF6 PUSH1 0xE0 DUP5 ADD DUP11 PUSH2 0xCC0 JUMP JUMPDEST DUP4 DUP2 SUB PUSH1 0x40 DUP6 ADD MSTORE PUSH2 0xE08 DUP2 DUP11 PUSH2 0xCC0 JUMP JUMPDEST PUSH1 0x60 DUP6 ADD DUP10 SWAP1 MSTORE PUSH1 0x1 PUSH1 0x1 PUSH1 0xA0 SHL SUB DUP9 AND PUSH1 0x80 DUP7 ADD MSTORE PUSH1 0xA0 DUP6 ADD DUP8 SWAP1 MSTORE DUP5 DUP2 SUB PUSH1 0xC0 DUP7 ADD MSTORE DUP6 MLOAD DUP1 DUP3 MSTORE DUP4 DUP8 ADD SWAP3 POP SWAP1 DUP4 ADD SWAP1 PUSH1 0x0 JUMPDEST DUP2 DUP2 LT ISZERO PUSH2 0xE5A JUMPI DUP4 MLOAD DUP4 MSTORE SWAP3 DUP5 ADD SWAP3 SWAP2 DUP5 ADD SWAP2 PUSH1 0x1 ADD PUSH2 0xE3E JUMP JUMPDEST POP SWAP1 SWAP13 SWAP12 POP POP POP POP POP POP POP POP POP POP POP POP JUMP JUMPDEST PUSH1 0x0 DUP1 PUSH1 0x0 DUP1 PUSH1 0x0 DUP1 PUSH1 0x0 PUSH1 0xE0 DUP9 DUP11 SUB SLT ISZERO PUSH2 0xE87 JUMPI PUSH1 0x0 DUP1 REVERT JUMPDEST PUSH2 0xE90 DUP9 PUSH2 0xD20 JUMP JUMPDEST SWAP7 POP PUSH2 0xE9E PUSH1 0x20 DUP10 ADD PUSH2 0xD20 JUMP JUMPDEST SWAP6 POP PUSH1 0x40 DUP9 ADD CALLDATALOAD SWAP5 POP PUSH1 0x60 DUP9 ADD CALLDATALOAD SWAP4 POP PUSH1 0x80 DUP9 ADD CALLDATALOAD PUSH1 0xFF DUP2 AND DUP2 EQ PUSH2 0xEC2 JUMPI PUSH1 0x0 DUP1 REVERT JUMPDEST SWAP7 SWAP10 SWAP6 SWAP9 POP SWAP4 SWAP7 SWAP3 SWAP6 SWAP5 PUSH1 0xA0 DUP5 ADD CALLDATALOAD SWAP5 POP PUSH1 0xC0 SWAP1 SWAP4 ADD CALLDATALOAD SWAP3 SWAP2 POP POP JUMP JUMPDEST PUSH1 0x0 DUP1 PUSH1 0x40 DUP4 DUP6 SUB SLT ISZERO PUSH2 0xEF2 JUMPI PUSH1 0x0 DUP1 REVERT JUMPDEST PUSH2 0xEFB DUP4 PUSH2 0xD20 JUMP JUMPDEST SWAP2 POP PUSH2 0xF09 PUSH1 0x20 DUP5 ADD PUSH2 0xD20 JUMP JUMPDEST SWAP1 POP SWAP3 POP SWAP3 SWAP1 POP JUMP JUMPDEST PUSH1 0x1 DUP2 DUP2 SHR SWAP1 DUP3 AND DUP1 PUSH2 0xF26 JUMPI PUSH1 0x7F DUP3 AND SWAP2 POP JUMPDEST PUSH1 0x20 DUP3 LT DUP2 SUB PUSH2 0xF46 JUMPI PUSH4 0x4E487B71 PUSH1 0xE0 SHL PUSH1 0x0 MSTORE PUSH1 0x22 PUSH1 0x4 MSTORE PUSH1 0x24 PUSH1 0x0 REVERT JUMPDEST POP SWAP2 SWAP1 POP JUMP JUMPDEST DUP1 DUP3 ADD DUP1 DUP3 GT ISZERO PUSH2 0x303 JUMPI PUSH4 0x4E487B71 PUSH1 0xE0 SHL PUSH1 0x0 MSTORE PUSH1 0x11 PUSH1 0x4 MSTORE PUSH1 0x24 PUSH1 0x0 REVERT JUMPDEST PUSH4 0x4E487B71 PUSH1 0xE0 SHL PUSH1 0x0 MSTORE PUSH1 0x21 PUSH1 0x4 MSTORE PUSH1 0x24 PUSH1 0x0 REVERT INVALID LOG2 PUSH5 0x6970667358 0x22 SLT KECCAK256 0x4A 0xBC CALLCODE OR 0xA6 0xB3 RETURN 0xCA RETURN 0xD6 0xB7 SGT SWAP2 0xB8 0x5D 0x1E 0xED 0xE3 OR 0xE7 INVALID DUP1 SWAP15 PUSH28 0x47D1312C0EE0509364736F6C63430008130033000000000000000000 "
				},
				"gasEstimates": {
					"creation": {
						"codeDepositCost": "805000",
						"executionCost": "infinite",
						"totalCost": "infinite"
					},
					"external": {
						"DOMAIN_SEPARATOR()": "infinite",
						"allowance(address,address)": "infinite",
						"approve(address,uint256)": "24762",
						"balanceOf(address)": "2563",
						"burn(uint256)": "51010",
						"burnFrom(address,uint256)": "infinite",
						"decimals()": "222",
						"eip712Domain()": "infinite",
						"name()": "infinite",
						"nonces(address)": "2638",
						"permit(address,address,uint256,uint256,uint8,bytes32,bytes32)": "infinite",
						"symbol()": "infinite",
						"totalSupply()": "2349",
						"transfer(address,uint256)": "51266",
						"transferFrom(address,address,uint256)": "infinite"
					}
				},
				"methodIdentifiers": {
					"DOMAIN_SEPARATOR()": "3644e515",
					"allowance(address,address)": "dd62ed3e",
					"approve(address,uint256)": "095ea7b3",
					"balanceOf(address)": "70a08231",
					"burn(uint256)": "42966c68",
					"burnFrom(address,uint256)": "79cc6790",
					"decimals()": "313ce567",
					"eip712Domain()": "84b0196e",
					"name()": "06fdde03",
					"nonces(address)": "7ecebe00",
					"permit(address,address,uint256,uint256,uint8,bytes32,bytes32)": "d505accf",
					"symbol()": "95d89b41",
					"totalSupply()": "18160ddd",
					"transfer(address,uint256)": "a9059cbb",
					"transferFrom(address,address,uint256)": "23b872dd"
				}
			},
			"storageLayout": {
				"storage": [
					{
						"astId": 184,
						"contract": "moolahverse.sol:Moolahverse",
						"label": "_balances",
						"offset": 0,
						"slot": "0",
						"type": "t_mapping(t_address,t_uint256)"
					},
					{
						"astId": 190,
						"contract": "moolahverse.sol:Moolahverse",
						"label": "_allowances",
						"offset": 0,
						"slot": "1",
						"type": "t_mapping(t_address,t_mapping(t_address,t_uint256))"
					},
					{
						"astId": 192,
						"contract": "moolahverse.sol:Moolahverse",
						"label": "_totalSupply",
						"offset": 0,
						"slot": "2",
						"type": "t_uint256"
					},
					{
						"astId": 194,
						"contract": "moolahverse.sol:Moolahverse",
						"label": "_name",
						"offset": 0,
						"slot": "3",
						"type": "t_string_storage"
					},
					{
						"astId": 196,
						"contract": "moolahverse.sol:Moolahverse",
						"label": "_symbol",
						"offset": 0,
						"slot": "4",
						"type": "t_string_storage"
					},
					{
						"astId": 2073,
						"contract": "moolahverse.sol:Moolahverse",
						"label": "_nameFallback",
						"offset": 0,
						"slot": "5",
						"type": "t_string_storage"
					},
					{
						"astId": 2075,
						"contract": "moolahverse.sol:Moolahverse",
						"label": "_versionFallback",
						"offset": 0,
						"slot": "6",
						"type": "t_string_storage"
					},
					{
						"astId": 1052,
						"contract": "moolahverse.sol:Moolahverse",
						"label": "_nonces",
						"offset": 0,
						"slot": "7",
						"type": "t_mapping(t_address,t_uint256)"
					}
				],
				"types": {
					"t_address": {
						"encoding": "inplace",
						"label": "address",
						"numberOfBytes": "20"
					},
					"t_mapping(t_address,t_mapping(t_address,t_uint256))": {
						"encoding": "mapping",
						"key": "t_address",
						"label": "mapping(address => mapping(address => uint256))",
						"numberOfBytes": "32",
						"value": "t_mapping(t_address,t_uint256)"
					},
					"t_mapping(t_address,t_uint256)": {
						"encoding": "mapping",
						"key": "t_address",
						"label": "mapping(address => uint256)",
						"numberOfBytes": "32",
						"value": "t_uint256"
					},
					"t_string_storage": {
						"encoding": "bytes",
						"label": "string",
						"numberOfBytes": "32"
					},
					"t_uint256": {
						"encoding": "inplace",
						"label": "uint256",
						"numberOfBytes": "32"
					}
				}
			},
			"userdoc": {
				"kind": "user",
				"methods": {},
				"version": 1
			}
		}
	}
}